:020000040800F2
:10000000E0170020450100084D0100084F010008DD
:1000100051010008530100085501000800000000CC
:100020000000000000000000000000005701000870
:1000300059010008000000005B010008F960000899
:100040005F0100085F0100085F0100085F01000810
:100050005F0100085F0100085F0100085F01000800
:100060005F0100085F0100085F0100085F010008F0
:100070005F0100085F0100085F0100085F010008E0
:100080005F0100085F0100085F010008357C00087F
:10009000457C00085F0100085F0100085F0100085F
:1000A0005F0100085F0100085F0100085F010008B0
:1000B0005F0100085F0100085F0100085F010008A0
:1000C0005F0100085F0100085F0100085F01000890
:1000D0005F0100085F0100085F0100085F01000880
:1000E0005F0100085F0100085F0100085F01000870
:1000F0005F0100085F0100085F0100085F01000860
:100100005F010008555200085F0100085F01000808
:100110005F0100085F0100085F0100085F0100083F
:100120005F0100085F0100085F010008C9030008C3
:10013000DFF80CD000F0A2F800480047F991000861
:10014000E01700200648804706480047FEE7FEE724
:10015000FEE7FEE7FEE7FEE7FEE7FEE7FEE7FEE777
:100160007D610008310100082DE9F05F054600209F
:1001700092469B4688460646814640241BE0284618
:1001800041464746224600F020F853465A46C01AD8
:10019000914110D311461846224600F060F82D1AFE
:1001A00067EB01084F4622460120002100F057F876
:1001B00017EB00094E41201EA4F10104DFDC484684
:1001C00031462A464346BDE8F09F202A04DB203A08
:1001D00021FA02F00021704721FA02F3D040C2F167
:1001E0002002914008431946704740EA01039B07EB
:1001F00003D009E008C9121F08C0042AFAD203E09C
:1002000011F8013B00F8013B521EF9D27047D2B2FF
:1002100001E000F8012B491EFBD270470022F6E7EF
:1002200010B513460A4604461946FFF7F0FF20466C
:1002300010BD30B50B46014600202022012409E004
:1002400021FA02F59D4205D303FA02F5491B04FA8F
:1002500002F52844151EA2F10102F1DC30BD202A6E
:1002600004DB203A00FA02F1002070479140C2F10D
:10027000200320FA03F3194390407047064C074DC2
:1002800006E0E06840F0010394E807009847103466
:10029000AC42F6D3FFF750FFA09A0008C09A0008BE
:1002A00070B58C1810F8015B15F0070301D110F838
:1002B000013B2A1106D110F8012B03E010F8016B65
:1002C00001F8016B5B1EF9D12B0705D40023521EE8
:1002D0000DD401F8013BFAE710F8013BCB1A921C50
:1002E00003E013F8015B01F8015B521EF9D5A1424E
:1002F000D8D3002070BD000010B504462146024846
:1003000002F06BFD10BD00003801002010B502485E
:1003100002F052FD10BD00003801002010B500248D
:1003200000F01CF80446012C01D0012010BD094941
:10033000094802F029FF04464CB94FF40061064811
:1003400003F087F908B10120F0E70020EEE7012073
:10035000ECE70000980100203801002008B50120DA
:1003600000909DF8000008BD2DE9FC4104461546AB
:100370001E46DDE908782A46334621460548CDE980
:10038000007802F0AFFF10B10120BDE8FC81002031
:10039000FBE70000380100202DE9FC41044615462A
:1003A0001E46DDE908782A46334621460548CDE950
:1003B000007803F092F910B10120BDE8FC81002023
:1003C000FBE700003801002010B5024800F026F9D4
:1003D00010BD0000F001002010B50468636044689F
:1003E000102C04D10468A2600468E16003E0046892
:1003F000A1600468E26010BD30B504460D460022DD
:100400002946204600F002F830BD0000F0B5034652
:10041000012500241148407A01281CDC00200F4EE1
:10042000767A0E4FB8553846467A001D40F8263089
:10043000001F467A083082553E46707A461C7E720E
:10044000044604F1300008703A2048702F2088706C
:100450000020C87000252846F0BD0000BC0F002019
:100460000020014908887047000002604FF0C04139
:100470000880704701490880704700000000026052
:1004800000B503460A461846FFF7F0FF1046FFF78F
:10049000F1FF00BD70B50446B3F5804F24D1F026BE
:1004A00096FAA6F6B6FA86F6D1E90005B5402843D5
:1004B0004FF47F4696FAA6F6B6FA86F68D68B540F2
:1004C00028438D6928434FF4702696FAA6F6B6FAAB
:1004D00086F6CD68B540284354F82250054E354085
:1004E000284344F8220003E06FF0704044F82200F3
:1004F000002070BD0000F0CF10B50246086852F829
:10050000200020F001000B6842F8230088680828CA
:1005100022D1486840F040008B681843CB681843EC
:100520000B6918434B6918438B691843CB6918430F
:100530000B6A18434B6A18438B6A1843CB6A1843FB
:100540000B6B18430B6852F82330144C23401843AC
:100550000B6842F823001FE0D1E901031843CB6880
:1005600018430B6918434B6918438B691843CB69CF
:1005700018430B6A18434B6A18438B6A1843CB6ABB
:1005800018430B6B18430B6852F82330034C23407D
:1005900018430B6842F82300002010BD8100F7FFCC
:1005A00030B50346F02595FAA5F5B5FA85F5D1E9FC
:1005B0000004AC4020434FF47F4595FAA5F5B5FA09
:1005C00085F58C68AC4020434FF4702595FAA5F56D
:1005D000B5FA85F5CC68AC4020430C69641E4FF435
:1005E000700595FAA5F5B5FA85F5AC4020434C6940
:1005F000A41E4FF0706595FAA5F5B5FA85F5AC40E7
:1006000020438C692043541C53F8244004F0404498
:100610002043541C43F82400002030BD10B504468C
:10062000F8492068884255D9F7480068F54A783A71
:100630002168914201D108214AE0F24A643A2168D6
:10064000914201D1802143E0EE4A503A2168914223
:1006500001D1C9143CE0EB4A3C3A2168914202D1F5
:100660004FF4004134E0E74A283A2168914202D130
:100670004FF400212CE0E34A143A2168914202D160
:100680004FF4000124E0DF4A2168914201D10905BD
:100690001EE0DD4A08322168914201D1082117E0AD
:1006A000D94A1C322168914201D1802110E0D64AFA
:1006B00030322168914201D1C91409E0D24A443252
:1006C0002168914202D14FF4004101E04FF4002132
:1006D000084055E0CB4880380068CA4A783A21681B
:1006E000914201D108214AE0C64A643A2168914208
:1006F00001D1802143E0C34A503A2168914201D19F
:10070000C9143CE0BF4A3C3A2168914202D14FF4FF
:10071000004134E0BB4A283A2168914202D14FF4AB
:1007200000212CE0B74A143A2168914202D14FF4DB
:10073000000124E0B34A2168914201D109051EE07D
:10074000B14A08322168914201D1082117E0AE4A2E
:100750001C322168914201D1802110E0AA4A303236
:100760002168914201D1C91409E0A74A44322168A5
:10077000914202D14FF4004101E04FF400210840C2
:10078000002873D020680068C0F3C0000028F8D0AB
:100790002068006820F008002168086099492068F6
:1007A000884255D9974978392068884201D1082074
:1007B0004AE0944964392068884201D1802043E0AE
:1007C000904950392068884201D1C0143CE08D49DD
:1007D0003C392068884202D14FF4004034E0894916
:1007E00028392068884202D14FF400202CE0854946
:1007F00014392068884202D14FF4000024E0814976
:100800002068884201D100051EE07F490831206838
:10081000884201D1082017E07B491C3120688842BA
:1008200001D1802010E0784930312068884201D120
:10083000C01409E0744944312068884202D14FF461
:10084000004001E04FF400206F49091D086055E0A9
:100850006C4978392068884201D108204BE0694909
:1008600064392068884202D1802044E057E065491D
:1008700050392068884201D1C0143CE061493C39BC
:100880002068884202D14FF4004034E05D492839A5
:100890002068884202D14FF400202CE059491439D5
:1008A0002068884202D14FF4000024E055492068B6
:1008B000884201D100051EE0534908312068884272
:1008C00001D1082017E050491C312068884201D12D
:1008D000802010E04C4930312068884201D1C0149A
:1008E00009E0494944312068884202D14FF4004070
:1008F00001E04FF40020434980394860606B40F0CC
:1009000001006063042084F8210000BF002084F807
:10091000200000BF206B10B12046216B8847394969
:100920002068884255D938480068364A783A2168A4
:10093000914201D104214AE0324A643A216891424D
:1009400001D1402143E02F4A503A2168914201D120
:1009500009153CE02B4A3C3A2168914202D14FF400
:10096000804134E0274A283A2168914202D14FF46D
:1009700080212CE0234A143A2168914202D14FF49D
:10098000800124E01F4A2168914201D1C9041EE080
:100990001D4A08322168914201D1042117E01A4A08
:1009A0001C322168914201D1402110E0164A3032B8
:1009B0002168914201D1091509E0134A44322168A6
:1009C000914202D14FF4804101E04FF48021084070
:1009D00059E00C48803800680A4A783A2168914208
:1009E00001D104214EE0074A643A2168914201D1C5
:1009F000402147E0034A503A2168914206D1091547
:100A000040E000008000024000040240F74A2168F4
:100A1000914202D14FF4804134E0F44A143221680B
:100A2000914202D14FF480212CE0F04A2832216813
:100A3000914202D14FF4800124E0EC4A3C3221681B
:100A4000914201D1C9041DE0E94A2168914201D1D6
:100A5000042117E0E64A14322168914201D1402175
:100A600010E0E34A28322168914201D1091509E0DA
:100A7000DF4A3C322168914202D14FF4804101E0CB
:100A80004FF48021084080B320680068C0F38000E4
:100A900058B32068006800F0200028B9206800687A
:100AA00020F0040021680860D0493C312068884269
:100AB00055D9CE493C392068884201D104204AE00A
:100AC000CA4928392068884201D1402043E0C749FB
:100AD00014392068884201D100153CE0C3492068E0
:100AE000884203D14FF4804035E094E0BF4914318F
:100AF0002068884202D14FF480202CE0BB49283185
:100B00002068884202D14FF4800024E0B7493C318C
:100B10002068884201D1C0041DE0B54920688842A0
:100B200001D1042017E0B24914312068884201D174
:100B3000402010E0AE4928312068884201D10015DC
:100B400009E0AB493C312068884202D14FF4804033
:100B500001E04FF48020A649091F086053E0A34933
:100B60003C392068884201D1042049E09F49283956
:100B70002068884201D1402042E09C491439206815
:100B8000884201D100153BE098492068884202D193
:100B90004FF4804034E0954914312068884202D1F6
:100BA0004FF480202CE0914928312068884202D1FE
:100BB0004FF4800024E08D493C312068884201D107
:100BC000C0041DE08A492068884201D1042017E052
:100BD000874914312068884201D1402010E08449BF
:100BE00028312068884201D1001509E080493C3154
:100BF0002068884202D14FF4804001E04FF4802009
:100C00007A4944394860112084F82100E06A10B123
:100C10002046E16A884775493C312068884255D9A9
:100C2000734808380068714A3C3A2168914201D102
:100C3000022149E06D4A283A2168914201D12021E0
:100C400042E06A4A143A2168914201D149153BE0D9
:100C5000664A2168914202D14FF4005134E0634A60
:100C600014322168914202D14FF400312CE05F4AE6
:100C700028322168914202D14FF4001124E05B4AEE
:100C80003C322168914201D189041DE0584A216813
:100C9000914201D1022117E0554A14322168914254
:100CA00001D1202110E0524A28322168914201D11D
:100CB000491509E04E4A3C322168914202D14FF475
:100CC000005101E04FF40031084054E047484438F7
:100CD0000068464A3C3A2168914201D1022149E02C
:100CE000424A283A2168914201D1202142E03F4AFC
:100CF000143A2168914201D149153BE03B4A2168F1
:100D0000914202D14FF4005134E0384A1432216844
:100D1000914202D14FF400312CE0344A283221684C
:100D2000914202D14FF4001124E0304A3C32216854
:100D3000914201D189041DE02D4A2168914201D1DF
:100D4000022117E02A4A14322168914201D1202160
:100D500010E0274A28322168914201D1491509E063
:100D6000234A3C322168914202D14FF4005101E004
:100D70004FF40031084080B320680068C0F34000A1
:100D800058B32068006800F0200028B92068006887
:100D900020F002002168086014493C312068884234
:100DA00058D912493C392068884201D102204DE0CF
:100DB0000E4928392068884201D1202046E00B499D
:100DC00014392068884201D140153FE00749206866
:100DD000884203D14FF4005038E09EE003491431BB
:100DE0002068884206D14FF400302FE044000240D2
:100DF0000804024049492068884202D14FF400109B
:100E000024E0464914312068884201D180041DE065
:100E100043492068884201D1022017E0404914313B
:100E20002068884201D1202010E03D492831206807
:100E3000884201D1401509E039493C312068884297
:100E400002D14FF4005001E04FF400303449091F43
:100E5000086053E0314964392068884201D102209A
:100E600049E02E4950392068884201D1202042E0D3
:100E70002A493C392068884201D140153BE0274986
:100E800028392068884202D14FF4005033E02349CA
:100E900014392068884202D14FF400302BE01F49FA
:100EA0002068884202D14FF4001024E01B4914311D
:100EB0002068884201D180041DE0194920688842D9
:100EC00001D1022017E0164914312068884201D16F
:100ED000202010E0124928312068884201D14015B5
:100EE00009E00F493C312068884202D14FF400509C
:100EF00001E04FF4003009496C394860606B606371
:100F0000012084F8210000BF002084F8200000BFE9
:100F1000A06A10B12046A16A884710BD6C0002404B
:100F2000080402400146002209B90120704791F8E7
:100F3000210010B9002081F82000022081F8210052
:100F40000868026843F6F0708243D1E90103184350
:100F5000CB6818430B6918434B6918438B691843D6
:100F6000CB691843024308680260002048630120EF
:100F700081F821000020D9E72DE9F04104460D4613
:100F800016461F4600BF94F82000012802D1022017
:100F9000BDE8F081012084F8200000BF022084F821
:100FA00021002068006820F00100216808603B46AD
:100FB000324629462046FFF70FFA2068006840F0C5
:100FC0000200216808602068006840F00400216881
:100FD00008602068006840F0080021680860206808
:100FE000006840F00100216808600020D0E731B5BA
:100FF000002400F0E7F9044600BF00F0E3F9001B0D
:1010000000998842F9D338BD00B585B0164800680C
:1010100008B105B000BD01201349086000BF1348A6
:10102000406940F48070114948610846406900F405
:101030008070009000BF00BF4FF6807001900220CA
:1010400002900320049001A9094800F015F84CF61D
:10105000B3700190022002900320049001A905487A
:1010600000F00AF800BFD4E704000020001002409E
:1010700000180140001401402DE9F8470246002401
:10108000002000258446002700237BE14FF0010863
:1010900008FA03F4D1F8008008EA0400A0427DD1E8
:1010A000DFF8ECA2D1F80480A8EB0A09D0453AD0C9
:1010B00014DCB8F1030F50D009DCB8F1000F31D0C7
:1010C000B8F1010F1CD0B8F1020F49D120E0B8F1FE
:1010D000110F18D0B8F1120F42D11EE0B9F5881FD8
:1010E00025D006DCB9F5803F20D0B9F5801F37D177
:1010F0001AE0B9F5001F18D0B9F5041F30D117E078
:10110000D1F80CC02DE0D1F80C8008F1040C28E0D7
:10111000D1F80C8008F1080C23E0D1F80C8008F11C
:101120000C0C1EE000BF00BF00BF00BF00BF00BF2F
:10113000D1F80880B8F1000F02D14FF0040C0BE099
:10114000D1F80880B8F1010F03D14FF0080C1461F9
:1011500002E04FF0080C546103E04FF0000C00E097
:1011600000BF00BFFF2801D8904601E002F104084B
:101170004646FF2802D84FEA830803E0A3F1080897
:101180004FEA88084746D6F800804FF00F0909FA61
:1011900007F928EA09080CFA07F900E07AE048EABA
:1011A0000908C6F80080D1F8048008F08058B8F12A
:1011B000805F6FD100BFDFF8DC81D8F8188048F07D
:1011C0000108DFF8D091C9F81880C846D8F818800F
:1011D00008F00108CDF8008000BF00BF4FEAB93821
:1011E0004FEA930958F829504FEA83784FEA187963
:1011F0004FF00F0808FA09F825EA0805DFF898818A
:10120000424502D14FF0000824E0DFF890814245CA
:1012100002D14FF001081DE0DFF88481424502D180
:101220004FF0020816E0DFF87C81424502D14FF012
:1012300003080FE0DFF87081424502D14FF0040847
:1012400008E0DFF86881424502D14FF0050801E06F
:101250004FF006084FEA83794FEA197908FA09F83E
:1012600048EA0505DFF848814FEA930948F8295014
:10127000D1F8048008F48038B8F5803F0BD1DFF84E
:101280003481D8F8008048EA0008DFF82891C9F8CE
:1012900000800AE075E0DFF81C81D8F8008028EAB9
:1012A0000008DFF81091C9F80080D1F8048008F434
:1012B0000038B8F5003F0ED1DFF8F88008F10408D7
:1012C000D8F8008048EA0008DFF8E89009F104093E
:1012D000C9F800800DE0DFF8DC8008F10408D8F8D8
:1012E000008028EA0008DFF8CC9009F10409C9F869
:1012F0000080D1F8048008F48018B8F5801F0ED162
:10130000DFF8B08008F10808D8F8008048EA000843
:10131000DFF8A09009F10809C9F800800DE0DFF8B6
:10132000948008F10808D8F8008028EA0008DFF85F
:10133000849009F10809C9F80080D1F8048008F404
:101340000018B8F5001F0ED1DFF8688008F10C080E
:10135000D8F8008048EA0008DFF8589009F10C0935
:10136000C9F800800DE0DFF84C8008F10C08D8F8CF
:10137000008028EA0008DFF83C9009F10C09C9F860
:1013800000805B1C102BFFF481AEBDE8F8870000E5
:10139000000011100010024000080140000C014044
:1013A000001001400014014000180140001C0140E1
:1013B00008000140000401400AB1016101E00B0492
:1013C000036170470148006870470000000000207A
:1013D00002480068401C0149086070470000002076
:1013E00010B50848006840F0100006490860032066
:1013F00000F082F8052000F007F800F017F8002050
:1014000010BD00000020024070B5044600F0E8FE68
:101410004FF47A71B0FBF1F5284602F089FB002207
:101420002146501E00F029F8002070BD08B500BF0D
:101430000A48806940F001000849886108468069CF
:1014400000F00100009000BF00BF032000F054F83E
:1014500000220521881F00F010F808BD001002408E
:1014600000BF00F01F02012191404209920002F1E9
:10147000E022C2F8001100BF70472DE9F05F8046FE
:101480000D461646002703F09FF8074639462A46C0
:10149000334601F00700C0F1070ABAF1040F02D980
:1014A0004FF0040A01E0C0F1070AD14600F1040A36
:1014B000BAF1070F02D24FF0000A01E0A0F1030ACF
:1014C000D4464FF0010A0AFA09FAAAF1010A0AEA17
:1014D000020A0AFA0CFA4FF0010B0BFA0CFBABF103
:1014E000010B0BEA030B4AEA0B042146404603F0CA
:1014F00073F8BDE8F09F000000BF00F00702064B44
:1015000019684FF6FF031940044B0B4343EA0221CD
:10151000014B196000BF70470CED00E00000FA05B8
:1015200070B505460C46002104F08000802806D1E5
:1015300004F07F0605F1280000EB461103E005F5F5
:10154000027000EB44111AB9002088728B8004E00D
:1015500001208872CB80180C0881002070BD704774
:1015600070B504460D4604F1280101EB45114A69A6
:101570002946D4F81C0405F021F970BD70B5044665
:101580000D4604F5027101EB45114A692946D4F86C
:101590001C0405F080F970BD70B504460D460026A8
:1015A00005F08000802806D105F07F0104F12800B5
:1015B00000EB411605E005F07F0104F5027000EB39
:1015C000411605F07F00307005F08000C009707092
:1015D00000BF94F8E803012801D1022070BD01206A
:1015E00084F8E80300BF3146206805F0B2FF00BF71
:1015F000002084F8E80300BF00BFEFE770B50446A1
:101600000D46002605F08000802806D105F07F01F8
:1016100004F1280000EB411603E004F5027000EB32
:1016200045160020B07005F07F003070C5F3C01083
:10163000707000BF94F8E803012801D1022070BD4A
:10164000012084F8E80300BF3146206806F0AAF8BC
:1016500000BF002084F8E80300BF00BFEFE770B5CB
:1016600004460D4600BF94F8E803012801D102208A
:1016700070BD012084F8E80300BF05F080008028D9
:1016800005D105F07F01206806F0D0FA02E020685D
:1016900006F0C9FA00BF002084F8E80300BF00BFCD
:1016A000E6E7024601F07F0302F5027000EB43100B
:1016B000808B80B270472DE9F04704460D461746EF
:1016C00098464FF00009002605F08000802806D1DA
:1016D00005F07F0104F1280000EB411605E005F05C
:1016E0007F0104F5027000EB411605F07F003070B9
:1016F00005F08000C0097070376186F8038000BF74
:1017000094F8E803012802D10220BDE8F087012007
:1017100084F8E80300BF3146206805F041FD00BFB2
:10172000002084F8E80300BF4846EEE72DE9F041C9
:1017300004460E4617469846002506F07F0104F53C
:10174000027000EB41156F61C5F818800020E86158
:10175000687006F07F00287000BF94F8E803012845
:1017600002D10220BDE8F081012084F8E80300BF27
:1017700006F07F0020B92946206806F0B0F803E0A3
:101780002946206806F0ABF800BF002084F8E80383
:1017900000BF00BFE6E770B504460D46002605F021
:1017A0008000802806D105F07F0104F1280000EBBD
:1017B000411603E004F5027000EB45160120B070FD
:1017C00005F07F003070C5F3C010707000BF94F852
:1017D000E803012801D1022070BD012084F8E8034C
:1017E00000BF3146206806F037F805F07F0020B9C9
:1017F00004F57B71206805F0D2FF00BF002084F85B
:10180000E80300BF00BFE7E72DE9F04104460E46BC
:1018100017469846002506F07F0104F1280000EBEA
:1018200041156F61C5F818800020E86101206870DB
:1018300006F07F00287000BF94F8E803012802D169
:101840000220BDE8F081012084F8E80300BF06F023
:101850007F0020B92946206806F041F803E02946B8
:10186000206806F03CF800BF002084F8E80300BFC1
:1018700000BFE6E770B504460025206806F0EAF9E7
:1018800000F40040B0F5004F02D1204602F0B8FE4F
:10189000206806F0DFF900F48060B0F5806F0ED1AB
:1018A0002068B0F8440020F480602168A1F844006A
:1018B000204600F049F90021204600F068F9206830
:1018C00006F0C8F900F48040B0F5804F07D12068D9
:1018D000B0F8440020F480402168A1F8440020685A
:1018E00006F0B8F900F40050B0F5005F07D12068A9
:1018F000B0F8440020F400502168A1F844002068AA
:1019000006F0A8F900F48050B0F5805F17D1206888
:10191000B0F8400020F004002168A1F840004FF426
:101920003D452068A0F84050204600F022F920688C
:10193000B0F8440020F480502168A1F844002068E9
:1019400006F088F900F40060B0F5006F20D120683F
:10195000B0F8440020F400602168A1F84400206839
:10196000B0F8400040F008002168A1F8400020686D
:10197000B0F8400040F004002168A1F84000206861
:1019800006F068F9C0F3003010B9204600F042F9C3
:10199000206806F05FF900F40070B0F5007F0AD10E
:1019A0002068B0F8440020F400702168A1F84400D9
:1019B000204600F0E5F8206806F04CF900F480704D
:1019C000B0F5807F07D12068B0F8440020F4807023
:1019D0002168A1F8440070BD30B585B004460025EB
:1019E00014B9012005B030BD94F8E90328B90020EE
:1019F00084F8E803204600F07DF8032084F8E9032A
:101A0000206805F0C1FE142204F110016846FEF7BB
:101A1000ECFB94E80F0005F098FD0021206806F02B
:101A200032F9002525E0012104F1280000EB4510E2
:101A3000417004F1280000EB4510057004F1280006
:101A400000EB45108581002104F1280000EB4510D2
:101A5000C17004F1280000EB4510016104F1280079
:101A600000EB4510416104F1280000EB4510816155
:101A70006D1C0F2DD7D3002524E0002104F5027042
:101A800000EB4510417004F5027000EB4510057045
:101A900004F1280000EB4510858104F5027000EB8D
:101AA0004510C17004F5027000EB4510016104F5AA
:101AB000027000EB4510416104F5027000EB451027
:101AC00081616D1C0F2DD8D3142204F110016846DA
:101AD000FEF78BFB94E80F0005F04BFE002084F826
:101AE0002400012084F8E903206805F03FFE00206F
:101AF00078E7000038B504461149206888421DD1B6
:101B000000BF1048C06940F400000E49C861084693
:101B1000C06900F40000009000BF00BF0022042153
:101B20001320FFF7AAFC1320FFF79AFC00220321E1
:101B30001420FFF7A2FC1420FFF792FC38BD000030
:101B4000005C00400010024070B504460125A0680A
:101B5000022801D100BF01E0012500BF00BF2946D6
:101B6000D4F81C0404F098FFD4F81C0404F05AFFC5
:101B700070BD10B50446D4F81C0404F075FF10BD08
:101B800010B50446D4F81C0404F075FF10BD70B500
:101B900004460D4600BF94F8E803012801D1022055
:101BA00070BD012084F8E80300BF84F82450294662
:101BB000206806F06BF800BF002084F8E80300BF3F
:101BC00000BFEDE710B5044604F57B71D4F81C04A2
:101BD00004F070FF10BD10B5044600BF94F8E80390
:101BE000012801D1022010BD012084F8E80300BFC4
:101BF00001212046FFF7B3FC206805F0B4FD206802
:101C000006F006F800BF002084F8E80300BF00BF1C
:101C1000E9E7000010B50446D4F81C0404F093FF73
:101C2000A06928B10348006840F006000149086037
:101C300010BD000010ED00E0F8B5044600250026B8
:101C4000207800F00100002874D000BF5448C0691B
:101C500040F080505249C8610846C06900F0805089
:101C6000009000BF00BF4F48006840F480704D49AD
:101C70000860FFF7A7FB054606E0FFF7A3FB401B44
:101C8000642801D90320F8BD4648006800F480703C
:101C90000028F2D04248006A00F44070A18801F4A4
:101CA0004071884260D03E48006A20F440760121AD
:101CB000080490FAA0F0B0FA80F03B4A02EB8000F2
:101CC000C0F800140020090491FAA1F1B1FA81F1E1
:101CD00002EB8101C1F800043148066206F00200FF
:101CE00048B3FFF76FFB054608E0FFF76BFB401BAF
:101CF00041F28831884201D90320C4E74020022103
:101D000091FAA1F1B1FA81F108430121B1EB601F11
:101D100002D12348006811E04020022191FAA1F18C
:101D2000B1FA81F108430221B1EB601F04D11C48D4
:101D3000006A03E018E00FE01948406A40210222DF
:101D400092FAA2F2B2FA82F2114301F01F020121CB
:101D5000914008400028C8D01148006A20F4407023
:101D6000616808430E490862207800F002000228EA
:101D700007D10B48406820F44040A1680843084957
:101D80004860207800F01000102807D1044840680F
:101D900020F480006169084301494860002072E72F
:101DA00000100240007000400000424270B504463E
:101DB0000D460026F748006800F00700A84270D2E0
:101DC000F448006820F007002843F24908600846FC
:101DD000006800F00700A84201D0012070BD207803
:101DE00000F00200022807D1EB48406820F0F00024
:101DF000A1680843E8494860207800F00100002805
:101E00006FD0606801282DD12020010391FAA1F143
:101E1000B1FA81F108430121B1EB601F02D1DE4824
:101E200000680FE02020010391FAA1F1B1FA81F1DD
:101E300008430221B1EB601F02D1D748006A01E0DC
:101E4000D548406A20210A0392FAA2F2B2FA82F23D
:101E5000114301F01F02012191400840002861D187
:101E60000120BBE7606802282DD12020010591FAEE
:101E7000A1F1B1FA81F108430121B1EB601F02D158
:101E8000C548006810E02020010591FAA1F1B1FADF
:101E900081F108430221B1EB601F03D1BE48006A03
:101EA00002E083E0BC48406A20210A0592FAA2F2CF
:101EB000B2FA82F2114301F01F0201219140084061
:101EC00078BB01208AE72020022191FAA1F1B1FA22
:101ED00081F108430121B1EB601F03D1AE480068D6
:101EE00010E05BE12020022191FAA1F1B1FA81F129
:101EF00008430221B1EB601F02D1A748006A01E04C
:101F0000A548406A2021022292FAA2F2B2FA82F295
:101F1000114301F01F0201219140084008B901203E
:101F20005CE7FFE79C48406820F0030061680843D5
:101F300099494860FFF746FA06466068012810D1C3
:101F400008E0FFF73FFA801B41F28831884201D94F
:101F5000032043E79048406800F00C000428F0D1CB
:101F60001CE16068022810D108E0FFF72BFA801B03
:101F700041F28831884201D903202FE78648406822
:101F800000F00C000828F0D108E108E0FFF71AFA89
:101F9000801B41F28831884201D903201EE77E4828
:101FA000406800F00C000028F0D1F7E0207800F045
:101FB0000200022807D17848406820F0F000A168AC
:101FC000084375494860207800F0010000286ED071
:101FD000606801282CD12020010391FAA1F1B1FA07
:101FE00081F108430121B1EB601F02D16A4800680A
:101FF0000FE02020010391FAA1F1B1FA81F1084329
:102000000221B1EB601F02D16348006A01E062481F
:10201000406A20210A0392FAA2F2B2FA82F2114334
:1020200001F01F0201219140084088BB0120D5E644
:10203000606802282DD12020010591FAA1F1B1FAA2
:1020400081F108430121B1EB601F02D152480068C1
:102050000FE02020010591FAA1F1B1FA81F10843C6
:102060000221B1EB601F02D14B48006A01E04A48EF
:10207000406A20210A0592FAA2F2B2FA82F21143D2
:1020800001F01F0201219140084008B90120A5E696
:102090002DE02020022191FAA1F1B1FA81F108434B
:1020A0000121B1EB601F03D13B48006810E061E003
:1020B0002020022191FAA1F1B1FA81F10843022115
:1020C000B1EB601F02D13448006A01E03248406A37
:1020D0002021022292FAA2F2B2FA82F2114301F016
:1020E0001F0201219140084008B9012076E62A48E4
:1020F000406820F003006168084327494860FFF703
:1021000061F906466068012810D108E0FFF75AF926
:10211000801B41F28831884201D903205EE61E48C7
:10212000406800F00C000428F0D123E06068022829
:1021300010D108E0FFF746F9801B41F28831884250
:1021400001D903204AE61448406800F00C00082832
:10215000F0D10FE008E0FFF735F9801B41F288313C
:10216000884201D9032039E60B48406800F00C0092
:102170000028F0D10748006820F0070028430549EF
:1021800008600846006800F00700A84206D0012059
:1021900024E600000020024000100240207800F0F9
:1021A0000400042807D10D48406820F4E060E1688D
:1021B00008430A494860207800F00800082808D140
:1021C0000648406820F46050216940EAC100034994
:1021D00048600520FFF718F90020FFE500100240D5
:1021E00000B500F045F80949496801F0F001F02216
:1021F00092FAA2F2B2FA82F2D140054A515CC8408A
:10220000044908600846006800BD00000010024054
:10221000B89700088000002000B5FFF7E1FF0749EC
:10222000496801F4E0614FF4E06292FAA2F2B2FA76
:1022300082F2D140024A515CC84000BD0010024009
:10224000B897000800B5FFF7CBFF0749496801F4CC
:1022500060514FF4605292FAA2F2B2FA82F2D14087
:10226000024A515CC84000BD00100240B897000807
:10227000F0B585B00FF28C0C9CE8E01001A8A0E846
:10228000E01024A52D6800950021002400220023E1
:102290000020214D696801F00C056DB3042D02D0BA
:1022A000082D28D101E01D4828E001F470154FF4F5
:1022B000701696FAA6F6B6FA86F6F54001AE735D8C
:1022C00001F4803595B1144D6D6805F400354FF477
:1022D000003696FAA6F6B6FA86F6F5401DF80540E1
:1022E0000E4DB5FBF4F505FB03F202E00C4D03FBCC
:1022F00005F2104602E000BF084800BF00BF05B06D
:10230000F0BD000002030405060708090A0B0C0DC6
:102310000E0F1010010200000010024000127A009F
:1023200000093D0038B504460025207800F0010082
:10233000002877D0FC48406800F00C0004280CD03E
:10234000F948406800F00C00082837D1F64840688A
:1023500000F48030B0F5803F30D12020010391FAA5
:10236000A1F1B1FA81F108430121B1EB601F02D163
:10237000ED4800680FE02020010391FAA1F1B1FAC5
:1023800081F108430221B1EB601F02D1E648006AE7
:1023900001E0E548406A20210A0392FAA2F2B2FA6B
:1023A00082F2114301F01F020121914008400028F0
:1023B000BFD06068002835D1012038BD00BFDA48A1
:1023C000006820F48030D84908600846006820F48E
:1023D0008020086000BFFEF7F5FF054606E0FEF727
:1023E000F1FF401B642801D90320E6E72020010308
:1023F00091FAA1F1B1FA81F108430121B1EB601F1B
:1024000002D1C948006810E02020010391FAA1F12F
:10241000B1FA81F108430221B1EB601F03D1C24838
:10242000006A02E0B7E0C048406A20210A0392FA3D
:10243000A2F2B2FA82F2114301F01F02012191408F
:1024400008400028CBD100BF6068B0F5803F06D1BE
:10245000B548006840F48030B349086028E06068FF
:1024600058B9B148006820F48030AF490860084688
:10247000006820F4802008601AE06068B0F5A02FA2
:102480000BD1A948006840F48020A749086008469D
:10249000006840F4803008600AE0A348006820F437
:1024A0008030A14908600846006820F48020086058
:1024B00000BF6068B8B3FEF785FF054606E0FEF78B
:1024C00081FF401B642801D9032076E72020010307
:1024D00091FAA1F1B1FA81F108430121B1EB601F3A
:1024E00002D1914800680FE02020010391FAA1F188
:1024F000B1FA81F108430221B1EB601F02D18A4891
:10250000006A01E08848406A20210A0392FAA2F298
:10251000B2FA82F2114301F01F02012191400840FA
:102520000028CCD037E0FFE7FEF74CFF054606E079
:10253000FEF748FF401B642801D903203DE7202017
:10254000010391FAA1F1B1FA81F108430121B1EB44
:10255000601F02D1744800680FE02020010391FA47
:10256000A1F1B1FA81F108430221B1EB601F02D160
:102570006D48006A01E06C48406A20210A0392FA23
:10258000A2F2B2FA82F2114301F01F02012191403E
:1025900008400028CCD1207800F0020002284ED15B
:1025A0006148406800F00C0050B15F48406800F09E
:1025B0000C00082844D15C48406800F4803078BBA7
:1025C0002020022191FAA1F1B1FA81F10843012101
:1025D000B1EB601F02D1544800680FE020200221B7
:1025E00091FAA1F1B1FA81F108430221B1EB601F28
:1025F00002D14D48006A01E04B48406A2021022286
:1026000092FAA2F2B2FA82F2114301F01F02012102
:102610009140084028B12069012802D00120CCE671
:102620000EE04148006820F0F800F82292FAA2F289
:10263000B2FA82F26169914008433B49086095E033
:10264000206970B3012090FAA0F1B1FA81F1374A04
:1026500042F82100FEF7B6FE054606E0FEF7B2FEA0
:10266000401B022801D90320A7E62020022191FA6D
:10267000A1F1B1FA81F108430121B1EB601F02D150
:102680002948006810E02020022191FAA1F1B1FA56
:1026900081F108430221B1EB601F03D12248006A97
:1026A00002E01EE02048406A2021022292FAA2F2B3
:1026B000B2FA82F2114301F01F0201219140084059
:1026C0000028CBD01848006820F0F800F82292FAD1
:1026D000A2F2B2FA82F2616991400843124908609D
:1026E00044E00020012191FAA1F1B1FA81F10F4AF1
:1026F00042F82100FEF766FE054606E0FEF762FEA0
:10270000401B022801D9032057E62020022191FA1C
:10271000A1F1B1FA81F108430121B1EB601F07D1AA
:102720000148006814E0000000100240000042422E
:102730002020022191FAA1F1B1FA81F1084302218E
:10274000B1EB601F02D1FC48006A01E0FA48406A20
:102750002021022292FAA2F2B2FA82F2114301F08F
:102760001F020121914008400028C7D1207800F0C5
:102770000800082846D1A06980B3012090FAA0F192
:10278000B1FA81F1ED4A02EB8101C1F88004FEF754
:1027900019FE054606E0FEF715FE401B022801D98A
:1027A00003200AE66020022191FAA1F1B1FA81F139
:1027B00008430121B1EB601F02D1DF48006810E03F
:1027C0006020022191FAA1F1B1FA81F108430221BE
:1027D000B1EB601F03D1D848006A02E013E0D6488D
:1027E000406A6021022292FAA2F2B2FA82F2114306
:1027F00001F01F020121914008400028CBD00120A8
:10280000FEF7F5FB41E00020012191FAA1F1B1FAB8
:1028100081F1CA4A02EB8101C1F88004FEF7D2FDC2
:10282000054606E0FEF7CEFD401B022801D9032035
:10283000C3E56020022191FAA1F1B1FA81F10843C8
:102840000121B1EB601F02D1BB4800680FE060209E
:10285000022191FAA1F1B1FA81F108430221B1EB11
:10286000601F02D1B448006A01E0B348406A6021A9
:10287000022292FAA2F2B2FA82F2114301F01F028E
:102880000121914008400028CCD1207800F00400BC
:10289000042875D100BFA848C06940F08050A649FF
:1028A000C8610846C06900F08050009000BF00BFBA
:1028B000A348006840F48070A1490860FEF782FDDB
:1028C000054606E0FEF77EFD401B642801D9032083
:1028D00073E59B48006800F480700028F2D000BFC8
:1028E0009548006A20F00100934908620846006A92
:1028F00020F00400086200BFFEF764FD054608E012
:10290000FEF760FD401B41F28831884201D9032067
:1029100053E54020022191FAA1F1B1FA81F1084377
:102920000121B1EB601F02D1834800680FE0402015
:10293000022191FAA1F1B1FA81F108430221B1EB30
:10294000601F02D17C48006A01E07B48406A402158
:10295000022292FAA2F2B2FA82F2114301F01F02AD
:102960000121914008400028CAD100BFE068012839
:1029700007D17148006A40F001006F49086228E001
:102980009EE0E06858B96C48006A20F001006A498E
:1029900008620846006A20F00400086219E0E06856
:1029A00005280BD16448006A40F0040062490862BF
:1029B0000846006A40F0010008620AE05E48006ACA
:1029C00020F001005C4908620846006A20F004001B
:1029D000086200BFE068C8B3FEF7F4FC054608E0F3
:1029E000FEF7F0FC401B41F28831884201D90320F8
:1029F000E3E44020022191FAA1F1B1FA81F1084308
:102A00000121B1EB601F02D14B4800680FE040206C
:102A1000022191FAA1F1B1FA81F108430221B1EB4F
:102A2000601F02D14448006A01E04348406A4021E7
:102A3000022292FAA2F2B2FA82F2114301F01F02CC
:102A40000121914008400028CAD039E0FFE7FEF795
:102A5000B9FC054608E0FEF7B5FC401B41F28831A1
:102A6000884201D90320A8E44020022191FAA1F173
:102A7000B1FA81F108430121B1EB601F02D12E4868
:102A800000680FE04020022191FAA1F1B1FA81F132
:102A900008430221B1EB601F02D12748006A01E020
:102AA0002548406A4021022292FAA2F2B2FA82F24A
:102AB000114301F01F020121914008400028CAD1B2
:102AC000E069002871D01C48406800F00C0008281C
:102AD0006CD0E06902286AD10021C00590FAA0F00C
:102AE000B0FA80F0154A42F82010FEF76BFC05465C
:102AF00006E0FEF767FC401B022801D903205CE4D6
:102B00002020010591FAA1F1B1FA81F108430121D8
:102B1000B1EB601F02D10848006815E020200105D4
:102B200091FAA1F1B1FA81F108430221B1EB601FE2
:102B300008D10148006A07E000100240000042424C
:102B4000007000405748406A20210A0592FAA2F21C
:102B5000B2FA82F2114301F01F02012191400840B4
:102B60000028C6D1206AB0F5803F07D14D484068A3
:102B700020F40030A16808434A494860D4E90801BC
:102B800008434849496821F474110843454948609D
:102B90000120010691FAA1F1B1FA81F1424A42F80D
:102BA0002100FEF70FFC054609E079E076E033E00E
:102BB000FEF708FC401B022801D9032015E4202061
:102BC000010591FAA1F1B1FA81F108430121B1EBBC
:102BD000601F02D1334800680FE02020010591FA00
:102BE000A1F1B1FA81F108430221B1EB601F02D1DA
:102BF0002C48006A01E02B48406A20210A0592FA1D
:102C0000A2F2B2FA82F2114301F01F0201219140B7
:102C100008400028CCD043E000214FF0807090FAAB
:102C2000A0F0B0FA80F0204A42F82010FEF7CAFB6C
:102C3000054606E0FEF7C6FB401B022801D903202B
:102C400043E42020010591FAA1F1B1FA81F1084392
:102C50000121B1EB601F02D1124800680FE0202073
:102C6000010591FAA1F1B1FA81F108430221B1EB1A
:102C7000601F02D10B48006A01E00A48406A202127
:102C80000A0592FAA2F2B2FA82F2114301F01F028F
:102C90000121914008400028CCD101E0012014E43A
:102CA000002012E400100240000042422DE9F047EB
:102CB00004460E4600273546D4F85080D4F8489094
:102CC000E06C00F0FF0A07E0D4F85080D4F8489098
:102CD000E06C00F0FF0A6D1E08EA090020B9BAF1A5
:102CE000000F01D1002DEFD1354600E06D1E2068A8
:102CF000406B00F4005008B1002DF7D1606D012841
:102D000003D1204600F086FC07460DB907B9042719
:102D100040F2FF5021688863E06C18B1E06CC0B2EB
:102D2000BDE8F0873846FBE72DE9F04704460E463C
:102D300000273546D4F85080D4F84890E06C00F075
:102D4000FF0A07E0D4F85080D4F84890E06C00F017
:102D5000FF0A6D1E08EA090020B9BAF1000F01D17F
:102D6000002DEFD1354600E06D1E2068406B00F469
:102D7000805008B1002DF7D1606D032803D12046A3
:102D800000F048FC07460DB907B9042740F2FF5090
:102D900021688863E06C18B1E06CC0B2BDE8F087D0
:102DA00000BF204600F008F80028FAD13846F5E7C1
:102DB000704770477047704770B505460424284631
:102DC00002F016FD0446042C01D1002070BDFF2C3A
:102DD00001D10220FAE70120F8E72DE9F04103468E
:102DE0000020002293F8204081F856409C8CA1F8E6
:102DF00054409C6A220E94090C70C2F383044C70F8
:102E000002F003048C709C6AC4F30742CA701C8DE4
:102E1000C4F307220A7193F828204A71DC6A220E53
:102E20004FF6FF7404EA0214CC80DC6AC4F3074254
:102E3000CC8844EA1214CC8002F00F040C729C8DF2
:102E4000C4F30722D4094C72C2F380148C72C2F30B
:102E50004014CC72C2F300140C7300244C731C6A2F
:102E600014B11C6A012C4DD19407240D0C612C2443
:102E7000E25C0C6944EA82040C611C6B220E0C6952
:102E800044EA92140C61C2F3C2040C7502F0070408
:102E90004C751C6BC4F3074254098C75C2F3820451
:102EA000CC759407640F0C761C8EC4F307220C7E3D
:102EB00044EAD2140C760C69641C0025C1E9124561
:102EC0000C7ED1E91267A41C012505FA04F44FEA2F
:102ED000E47CA6FB045807FB048406FB0C44C1E910
:102EE00012540D7A0124AC400C650026D1E912572A
:102EF0000C6DA5FB04C807FB048405FB0644C1E96F
:102F000012C435E01C6A022C31D12C24E25C9406F8
:102F1000A40A0C611C6B220E0C6944EA02240C61A9
:102F20001C6BC4F307420C6914430C611C8EC4F380
:102F300007220C690025641C45EB050C4FF4007753
:102F40000026A4FB07580CFB078704FB067C4FF404
:102F500080672C466546B446A4FB076805FB0785D9
:102F600004FB0C54C1E912647C100C6500E02920BC
:102F7000C2F3801401F8194F9406640E4C7030248B
:102F8000E25C4C7844EAD2144C7002F07F048C70FE
:102F90005C6B220ED409CC70C2F341140C71C2F3E5
:102FA00082044C719407240F8C715C6BC4F307424C
:102FB0008C7944EA92148C71C2F34014CC710024D1
:102FC0000C7202F001044C729C8EC4F30722D409E7
:102FD0008C72C2F38014CC72C2F340140C73C2F32F
:102FE00000144C73C2F381048C7302F00304CC739D
:102FF0003424E25C54080C7401244C749C6B220E43
:10300000CA7419399C6BC4F307424FF6FF7404EA83
:103010000225CD851C8FC4F30722CC8D1443CC85AB
:1030200093F8382015060D63DC6B220E0C6B44EA16
:1030300002450D63DC6BC4F307420C6B44EA0225C6
:103040000D639C8FC4F307220C6B14430C633C2468
:10305000E25C342462541C6C220E352462541C6CD5
:10306000C4F3074215068D634024E45AC4F30722D3
:103070008C6B44EA02458D634024E25C8C6B44EA2D
:1030800002258D635C6C220E8C6B14438C635C6C2C
:10309000C4F307423C24645C44EA12143C256C549B
:1030A0001407250DCD874424E45AC4F30722CC8F9E
:1030B0001443CC874424E25C550840246554012520
:1030C00041246554BDE8F08110B504462068406B8A
:1030D00000F4807058B14FF480702168886301203B
:1030E000A0640020E064204600F0DAFC44E02068A0
:1030F000406B00F0020038B1022021688863E06470
:10310000204600F0CEFC37E02068406B00F008005D
:1031100040B10820216888630420E064204600F064
:10312000C0FC29E02068406B00F0200040B1202066
:10313000216888630620E064204600F0B2FC1BE0B2
:103140002068406B00F0100040B1102021688863B7
:103150000520E064204600F0A4FC0DE02068406BF0
:1031600000F4007040B14FF40070216888630720BC
:10317000E064204600F095FC2068C06B4CF23A31C8
:1031800088432168C86310BD30B58BB004460D4636
:1031900000200A90182104A8FDF740F8204600F00E
:1031A00045F8002004900590069007900890C320F1
:1031B000099007A807C88DE80700206804A90EC970
:1031C00002F050F8204602F09BFC0A909DF828007F
:1031D00018B19DF828000BB030BD204602F017FB57
:1031E0000A909DF8280010B19DF82800F3E72946C1
:1031F0002046FFF7F2FD0A909DF8280040B9B5F887
:10320000540001040A460023204602F033FD0A90D0
:10321000D4E90412A069CDE90012029094E80F00ED
:1032200002F020F89DF82800D5E7000010B586B020
:10323000044626492068884246D100BF2448406998
:1032400040F48060224948610846406900F480608B
:10325000019000BF00BF4FF4F8500290022003908D
:103260000320059002A91B48FDF706FF04200290E9
:10327000022003900320059002A91748FDF7FCFEE9
:1032800016481749086010204860002114488160E2
:103290008021C16089000161490041610021816193
:1032A000C161FDF73FFE00BF0D48A065446200BF4D
:1032B00000BFE065446200BF002211463120FEF7E6
:1032C000DCF83120FEF7CCF806B010BD00800140DC
:1032D000001002400010014000140140440402406C
:1032E000F00100202DE9FF5F8CB004461746984698
:1032F000DDE91AB9142107A8FCF790FF182101A8ED
:10330000FCF78CFF4FF0000A00250D9E002021687D
:10331000C862206A022809D14FF4007B0202002310
:1033200038464146FCF720FF07468846CDF81CB0DA
:10333000102008904020099000200A904FF48060EF
:103340000B9007A9206801F0AEFF1021204601F084
:10335000DDFF8246BAF1000F03D0504610B0BDE841
:10336000F09F4FF0FF30019009FB0BF0029090208E
:10337000039002200490002005900120069001A9EE
:10338000206801F03FFFB9F1010F02D91220089027
:1033900001E011200890079707A9206801F083FF3A
:1033A000B9F1010F22D91221204601F0AFFF824668
:1033B000BAF1000F01D05046D0E70FE02068406B13
:1033C00000F4004050B1002505E0206801F067FFDF
:1033D00046F825006D1C082DF7D320362068406B79
:1033E00040F22A3108400028E8D021E0112120468F
:1033F00001F08CFF8246BAF1000F01D05046ADE7D4
:103400000FE02068406B00F4004050B1002505E05B
:10341000206801F044FF46F825006D1C082DF7D305
:1034200020362068406B40F22A6108400028E8D02E
:103430002068406B00F4807070B1B9F1010F0BD9B6
:10344000206A28B1206A012802D0206A022803D10C
:10345000204600F0DFF882462068406B00F008004C
:1034600030B10820216888634FF0040A504675E7A0
:103470002068406B00F0020028B1022021688863B8
:10348000824650466AE72068406B00F0200030B169
:103490002020216888634FF0060A50465EE72068C6
:1034A000406B00F4007038B14FF4007021688863FD
:1034B0004FF0070A504651E74FF0FF3505E020680E
:1034C00001F0EDFE3060361D6D1E2068406B00F48B
:1034D000001008B1002DF2D140F2FF50216888633E
:1034E00050463BE72DE9F0478CB004468A46164625
:1034F0001F46DDE91485142107A8FCF78FFE18216B
:1035000001A8FCF78BFE4FF0000900202168C8627B
:10351000A0642065E064012D02D90120606501E00E
:10352000002060652068C06B40F22A3108432168A2
:10353000C8632068C06A40F008002168C862334848
:10354000A16D88623248A16D086308FB05F29308FB
:10355000226802F180015246A06DFDF70DFD206A40
:10356000022809D14FF40078020200233046394680
:10357000FCF7FAFD06460F46CDF81C801020089097
:103580004020099000200A904FF480600B9007A91A
:10359000206801F088FE1021204601F0B7FE814628
:1035A000B9F1000F03D048460CB0BDE8F0874FF0EA
:1035B000FF30019008FB05F002909020039002205C
:1035C0000490002005900120069001A9206801F0D8
:1035D00019FE012D02D91220089001E01120089057
:1035E000079607A9206801F05EFE012D05D912217A
:1035F000204601F08BFE814604E01121204601F0B7
:1036000085FE8146C4F84C904846CDE71F56000819
:103610003956000830B585B0044614216846FCF7D9
:10362000FDFD0025002000900C200190402002901C
:10363000002003904FF4806004906946206801F0F8
:1036400032FE0C21204601F061FE0546284605B0F9
:1036500030BD70B58AB004460D460026182104A876
:10366000FCF7DCFD206A032801D1272632E0206A1E
:1036700028B1206A012802D0206A022829D1B5F594
:10368000805F01D127260EE0B5F5006F04D12046FA
:1036900002F08EFB064606E025B9204602F037FB15
:1036A000064600E02626AEB960680490A068059042
:1036B000E0680690079560690890A069099007A8DE
:1036C00007C88DE80700206804A90EC901F0CAFDEB
:1036D00000E0292630460AB070BD2DE9FF5F8EB0AC
:1036E000044617469846DDF874B0142109A8FCF783
:1036F00095FD182103A8FCF791FD0020029081465A
:10370000002500260190DDF83CA000902168C862E9
:10371000206A022809D100021C9002460023384684
:103720004146FCF721FD074688461C980990102069
:103730000A9040200B9000200C904FF480600D9078
:1037400009A9206801F0AFFD1021204601F0DEFD3F
:103750000290029818B1029812B0BDE8F09FBBF138
:10376000010F02D919200A9001E018200A90099748
:1037700009A9206801F097FDBBF1010F05D91921B6
:10378000204601F0C3FD029004E01821204601F01C
:10379000BDFD0290029808B10298DDE71C980BFB72
:1037A00000F94FF0FF3003901C980BFB00F00490E1
:1037B000902005900020069007900120089003A912
:1037C000206801F01FFDBBF1010F3AD931E02068FC
:1037D000406B00F4804060B3A9EB050020281BD2A9
:1037E000A9EB050000F0030018B9A9EB050080085B
:1037F00003E0A9EB05008008401C0190002607E0CB
:103800005146206801F060FD0AF1040A2D1D761C66
:10381000019886420DD2F3E7002605E00AEB860107
:10382000206801F051FD761C082EF7D30AF1200A1A
:1038300020352068406B40F21A3108400028C6D07D
:1038400039E031E02068406B00F4804060B3A9EBC0
:10385000050020281BD2A9EB050000F0030018B9D1
:10386000A9EB0500800803E0A9EB05008008401CD7
:103870000190002607E05146206801F025FD0AF17D
:10388000040A2D1D761C019886420DD2F3E700260E
:1038900005E00AEB8601206801F016FD761C082E73
:1038A000F7D30AF1200A20352068406B40F21A61F4
:1038B00008400028C6D02068406B00F4807070B1CA
:1038C000BBF1010F0BD9206A28B1206A012802D070
:1038D000206A022803D12046FFF79CFE0290206850
:1038E000406B00F0080030B1082021688863042094
:1038F0000290029830E72068406B00F0020028B187
:103900000220216888630290029825E72068406BB6
:1039100000F0100030B1102021688863052002906B
:10392000029819E72068406B00F4007038B14FF43A
:103930000070216888630720029002980CE740F22B
:10394000FF50216888636946204601F0E9FF029034
:1039500004E06946204601F0E3FF0290029838B97E
:103960009DF800000728F4D09DF800000628F0D04C
:103970000298F1E62DE9F0478CB004468A461746D6
:103980009846DDE91495142107A8FCF747FC182197
:1039900001A8FCF743FC002600202168C862A0644F
:1039A0002065E064012D02D90320606501E002205A
:1039B00060652068C06B40F21A3108432168C86313
:1039C0003548E16D88623548E16D086309FB05F112
:1039D0008B08216801F180025146E06DFDF7CCFAB9
:1039E0002068C06A40F008002168C862206A022886
:1039F00009D14FF400790202002338464146FCF712
:103A0000B3FB07468846CDF81C9010200890402054
:103A1000099000200A904FF480600B9007A920685D
:103A200001F041FC1021204601F070FC06461EB159
:103A300030460CB0BDE8F087012D02D81820089060
:103A400001E019200890079707A9206801F02BFCD6
:103A5000012D05D91921204601F058FC064604E045
:103A60001821204601F052FC06460EB13046E0E730
:103A70004FF0FF30019009FB05F002909020039079
:103A80000020049005900120069001A9206801F013
:103A9000B9FBE6643046CCE747560008615600089B
:103AA0007047704770B504460E4615460CB90120A4
:103AB00070BD94F83D0028B9002084F83C002046F1
:103AC00000F01CF804F108012068FCF715FD3146F0
:103AD000A2682068FCF764FD2946236BD4E9010243
:103AE000FCF7D8FCA168206850F8210040F00100E4
:103AF000A268216841F822000020D9E710B50446E9
:103B0000FDF782FA10BD042808D14FF0E0210969C1
:103B100041F004014FF0E022116107E04FF0E02195
:103B2000096921F004014FF0E022116170477047EC
:103B300070B504462546681EB0F1807F01D3012090
:103B40000FE0681E4FF0E02148610F214FF0FF3079
:103B500000F042FD00204FF0E0218861072008615D
:103B6000002070BD10B5FFF7E2FF10BD10B5044690
:103B70000CB9012010BDA06900B100E000BF94F8AD
:103B8000390028B9002084F83800204600F026F8D3
:103B9000022084F839002068C06820F400502168B1
:103BA000C860204602F016FB2068006920F49040AF
:103BB000216808612068406920F02A002168486176
:103BC0002068C06840F400502168C8600020E063AD
:103BD000012084F839000020CCE7000010B586B041
:103BE000044614492068884221D100BF12488069E8
:103BF00040F48040104988610846806900F48040A4
:103C0000019000BF00BF48150290022003900320DE
:103C1000059002A90948FDF72FFA4FF48060029041
:103C200000200390049002A90448FDF725FA06B08D
:103C300010BD0000003801400010024000080140A3
:103C400010B5012220210248FDF7B6FB10BD00008F
:103C5000000C014030B5054600240021084600F064
:103C600069F92220FCF702FC00BF03E02846FCF7BC
:103C700001FC641CB4F5963FF8D32220FCF7F6FB58
:103C800030BD2DE9FE4F82468B4691469846C3458E
:103C900011D1CA4501DC544601E04C46D14606E04C
:103CA000594620460C9A00F054F9601C84B24C45E9
:103CB000F6DDBDE8FE8FC34503DDABEB080087B240
:103CC00002E0A8EB0B0087B2CA4510D1C34501DC66
:103CD0005D4601E04546D84606E0294650460C9A26
:103CE00000F037F9681C85B24545F6DDE1E7CA45C5
:103CF00007DDAAEB090086B24C46D1464546D846B8
:103D000004E0A9EB0A0086B254465D46BE4211D1DA
:103D10000DE0601C84B2454502DD681E85B201E0FD
:103D2000681C85B2294620460C9A00F012F94C45D1
:103D3000EFDDA2E0294620460C9A00F00AF945453D
:103D40004DDABE4225DDC6EB470000B20290780096
:103D500000B20190B81B400000B2009016E0601C59
:103D600084B20298002805DADDE90110084400B2A7
:103D7000029006E0681C85B200990298084400B2DF
:103D80000290294620460C9A00F0E3F84C45E6DB09
:103D900073E0C7EB460000B20290700000B20190E1
:103DA000F01B400000B2009016E0681C85B202983B
:103DB000002805DADDE90110084400B2029006E0AF
:103DC000601C84B200990298084400B2029029460F
:103DD00020460C9A00F0BDF84545E6DB4DE0BE42BA
:103DE00025DDC6EB470000B20290780000B20190DA
:103DF000B81B400000B2009016E0601C84B202982C
:103E0000002805DADDE90110084400B2029006E05E
:103E1000681E85B200990298084400B202902946B3
:103E200020460C9A00F095F84C45E6DB25E0C7EB00
:103E3000460000B20290700000B20190F01B4000FA
:103E400000B2009016E0681E85B20298002805DADC
:103E5000DDE90110084400B2029006E0601C84B263
:103E600000990298084400B20290294620460C9A14
:103E700000F06FF8A845E6DB00BF00BF19E72DE9A9
:103E8000F8470546884616469946DDE9097ABAF1AB
:103E9000000F13D0B54202DD34462E4600E02C461A
:103EA00008E04B462246414620460097FFF7E9FED0
:103EB000601C84B2B442F4DDBDE8F8874B462A4664
:103EC000414628460097FFF7DCFE4B4632464946FE
:103ED00028460097FFF7D5FE43463246494630460E
:103EE0000097FFF7CEFE43462A46414630460097EC
:103EF000FFF7C7FE00BFDFE7F0B504460D461646E4
:103F00001F464420FCF7B2FA44EA062188B2FCF7C7
:103F1000B1FA4520FCF7AAFA2846FCF7ABFA46208E
:103F2000FCF7A4FA3846FCF7A5FA2946204600F02B
:103F300001F8F0BD30B504460D4621464E20FCF791
:103F40009FFA29464F20FCF79BFA2220FCF78EFAB5
:103F500030BD70B504460D46164621462846FFF78B
:103F6000E9FF31462220FCF78BFA70BD2DE9FF4FA7
:103F700083B006460F469046DDE91194B9F1000F73
:103F80000ED0082000FB0470401E83B2062000FB08
:103F90000460401E82B239463046FFF7ADFF0DE0A7
:103FA000062000FB0460401E83B2082000FB047062
:103FB000401E82B231463846FFF79EFF002573E06F
:103FC000052D1FDAB8F1810F08DAA8F1200000EB07
:103FD00080003B490844405D029007E0A8F15F0083
:103FE00000EB800036490844405D0290B9F1000FB3
:103FF0000AD046F278011120FCF742FA2220FCF7A1
:1040000035FA01E000200290009448E0B9F1000F79
:1040100002D04FF0010A01E04FF0800A0020019029
:1040200036E0A346109890B90DE0029800EA0A0025
:1040300018B10698FCF71EFA01E0FCF711FAABF193
:10404000010000F0FF0BBBF1000FEED112E00EE01B
:10405000029800EA0A0018B10698FCF70BFA02E091
:104060001098FCF707FAABF1010000F0FF0BBBF171
:10407000000FEDD1B9F1000F04D04FEA4A604FEACA
:10408000106A01E04FEA6A0A0198401CC0B2019030
:1040900001980828C5DB0098401EC0B20090009827
:1040A0000028B3D1681CC5B2062D89DB4FF49E737E
:1040B000EF2200210846FFF71FFF07B0BDE8F08F91
:1040C000C89700082DE9FE4F0546884614469946D4
:1040D000DDE90CAB0E9E002710E0CDE900AB0296A7
:1040E00014F8012B07EB4701490001FB065188B288
:1040F0004B464146FFF73AFF781CC7B220780028AC
:10410000EBD1BDE8FE8F70B50546D5F818424FF4E7
:104110000670005D48B94FF40570005928B1607A07
:1041200018B90121284602F0FCFC8121284602F042
:10413000F8FC607A022806D11F2304F503720121DE
:10414000284602F05FFC70BD70B50546D5F81842F0
:104150004FF4047001594FF40C7001514FF4057085
:1041600001594FF40D7001510121284602F0E0FB86
:104170001F2811D12749D4F80C0288420CD140F2F3
:104180001920005D012807DC4815005D012803DBCC
:104190004815005D10280DDD40F21920015D202337
:1041A0000522284600F01FFF022060722846FFF714
:1041B000AAFF2EE040F21920015D04F21B222846DE
:1041C00000F0AEFC00280BDA207A052804D101218A
:1041D000284600F0B7F81CE02846FFF794FF18E0E7
:1041E000207A022815D0207A012812D0207A0328BC
:1041F0000FD06089002806DD628904F10C01284691
:1042000000F0BEF805E0608918B90021284600F0EA
:1042100099F870BD5553424370B506460D46D6F821
:104220001842607A022806D18121304602F079FCDA
:10423000002060720AE005F08000802806D1607AD4
:10424000012803D00121304600F07CF870BD70B524
:1042500005460E46D5F81842207A022804D00328D5
:1042600012D0042815D10EE040F21920015D04F2AD
:104270001B22284600F054FC002803DA01212846BE
:1042800000F060F806E000BF0021284600F05AF870
:1042900000E000BF00BF70BD70B505460E46D5F802
:1042A0001842207A10B1012813D103E02846FFF705
:1042B0004BFF0FE040F21920015D04F21B2228465B
:1042C00000F02EFC002803DA0121284600F03AF81D
:1042D00000E000BF00BF70BDD0F8181200220A72C3
:1042E000704770B50546D5F81842002020726072FC
:1042F00084F85D0284F85C02D5F81C020168002095
:1043000088470121284602F009FB8121284602F056
:1043100005FB1F2304F503720121284602F072FBFE
:1043200070BD70B50546D5F81842002020720120F6
:1043300060721F2304F503720121284602F062FB1C
:1043400070BD000070B505460E46D5F818420B4802
:10435000C4F82C024FF40E700655002020720D2375
:1043600004F50B728121284602F0F7FB1F2304F5A8
:1043700003720121284602F045FB70BD555342539C
:104380002DE9F04106460F461546D6F818424FF47F
:1043900005700059A84203D24FF40570005900E09F
:1043A000284685B24FF40D700059411B4FF40D7033
:1043B00001510021001D0155042020722B463A4670
:1043C0008121304602F0C9FBBDE8F08108B500BF8D
:1043D0000A48406940F002000849486108464069BF
:1043E00000F00200009000BF00BF002202213B202D
:1043F000FDF743F83B20FDF733F808BD00100240FD
:1044000010B503490348FBF7F7FF0349087010BDD7
:1044100022000020C89900082100002000B587B0C4
:104420004FF0204019490860194848600020886012
:1044300000211648C16001611021416100218161A4
:10444000C161016241624FF4805181620021C16209
:104450000163416381630F2000900190FF2002906F
:104460000F2003901020049011200590002006904A
:10447000002269460548FFF715FB0648C06940F46D
:1044800080600449C86107B000BD000068020020D8
:10449000040100A00000014000B585B000BF26481F
:1044A000806940F04000244988610846806900F036
:1044B0004000009000BF00BF00BF0846806940F088
:1044C000200088610846806900F02000009000BF4D
:1044D00000BF00BF0846806940F0100088610846B0
:1044E000806900F01000009000BF00BF00BF0846C8
:1044F000806940F0040088610846806900F004008B
:10450000009000BF00BF00BF0846806940F008006F
:1045100088610846806900F00800009000BF00BF75
:10452000A0200190012002900220049001A90348DC
:10453000FCF7A2FD05B000BD00100240000C0140D8
:10454000064807490860002048600021044881604F
:10455000C1600161416104218161704700800140B7
:104560003801002010B50948094908604FF4E130CE
:104570004860002106488160C16001610C214161F1
:1045800000218161C161FFF7F1FA10BD00380140DF
:104590002802002010B500220749084802F0E1F87F
:1045A0000749064802F017FC0649044802F064FB7C
:1045B000024802F0D9FC10BD4C000020980D0020EC
:1045C000900000202C00002002480068C0F3022068
:1045D000704700000CED00E010B5002807DA0A076C
:1045E000140E054A00F00F031B1FD45403E00A0702
:1045F000130E024A135410BD18ED00E000E400E071
:104600002DE9FC41054600240027002600200190EA
:1046100000900CE2BDF8040000F00F06002E7DD1E2
:10462000BDF8040000F0100088BB2868008848F638
:104630000F7108402968088005F128042868B0F83F
:104640005010207801EBC000801C296801F58061C2
:1046500031F81000C0F30900E061E16960690844C5
:10466000606100212846FCF77BFF95F824000028B4
:10467000CFDDA0690028CCD195F8240040F080005F
:104680002968A1F84C00002085F82400CFE1FFE75D
:1046900005F50274286800880090BDF8000000F459
:1046A000006018B32868B0F85010207801EBC00003
:1046B000801D296801F5806131F81000C0F3090000
:1046C000E061A18B8BB2A28805F57B71286803F0AD
:1046D000C6FA28680088C0F30E0048F68F710840BB
:1046E000296808802846FDF76DFAA0E1BDF80000B2
:1046F00000F4004000288CD028680088C0F30E0029
:1047000048F68F710840296808802868B0F8501072
:10471000207801EBC000801D296800E055E001F51C
:10472000806131F81000C0F30900E061E06960B118
:10473000B4F81CC01FFA8CF3A2886169286803F0E2
:104740008EFAE16960690844606100212846FCF73F
:1047500015FF2A6802F580622868B0F85000801DB5
:1047600002EB400122693E2A10D92269C2F34F10A0
:10477000227C02F01F020AB9421E90B24FF6FF726D
:1047800002EA802242F400420A600DE02269C2F38C
:104790004F00227C02F001020AB1421C90B24FF697
:1047A000FF7202EA80220A60296809884BF68F723C
:1047B00001EA020080F4805080F4005040F400418F
:1047C00041F080012A68118031E17100286830F8D9
:1047D00011000090BDF8000000F4004000287CD0DB
:1047E0007100286830F81100C0F30E0048F68F7190
:1047F00008407200296821F8120005F5027000EBEC
:104800004614A07AA8B92868B0F85010207801EBB7
:10481000C000801D296801F5806131F81000C0F3E7
:104820000907EFB3A28861693B46286803F017FACD
:1048300044E021784900286830F8110000F48040F5
:10484000A8B12868B0F85010207801EBC000801C97
:10485000296801F5806131F81000C0F30907DFB164
:10486000E28861693B46286803F0F9F914E028689A
:10487000B0F85010207801EBC000801D296801F5C8
:10488000806131F81000C0F309072FB122896169F6
:104890003B46286803F0E3F921784900286800E0E6
:1048A0000CE030F8110048F68F71084048F2C00162
:1048B000084322785200296821F81200E069384440
:1048C000E061606938446061A06910B12069B84254
:1048D00004D921782846FCF751FE05E021782846C6
:1048E000D4E90523FCF722FFBDF8000000F08000AA
:1048F00000287CD005F1280000EB461471002868E0
:1049000030F8110048F60F7108407200296821F84C
:104910001200A07AD0B92868B0F85010207801EBC6
:10492000C000801C296801F5806131F81000C0F3D7
:104930000900E061E069E8B3B4F81CC01FFA8CF329
:10494000A2886169286803F0A8F94EE0217849003F
:10495000286830F8110000F04000D0B12868B0F8A5
:104960005010207801EBC000801C296801F580619F
:1049700031F81000C0F30900E061E06928B3B4F831
:104980001CC01FFA8CF3E2886169286803F085F97E
:104990001BE02868B0F85010207801EBC000801DA3
:1049A000296801F5806131F81000C0F30900E06169
:1049B000E06900E019E040B1B4F81CC01FFA8CF3C4
:1049C00022896169286803F068F92178490028681C
:1049D00030F8110048F68F7108404CF2800108430E
:1049E00022785200296821F81200286800E01EE0B1
:1049F000B0F85010207801EBC000801C296801F548
:104A0000806131F81000C0F30900E061E16960697C
:104A100008446061A06920B921782846FCF7A0FD10
:104A200005E021782846D4E90523FCF7EDFE286847
:104A3000B0F84400019000F4004000287FF4EAAD93
:104A4000BDE8FC812DE9F04104460F4615461E469F
:104A5000D4F81882A819D8F86012884209D92123FD
:104A600005223946204600F0BEFA4FF0FF30BDE87F
:104A7000F0810020FBE70000F0B504460D46D4F8B5
:104A80001862507800F0010010B10E4B07210CE0C5
:104A9000D4F81C02C06905EBC50700EB8703187941
:104AA000411D1079884200DC1179718105E0481EB2
:104AB00081B25F5C06F10C0047540029F7D1002059
:104AC000F0BD0000889A000870B503460C461546F4
:104AD0000821D3F81822518106E0481E81B204480B
:104AE000465C02F10C0046540029F6D1002070BD4E
:104AF000979A000870B503460C461546D3F818225D
:104B00000821518106E0481E81B20448465C02F14A
:104B10000C0046540029F6D1002070BD8F9A000881
:104B200070B505460E4614462078232845D00DDC86
:104B30001A2836D005DCB0B103281AD012285AD171
:104B40001DE01B2821D01E2855D124E02A2846D05C
:104B500004DC252837D028284DD13AE02F2844D02E
:104B60005A2848D123E022463146284600F060FA10
:104B700070BD22463146284600F0F2F9F8E7224699
:104B800031462846FFF778FFF2E7224631462846AD
:104B900000F046FAECE722463146284600F040FA9B
:104BA000E6E7224631462846FFF7A4FFE0E7224623
:104BB00031462846FFF788FFDAE722463146284685
:104BC00000F089F9D4E722463146284600F043F93F
:104BD000CEE722463146284600F0C7F8C8E722460D
:104BE0003146284600F077FAC2E722463146284689
:104BF00000F049FABCE7202305223146284600F0A0
:104C0000F2F94FF0FF30B3E72DE9F04706460F46C3
:104C1000D6F81842D4F86802B0F5007F02D2D4F872
:104C2000680201E04FF400700546B4F85E02B5FB7F
:104C3000F0F01FFA80F8B4F85E12D4F86402B0FB0A
:104C4000F1F9D6F81C0243464A4604F10C01D0F8AB
:104C500010C03846E047002809DA112304223946FB
:104C6000304600F0C0F94FF0FF30BDE8F087ABB23E
:104C700004F10C028121304601F06FFFD4F8640288
:104C80002844C4F86402D4F86802401BC4F86802DF
:104C90004FF40D700059411B4FF40D700151D4F8C1
:104CA000680208B9032020720020DEE72DE9F047F2
:104CB00006460F46D6F81842D4F86802B0F5007FD1
:104CC00002D2D4F8680201E04FF400700546B4F84F
:104CD0005E02B5FBF0F01FFA80F8B4F85E12D4F86B
:104CE0006402B0FBF1F9D6F81C0243464A4604F1CF
:104CF0000C01D0F814C03846E047002809DA032335
:104D000004223946304600F06EF94FF0FF30BDE81E
:104D1000F087D4F864022844C4F86402D4F8680226
:104D2000401BC4F868024FF40D700059411B4FF44A
:104D30000D700151D4F8680220B900213046FFF708
:104D400001FB10E0D4F86802B0F5007F02D2D4F87D
:104D5000680201E04FF4007083B204F10C020121FB
:104D6000304601F04FFE0020D1E72DE9F041064624
:104D70000F461546D6F81842207A002863D14FF422
:104D80000670005D00F0800080280BD040F21920F2
:104D9000015D20230522304600F025F94FF0FF3059
:104DA000BDE8F081D6F81C0281683846884740B1DA
:104DB0003A2302223946304600F015F94FF0FF3011
:104DC000EEE7A8780006E97840EA0140297940EA50
:104DD000012069790843C4F86402287AE97940EA35
:104DE0000120C4F86802B4F8680283B2394630463C
:104DF000D4F86422FFF726FE002802DA4FF0FF30D5
:104E0000CEE702202072B4F85E12D4F86402484360
:104E1000C4F86402B4F85E12D4F868024843C4F8D7
:104E200068024FF405700059D4F8681288420AD01D
:104E300040F21920015D20230522304600F0D3F80E
:104E40004FF0FF30ACE74FF40070608139463046D8
:104E5000FFF7DAFEA4E72DE9F04105460E461746B6
:104E6000D5F81842D5F81C0204F25E22911C436862
:104E70003046984748B13A2302223146284600F08E
:104E8000B2F84FF0FF30BDE8F081D4F86002401E68
:104E9000000E2073D4F86002401E010C6173B4F858
:104EA0006002401E010AA17394F86002401EE07384
:104EB000B4F85E0201162174B4F85E020114617444
:104EC000B4F85E020112A17494F85E12E174082035
:104ED00060810020D7E72DE9FC4105460F4690464A
:104EE000D5F81842002605E0002104F10C00815598
:104EF000701C86B20C2EF7DBD5F81C0201AA69469D
:104F000043683846984748B13A2302223946284632
:104F100000F069F84FF0FF30BDE8FC810821E17333
:104F20000098401E010E21740098401E010C61740F
:104F30000098401E010AA1740098401EE0740221EE
:104F40002175BDF8040001146175BDF8040001125B
:104F5000A175BDF80400E0750C2060810020DBE73E
:104F600070B504460D46D4F81812002305E000265B
:104F700001F10C00C654581CC3B2122BF7DB702091
:104F800008730C26CE7491F85C0291F85D62B04211
:104F900020D091F85C6201F50F7010F836608E73C6
:104FA00091F85C6200EBC60046790E7691F85C627F
:104FB00001F50F7000EBC60006794E7691F85C02A1
:104FC000401C81F85C0291F85C02042802D10020A8
:104FD00081F85C02122048811079122801DC1079D6
:104FE0004881002070BDF0B50446D4F8180290F84E
:104FF0005D6200F50F7505F836201E0290F85D72AF
:1050000005EBC7056E6090F85D526D1C80F85D522F
:1050100090F85D52042D02D1002580F85D52F0BD5C
:1050200010B503460C46D3F818120020488110BD75
:105030002DE9F04105460E461746D5F818424FF4C3
:105040000570005958B140F21920015D2023052256
:105050002846FFF7C8FF4FF0FF30BDE8F081D5F8D4
:105060001C0281683046884748B13A230222314603
:105070002846FFF7B8FF05202072801FEDE70020CB
:10508000608100BFE9E72DE9F04105460F4616466D
:10509000D5F81842707800F00200022809D12423C4
:1050A000052239462846FFF79EFF4FF0FF30BDE846
:1050B000F081B4F8680283B239462846D4F86422F5
:1050C000FFF7C0FC002802DA4FF0FF30EFE70020C6
:1050D000608100BFEBE72DE9F04106460F4615461B
:1050E000D6F81842207A002870D14FF40670005D7F
:1050F00000F0800080280BD140F21920015D2023B0
:1051000005223046FFF76FFF4FF0FF30BDE8F0811A
:10511000D6F81C0281683846884740B13A230222FB
:1051200039463046FFF75FFF4FF0FF30EEE7D6F825
:105130001C02C1683846884740B1272302223946FD
:105140003046FFF750FF4FF0FF30DFE7A87800064A
:10515000E97840EA0140297940EA01206979084369
:10516000C4F86402287AE97940EA0120C4F86802A8
:10517000B4F8680283B239463046D4F86422FFF7A7
:1051800061FC002802DA4FF0FF30BFE7B4F85E128E
:10519000D4F864024843C4F86402B4F85E12D4F848
:1051A00068024843C4F868024FF405700059D4F807
:1051B000681288420BD040F21920015D202305229D
:1051C0003046FFF710FF4FF0FF309FE713E001205C
:1051D0002072D4F86802B0F5007F02D2D4F86802D9
:1051E00001E04FF4007083B204F10C02012130465B
:1051F00001F008FC04E039463046FFF757FD85E72B
:10520000002083E702460868506248689062D1E94E
:10521000020318430B6918434B691843D36A23F000
:10522000F7031843D0620020704701460869C0B2F6
:1052300070470146086800F00300704708B5024651
:10524000002000900248084400900098006808BDC3
:105250001480014010B50248FDF736FF10BD000074
:10526000380100200FB410B50446DDE903010843FE
:105270000599084306990843079908430899084384
:10528000616847F6FF62914308436060002010BCEC
:105290005DF814FB014603200860002070470146BA
:1052A000D1F880007047024608689060D1E9010398
:1052B0001843CB6818430B691843D3686FF30B038B
:1052C0001843D0600020704702460868C2F880008A
:1052D0000020704730B5014600204FF480320C6842
:1052E000646BC4F3C01304E00C68646BC4F3C013B4
:1052F000521E0AB1002BF7D00AB9032030BD40F28C
:10530000FF540D68AC6300BFF8E700002DE9F041E1
:1053100005460E460027002400BF2868406B00F0B9
:1053200045000028F9D02868406B00F0040030B137
:1053300003270420296888633846BDE8F08128687F
:10534000406B00F0010028B1012701202968886323
:105350003846F2E72868FFF768FFB04202D010270E
:105360003846EAE740F2FF50296888630021286840
:10537000FFF764FF04464548204008B93846DCE79B
:1053800004F00040B0F1004F01D11C20D5E704F03B
:105390008040B0F1804F01D10920CEE704F00050E9
:1053A000B0F1005F01D10A20C7E704F08050B0F1EE
:1053B000805F01D10B20C0E704F00060B0F1006F06
:1053C00001D10C20B9E704F08060B0F1806F01D109
:1053D0000D20B2E704F08070B0F1807F01D10E2083
:1053E000ABE704F40000B0F5000F01D10F20A4E7F3
:1053F00004F48000B0F5800F01D110209DE704F483
:105400000010B0F5001F01D1112096E704F48010C0
:10541000B0F5801F01D112208FE704F40020B0F511
:10542000002F01D1132088E704F48020B0F5802FED
:1054300001D1142081E704F40030B0F5003F01D120
:1054400015207AE704F48030B0F5803F01D11620B2
:1054500073E704F40040B0F5004F01D117206CE76A
:1054600004F48040B0F5804F01D1182065E704F4C2
:105470000050B0F5005F01D119205EE704F008008C
:10548000082801D11A2058E7384656E708E0FFFD02
:105490000146002000BF0A68526B02F04502002A54
:1054A000F9D00A68526B02F0040222B103200422F0
:1054B0000B689A6370470A68526B02F0010222B1CE
:1054C000012001220B689A63F4E740F2FF520B6857
:1054D0009A6300BFEEE70146002000BF0A68526BE6
:1054E00002F04502002AF9D00A68526B02F0040269
:1054F00022B1032004220B689A63704740F2FF52E6
:105500000B689A6300BFF8E72DE9F04104460E46A8
:1055100017464FF00008002500BF2068406B00F0E0
:1055200045000028F9D02068406B00F0040038B135
:105530004FF003080420216888634046BDE8F081ED
:105540002068406B00F0010030B14FF001080120ED
:10555000216888634046F1E72068FFF766FEB042A5
:1055600003D04FF010084046E8E740F2FF502168B2
:10557000886300212068FFF761FE054605F460405E
:1055800018B9280C38804046D8E705F40050B0F52B
:10559000005F01D11320D1E705F48040B0F5804FC2
:1055A00001D11020CAE705F40040B0F5004F01D149
:1055B0000F20C3E74046C1E730B5014629204FF42C
:1055C00080320C68646B04F045040CB1012400E0E7
:1055D0000024234609E00C68646B04F045040CB118
:1055E000012400E000242346521E0BB9002AF2D108
:1055F0000C68646BC4F3800302B123B1032004245C
:105600000D68AC6330BD0C68646B04F0400424B1D9
:10561000002040240D68AC63F4E700BFF2E770B5EA
:1056200005466C6A0120206500BFA06C0028FCD0F4
:10563000A06DFDF7BDFB70BD70B50446656AA86D31
:10564000FDF7B7FB70BD70B505466C6A012020659B
:1056500000BFA06C0028FCD0E06DFDF7ABFB70BD77
:1056600070B50446656AE86DFDF7A5FB70BDF0B541
:105670008DB004460E46142108A8FAF7CFFD182174
:1056800002A8FAF7CBFD002500270020009001902A
:10569000082008901020099040200A9000200B90CC
:1056A0004FF480600C9008A92068FFF7FCFD1021E2
:1056B0002046FFF72BFE054615B128460DB0F0BD7C
:1056C000A08C000408903720099008A92068FFF7F3
:1056D000EAFD37212046FFF719FE05460DB12846A1
:1056E000ECE74FF0FF300290082003903020049048
:1056F00002200590002006900120079002A9206852
:10570000FFF780FD002008903320099008A9206849
:10571000FFF7C9FD33212046FFF7F8FD05460DB11F
:105720002846CBE70AE02068406B00F4001028B15F
:105730002068FFF7B4FD4DF827007F1C2068406B00
:1057400040F22A6108400028EDD02068406B00F04C
:10575000080028B108202168886304252846ADE7A1
:105760002068406B00F0020028B1022021688863A5
:1057700002252846A2E72068406B00F0200028B1EF
:105780002020216888630625284697E72068406B1B
:1057900000F4007030B14FF4007021688863072571
:1057A00028468BE740F2FF50216888630098000686
:1057B000009901F47F4140EA0120009901F47F0142
:1057C00040EA1120009940EA1160706001980006DB
:1057D000019901F47F4140EA0120019901F47F0120
:1057E00040EA1120019940EA11603060284665E7DF
:1057F00038B50446002000906946204600F05AFA69
:1058000008B1FF2038BD0098C0F34320FAE730B557
:1058100087B00446142102A8FAF700FD00250120F4
:1058200001902068FFF705FD18B92525284607B027
:1058300030BD206A042829D0002002900220039065
:10584000C0200490002005904FF48060069002A9CB
:105850002068FFF728FD2046FFF71AFE05460DB128
:105860002846E4E700212068FFF7E8FCA063042154
:105870002068FFF7E3FCE06308212068FFF7DEFC07
:1058800020640C212068FFF7D9FC6064206A40B1D5
:10589000206A012805D0206A062802D0206A022842
:1058A00010D1032003904020049002A92068FFF744
:1058B000FAFC01AA03212046FFF726FE05460DB19A
:1058C0002846B4E7206A042828D0BDF804006062A6
:1058D000A08C0004029009200390C020049002A92B
:1058E0002068FFF7E0FC2046FFF7D2FD05460DB12A
:1058F00028469CE700212068FFF7A0FCA062042155
:105900002068FFF79BFCE06208212068FFF796FC07
:1059100020630C212068FFF791FC6063284686E72E
:1059200070B586B004460D46142101A8FAF776FC3E
:10593000002600200090A08C000401900D20029011
:1059400040200390002004904FF48060059001A94E
:105950002068FFF7A8FC00BF2068406B00F04500FE
:105960000028F9D02068406B00F0040030B1032615
:10597000042021688863304606B070BD2068406B03
:1059800000F0010028B1012601202168886330461B
:10599000F2E72068FFF749FC0D2802D010263046B8
:1059A000EAE740F2FF502168886300212068FFF792
:1059B00045FC00900098C0F3432028704F490098A0
:1059C000084008B93046D7E7009800F00040B0F131
:1059D000004F01D11C20CFE7009800F08040B0F1CB
:1059E000804F01D10920C7E7009800F00050B0F1C6
:1059F000005F01D10A20BFE7009800F08050B0F1AD
:105A0000805F01D10B20B7E7009800F00060B0F193
:105A1000006F01D10C20AFE7009800F08060B0F17A
:105A2000806F01D10D20A7E7009800F08070B0F1E1
:105A3000807F01D10E209FE7009800F40000B0F5B0
:105A4000000F01D10F2097E7009800F48000B0F517
:105A5000800F01D110208FE7009800F40010B0F5FE
:105A6000001F01D1112087E7009800F48010B0F5E5
:105A7000801F01D112207FE7009800F40020B0F5CC
:105A8000002F01D1132077E7009800F48020B0F5B3
:105A9000802F01D114206FE7009800F40030B0F59A
:105AA000003F01D1152067E7009800F48030B0F581
:105AB000803F01D116205FE7009800F40040B0F568
:105AC000004F01D1172057E7009800F48040B0F54F
:105AD000804F01D118204FE7009800F40050B0F536
