:020000040800F2
:100000005804002001010008951700089516000803
:100010009117000849010008771B00080000000044
:10002000000000000000000000000000D3170008DE
:100030004D01000800000000D1170008D517000886
:100040001B0100081B0100081B0100081B01000820
:100050001B0100081B0100081B0100081B01000810
:100060001B0100081B0100081B0100081B01000800
:100070001B0100081B0100081B0100081B010008F0
:100080001B0100081B0100081B0100081B010008E0
:100090001B0100081B0100081B0100081B010008D0
:1000A0001B0100081B0100081B0100081B010008C0
:1000B0001B0100081B0100081B0100081B010008B0
:1000C0001B0100081B0100081B0100081B010008A0
:1000D0001B0100081B0100081B0100081B01000890
:1000E0001B0100081B0100081B010008DFF80CD0F1
:1000F00000F018F8004800479D1B00085804002035
:100100000648804706480047FEE7FEE7FEE7FEE7B1
:10011000FEE7FEE7FEE7FEE7FEE7FEE75D18000804
:10012000ED000008064C074D06E0E06840F00103D2
:1001300094E8070098471034AC42F6D3FFF7DAFF93
:100140005C1C00087C1C000800BFFEE7704710B56F
:100150004FF4966000F0B9F8422000F0CDF800248A
:1001600003E0002000F0E2F8641CB4F5165FF8D359
:1001700010BD10B50021084600F0B4F8422000F090
:10018000BBF8002403E0202000F0D0F8641CB4F594
:10019000966FF8DB10BD000008B500BF14488069F9
:1001A00040F00400124988610846806900F00400AC
:1001B000009000BF00BF4FF6FF700E49086001209D
:1001C00048600220C8600C4800F0D8F801224FF4C3
:1001D0007061094800F060FA00BF00BF00BF00BFB7
:1001E00000BF01221103044800F056FA08BD0000C8
:1001F00000100240480000200008014010B5FFF741
:10020000CBFF402000F078F8302000F08FF88720F6
:1002100000F08CF8072000F089F8272000F086F81D
:100220002B2000F083F8EF2000F080F8282000F069
:100230007DF8002000F07AF8442000F05DF80020FE
:1002400000F074F8002000F071F8EF2000F06EF874
:10025000B02000F06BF8042000F068F8EF2000F008
:1002600065F8002000F062F8002000F05FF8002040
:1002700000F05CF8002000F059F85D2000F03CF838
:10028000042000F053F8072000F050F85C2000F044
:1002900033F8002000F04AF8702000F047F84C20B6
:1002A00000F02AF85A2000F027F8002000F03EF86D
:1002B0005B2000F021F8012000F038F8592000F010
:1002C0001BF8162000F032F810BD10B50446462089
:1002D00000F012F8E0B200F029F8C4F3072000F0B3
:1002E00025F810BD70B504460D4605EB850104EBFD
:1002F000C100FFF7EAFF70BD0B49096801F47F41B7
:100300000143094A11604FF41061074A0832116035
:1003100000BF00BF00BF00BF00BF4FF41061024A22
:10032000121D1160704700000C0801400B4909685C
:1003300001F47F410143094A11604FF45061074ABB
:100340000832116000BF00BF00BF00BF00BF4FF404
:100350005061024A121D1160704700000C080140F4
:1003600031B5002400F09EF9044600BF00F09AF970
:10037000001B00998842F9D338BD00002DE9F847E9
:1003800003460024002000258446002700226EE159
:100390004FF0010808FA02F4D1F8008008EA0400DE
:1003A000A0427DD1DFF8D0A2D1F80480A8EB0A09E1
:1003B000D0453AD014DCB8F1030F50D009DCB8F1C5
:1003C000000F31D0B8F1010F1CD0B8F1020F49D1A4
:1003D00020E0B8F1110F18D0B8F1120F42D11EE091
:1003E000B9F5881F25D006DCB9F5803F20D0B9F5D6
:1003F000801F37D11AE0B9F5001F18D0B9F5041FD6
:1004000030D117E0D1F80CC02DE0D1F80C8008F104
:10041000040C28E0D1F80C8008F1080C23E0D1F896
:100420000C8008F10C0C1EE000BF00BF00BF00BF35
:1004300000BF00BFD1F80880B8F1000F02D14FF023
:10044000040C0BE0D1F80880B8F1010F03D14FF094
:10045000080C1C6102E04FF0080C5C6103E04FF0F7
:10046000000C00E000BF00BFFF2801D8984601E063
:1004700003F104084646FF2802D84FEA820803E049
:10048000A2F108084FEA88084746D6F800804FF0E6
:100490000F0909FA07F928EA09080CFA07F900E038
:1004A00088E048EA0908C6F80080D1F8048008F01E
:1004B0008058B8F1805F7DD100BFDFF8C081D8F8E7
:1004C000188048F00108DFF8B491C9F81880C846D0
:1004D000D8F8188008F00108CDF8008000BF00BFF0
:1004E0004FEAB9384FEA920958F829504FEA827812
:1004F0004FEA18794FF00F0808FA09F825EA0805BD
:10050000DFF87C81434502D14FF0000816E0DFF8A8
:100510007481434502D14FF001080FE0DFF8688194
:10052000434502D14FF0020808E0DFF860814345FF
:1005300002D14FF0030801E04FF004084FEA82793E
:100540004FEA197908FA09F848EA0505DFF8408109
:100550004FEA920948F82950D1F8048008F480380D
:10056000B8F5803F0AD1DFF82C81D8F8008048EA3E
:100570000008DFF82091C9F8008009E0DFF8148155
:10058000D8F8008028EA0008DFF80891C9F8008050
:10059000D1F8048008F40038B8F5003F10D1DFF836
:1005A000F48008F10408D8F8008048EA0008DFF871
:1005B000E49000E05AE009F10409C9F800800DE078
:1005C000DFF8D08008F10408D8F8008028EA000895
:1005D000DFF8C09009F10409C9F80080D1F804805F
:1005E00008F48018B8F5801F0ED1DFF8A88008F154
:1005F0000808D8F8008048EA0008DFF8989009F168
:100600000809C9F800800DE0DFF8888008F10808C3
:10061000D8F8008028EA0008DFF8789009F1080986
:10062000C9F80080D1F8048008F40018B8F5001F5C
:100630000ED1DFF8608008F10C08D8F8008048EA95
:100640000008DFF8509009F10C09C9F800800DE0AE
:10065000DFF8408008F10C08D8F8008028EA00088C
:10066000DFF8309009F10C09C9F80080521C102AFB
:10067000FFF48EAEBDE8F8870000111000100240B4
:1006800000080140000C014000100140001401402E
:1006900008000140000401400AB1016101E00B04BF
:1006A00003617047014800687047000004000020A3
:1006B00002480068401C014908607047040000209F
:1006C00010B50848006840F0100006490860032093
:1006D00000F0A0F8002000F007F800F017F8002064
:1006E00010BD00000020024070B5044600F0F2F991
:1006F0004FF47A71B0FBF1F5284600F0C8FE0022F5
:100700002146501E00F048F8002070BD08B500BF1B
:100710001F48806940F001001D49886108468069D2
:1007200000F00100009000BF00BF032000F072F84D
:10073000002211466FF00B0000F02EF80022114647
:100740006FF00A0000F028F8002211466FF009004F
:1007500000F022F800221146501F00F01DF8002280
:100760001146101F00F018F800221146901E00F0EC
:1007700013F800221146501E00F00EF8054840689C
:1007800020F0E06040F000700249486008BD0000C1
:1007900000100240000001402DE9F05F80460D4648
:1007A0001646002700F0F8FF074639462A4633462A
:1007B00001F00700C0F1070ABAF1040F02D94FF0A7
:1007C000040A01E0C0F1070AD14600F1040ABAF1B7
:1007D000070F02D24FF0000A01E0A0F1030AD4464D
:1007E0004FF0010A0AFA09FAAAF1010A0AEA020A12
:1007F0000AFA0CFA4FF0010B0BFA0CFBABF1010BF0
:100800000BEA030B4AEA0B042146404600F0CCFFFA
:10081000BDE8F09F00BF00F00702064B19684FF6D5
:10082000FF031940044B0B4343EA0221014B1960BB
:1008300000BF70470CED00E00000FA0570B50446FB
:100840000D4600269F48006800F00700A8420ED21F
:100850009C48006820F0070028439A490860084631
:10086000006800F00700A84201D0012070BD207888
:1008700000F00200022807D19348406820F0F00001
:10088000A168084390494860207800F001000028E2
:100890007CD0606801282DD12020010391FAA1F1BC
:1008A000B1FA81F108430121B1EB601F02D1864802
:1008B00000680FE02020010391FAA1F1B1FA81F163
:1008C00008430221B1EB601F02D17F48006A01E0BA
:1008D0007D48406A20210A0392FAA2F2B2FA82F21B
:1008E000114301F01F02012191400840002860D10E
:1008F0000120BBE7606802282CD12020010591FA75
:10090000A1F1B1FA81F108430121B1EB601F02D1DD
:100910006D4800680FE02020010591FAA1F1B1FABD
:1009200081F108430221B1EB601F02D16648006AE1
:1009300001E06548406A20210A0592FAA2F2B2FA63
:1009400082F2114301F01F0201219140084078BB5F
:1009500001208BE72020022191FAA1F1B1FA81F167
:1009600008430121B1EB601F02D15748006810E035
:100970002020022191FAA1F1B1FA81F1084302216C
:10098000B1EB601F03D15048006A02E054E04E48CA
:10099000406A2021022292FAA2F2B2FA82F21143B4
:1009A00001F01F0201219140084008B901205DE7D4
:1009B000FFE74548406820F003006168084342496A
:1009C0004860FFF76FFE06466068012810D108E016
:1009D000FFF768FE801B41F28831884201D903206D
:1009E00044E73948406800F00C000428F0D123E0C7
:1009F0006068022810D108E0FFF754FE801B41F226
:100A00008831884201D9032030E72F48406800F040
:100A10000C000828F0D10FE008E0FFF743FE801B30
:100A200041F28831884201D903201FE726484068F7
:100A300000F00C000028F0D12248006800F0070008
:100A4000A8420ED91F48006820F0070028431D491E
:100A500008600846006800F00700A84201D00120A5
:100A600004E7207800F00400042807D11648406805
:100A700020F4E060E168084313494860207800F002
:100A80000800082808D11048406820F46050216907
:100A900040EAC1000C49486000F04EF80A49496834
:100AA00001F0F001F02292FAA2F2B2FA82F2D14001
:100AB000064A515CC840064908600020FFF714FE52
:100AC0000020D3E60020024000100240441C000831
:100AD000000000200148006870470000000000206E
:100AE00000B5FFF7F7FF0749496801F4E0614FF4EB
:100AF000E06292FAA2F2B2FA82F2D140024A515C6A
:100B0000C84000BD00100240541C000800B5FFF7AB
:100B1000E1FF0749496801F460514FF4605292FACD
:100B2000A2F2B2FA82F2D140024A515CC84000BD42
:100B300000100240541C0008F0B585B00FF28C0C78
:100B40009CE8E01001A8A0E8E01024A52D6800951D
:100B500000210024002200230020214D696801F0BB
:100B60000C056DB3042D02D0082D28D101E01D48DD
:100B700028E001F470154FF4701696FAA6F6B6FA4E
:100B800086F6F54001AE735D01F4803595B1144DE4
:100B90006D6805F400354FF4003696FAA6F6B6FAFD
:100BA00086F6F5401DF805400E4DB5FBF4F505FB46
:100BB00003F202E00C4D03FB05F2104602E000BF19
:100BC000084800BF00BF05B0F0BD000002030405E7
:100BD000060708090A0B0C0D0E0F10100102000089
:100BE0000010024000127A0000093D0038B50446AA
:100BF0000025207800F0010000287CD0F8484068EB
:100C000000F00C0004280CD0F548406800F00C00FF
:100C1000082837D1F248406800F48030B0F5803FB2
:100C200030D12020010391FAA1F1B1FA81F10843FA
:100C30000121B1EB601F02D1E94800680FE02020DC
:100C4000010391FAA1F1B1FA81F108430221B1EB5C
:100C5000601F02D1E248006A01E0E148406A2021B9
:100C60000A0392FAA2F2B2FA82F2114301F01F02D1
:100C70000121914008400028BFD0606800283AD187
:100C8000012038BD00BF6068B0F5803F06D1D44870
:100C9000006840F48030D249086028E0606858B9A4
:100CA000CF48006820F48030CD49086008460068CD
:100CB00020F4802008601AE06068B0F5A02F0BD106
:100CC000C748006840F48020C549086008460068AD
:100CD00040F4803008600AE0C148006820F48030A9
:100CE000BF4908600846006820F48020086000BF03
:100CF0006068C8B300E06FE0FFF7D4FC054606E08B
:100D0000FFF7D0FC401B642801D90320B9E720205D
:100D1000010391FAA1F1B1FA81F108430121B1EB8C
:100D2000601F02D1AE4800680FE02020010391FA55
:100D3000A1F1B1FA81F108430221B1EB601F02D1A8
:100D4000A748006A01E0A648406A20210A0392FAF7
:100D5000A2F2B2FA82F2114301F01F020121914086
:100D600008400028CCD037E0FFE7FFF79BFC0546A2
:100D700006E0FFF797FC401B642801D9032080E7B9
:100D80002020010391FAA1F1B1FA81F10843012178
:100D9000B1EB601F02D1924800680FE020200103F0
:100DA00091FAA1F1B1FA81F108430221B1EB601F80
:100DB00002D18B48006A01E08948406A20210A0379
:100DC00092FAA2F2B2FA82F2114301F01F0201215B
:100DD000914008400028CCD1207800F00200022881
:100DE0004ED17F48406800F00C0050B17C4840680C
:100DF00000F00C00082844D17948406800F48030A5
:100E000078BB2020022191FAA1F1B1FA81F10843C7
:100E10000121B1EB601F02D1714800680FE0202072
:100E2000022191FAA1F1B1FA81F108430221B1EB5B
:100E3000601F02D16A48006A01E06948406A2021C7
:100E4000022292FAA2F2B2FA82F2114301F01F02D8
:100E500001219140084028B12069012802D00120D9
:100E60000FE70EE05E48006820F0F800F82292FAE2
:100E7000A2F2B2FA82F261699140084358490860CF
:100E800091E02069F0B3012090FAA0F1B1FA81F16C
:100E9000544A42F82100FFF705FC054606E0FFF73B
:100EA00001FC401B022801D90320EAE62020022190
:100EB00091FAA1F1B1FA81F108430121B1EB601F70
:100EC00002D1474800680FE02020022191FAA1F1E9
:100ED000B1FA81F108430221B1EB601F02D1404811
:100EE000006A01E03E48406A2021022292FAA2F202
:100EF000B2FA82F2114301F01F0201219140084031
:100F0000002800E00FE0CAD03548006820F0F80063
:100F1000F82292FAA2F2B2FA82F261699140084391
:100F20002F4908603FE00020012191FAA1F1B1FAB8
:100F300081F12C4A42F82100FFF7B4FB054606E098
:100F4000FFF7B0FB401B022801D9032099E62020BF
:100F5000022191FAA1F1B1FA81F108430121B1EB2B
:100F6000601F02D11E4800680FE02020022191FA84
:100F7000A1F1B1FA81F108430221B1EB601F02D166
:100F80001748006A01E01648406A2021022292FABE
:100F9000A2F2B2FA82F2114301F01F020121914044
:100FA00008400028CCD1207800F0080008284BD158
:100FB000A069A8B3012191FAA1F0B0FA80F0094A22
:100FC00002EB8000C0F88014FFF76CFB05460BE0D5
:100FD000FFF768FB401B022806D9032051E60000FA
:100FE00000100240000042426020022191FAA1F16B
:100FF000B1FA81F108430121B1EB601F02D1F94838
:10100000006810E06020022191FAA1F1B1FA81F1AB
:1010100008430221B1EB601F03D1F248006A02E0ED
:1010200013E0F048406A6021022292FAA2F2B2FA7A
:1010300082F2114301F01F02012191400840002873
:10104000C6D00120FFF78CF941E00020012191FA80
:10105000A1F1B1FA81F1E44A02EB8101C1F8800407
:10106000FFF720FB054606E0FFF71CFB401B0228AC
:1010700001D9032005E66020022191FAA1F1B1FA1D
:1010800081F108430121B1EB601F02D1D54800680E
:101090000FE06020022191FAA1F1B1FA81F1084339
:1010A0000221B1EB601F02D1CE48006A01E0CD48B9
:1010B000406A6021022292FAA2F2B2FA82F211434D
:1010C00001F01F020121914008400028CCD1207876
:1010D00000F00400042875D100BFC248C06940F088
:1010E0008050C049C8610846C06900F08050009037
:1010F00000BF00BFBD48006840F48070BB49086075
:10110000FFF7D0FA054606E0FFF7CCFA401B64284B
:1011100001D90320B5E5B548006800F480700028C7
:10112000F2D000BFE068012806D1AE48006A40F066
:101130000100AC49086227E0E06858B9A948006A94
:1011400020F00100A74908620846006A20F0040068
:10115000086219E0E06805280BD1A248006A40F057
:101160000400A04908620846006A40F001000862D5
:101170000AE09C48006A20F001009A49086208468B
:10118000006A20F00400086200BFE068D0B3FFF7F7
:1011900089FA054608E0FFF785FA401B41F28831DD
:1011A000884201D903206CE54020022191FAA1F187
:1011B000B1FA81F108430121B1EB601F03D18948E5
:1011C000006810E058E04020022191FAA1F1B1FA44
:1011D00081F108430221B1EB601F02D18148006A0E
:1011E00001E08048406A4021022292FAA2F2B2FA5B
:1011F00082F2114301F01F020121914008400028B2
:10120000C9D039E0FFE7FFF74DFA054608E0FFF7E0
:1012100049FA401B41F28831884201D9032030E568
:101220004020022191FAA1F1B1FA81F10843012194
:10123000B1EB601F02D16B4800680FE04020022133
:1012400091FAA1F1B1FA81F108430221B1EB601FDB
:1012500002D16448006A01E06248406A40210222EB
:1012600092FAA2F2B2FA82F2114301F01F020121B6
:10127000914008400028CAD1E069002873D059483D
:10128000406800F00C0008286ED0E06902286CD19C
:1012900000204FF0807191FAA1F1B1FA81F1524A28
:1012A00042F82100FFF7FEF9054606E0FFF7FAF9DC
:1012B000401B022801D90320E3E42020010591FA14
:1012C000A1F1B1FA81F108430121B1EB601F02D114
:1012D000444800680FE02020010591FAA1F1B1FA1D
:1012E00081F108430221B1EB601F02D13D48006A41
:1012F00001E03C48406A20210A0592FAA2F2B2FAC3
:1013000082F2114301F01F020121914008400028A0
:10131000CCD1206AB0F5803F07D13248406820F434
:101320000030A16808432F494860D4E90801084308
:101330002C49496821F4741108432A494860012165
:10134000080690FAA0F0B0FA80F0274A42F8201080
:10135000FFF7A8F9054609E0FFF7A4F9401B0228AA
:1013600004D903208DE479E076E02CE0202001050B
:1013700091FAA1F1B1FA81F108430121B1EB601FAB
:1013800002D1184800680FE02020010591FAA1F170
:10139000B1FA81F108430221B1EB601F02D111487B
:1013A000006A01E00F48406A20210A0592FAA2F281
:1013B000B2FA82F2114301F01F020121914008406C
:1013C0000028C9D04AE000204FF0807191FAA1F1C5
:1013D000B1FA81F1044A42F82100FFF763F90546AA
:1013E0000DE000000010024000004242007000408A
:1013F000FFF758F9401B022801D9032041E42020BF
:10140000010591FAA1F1B1FA81F108430121B1EB93
:10141000601F02D1124800680FE02020010591FAF8
:10142000A1F1B1FA81F108430221B1EB601F02D1B1
:101430000B48006A01E00A48406A20210A0592FA36
:10144000A2F2B2FA82F2114301F01F02012191408F
:1014500008400028CCD101E0012012E4002010E473
:1014600000100240042808D14FF0E021096941F042
:1014700004014FF0E022116107E04FF0E02109691B
:1014800021F004014FF0E02211617047704770B500
:1014900004462546681EB0F1807F01D301200FE08D
:1014A000681E4FF0E02148610F214FF0FF3000F03F
:1014B0007BF900204FF0E0218861072008610020BF
:1014C00070BD10B5FFF7E2FF10BD10B504460CB9B2
:1014D000012010BDA06900B100E000BF94F8390000
:1014E00028B9002084F83800204600F025F80220B2
:1014F00084F839002068C06820F400502168C86072
:10150000204600F0D7F92068006920F49040216857
:1015100008612068406920F02A002168486120683D
:10152000C06840F400502168C8600020E0630120DA
:1015300084F839000020CCE710B586B00446144981
:101540002068884222D100BF1248C06940F4802040
:101550001049C8610846C06900F48020019000BFAE
:1015600000BF08150290022003900320059002A9F5
:101570000948FEF703FF4FF400600290002003903B
:101580000120049002A90448FEF7F8FE06B010BD41
:101590000048004000100240000C01402DE9F047D7
:1015A00004460D46164699464FF0000894F83980D7
:1015B000B8F1010F02D0B8F1120F69D105B116B917
:1015C0000120BDE8F08700BF94F83800012801D160
:1015D0000220F6E7012084F8380000BF0020E06315
:1015E00094F83900122803D1322084F8390002E03F
:1015F000222084F83900A685E68535E0E08D401E7E
:10160000E085A068B0F5805F18D14B46002220210C
:10161000204600F033FA08B10320D2E72F462069B4
:1016200030B920684068C0F308003880AD1C1BE06A
:1016300020684068C0B238806D1C15E04B4600221F
:101640002021204600F01AFA08B10320B9E72069EA
:1016500020B92068406805F8010B05E02068406863
:1016600000F07F0005F8010BE08D0028C6DC94F83F
:101670003900322803D1122084F8390002E0012019
:1016800084F8390000BF002084F8380000BF98E7D4
:10169000022096E700BFFEE700B585B000BF2548F1
:1016A000806940F02000234988610846806900F085
:1016B0002000009000BF00BF00BF0846806940F0D6
:1016C000040088610846806900F00400009000BFB3
:1016D00000BF00BF0846806940F0080088610846E6
:1016E000806900F00800009000BF00BF002241F6B2
:1016F000FF711148FEF7D0FF0220019000200290F8
:101700000120039001A90D48FEF738FE41F6FF7055
:101710000190012002900220049001A90648FEF7E2
:101720002DFE0748406840F400400549486005B078
:1017300000BD0000001002400008014000140140FC
:101740000000014010B50C480C4908604FF4E1302E
:101750004860002109488160C16001610C2141613C
:1017600000218161C161FFF7B0FE18B1D72104A04B
:1017700000F003FA10BD00000048004008000020FF
:101780002E2E2F5372632F6D61696E2E6300000041
:1017900000BFFEE77047000002480068C0F3022067
:1017A000704700000CED00E010B5002807DA0A07CA
:1017B000140E054A00F00F031B1FD45403E00A0760
:1017C000130E024A135410BD18ED00E000E400E0CF
:1017D0007047704710B5FEF76BFFFFF772FE10BD44
:1017E00010B590B00220069001200A9010200B90B6
:1017F00000200D9006A8FFF7F9F918B1AC2113A04D
:1018000000F0BBF90F20019000200290039004909B
:101810000590002101A8FFF711F818B1BA210BA01B
:1018200000F0ABF9FFF756F94FF47A71B0FBF1F421
:101830002046FFF72CFE0420FFF714FE002211467D
:10184000501EFEF7A9FF10B010BD00002E2E2F5322
:1018500072632F6D61696E2E63000000114800688D
:1018600040F001000F490860084640680E490840F2
:101870000C494860084600680C490840094908605E
:101880000846006820F4802008600846406820F47C
:10189000FE0048604FF41F008860C80304490860D8
:1018A00070470000001002400000FFF8FFFFF6FE46
:1018B00008ED00E02DE9F0410446002520680069AC
:1018C00020F44050E1680843216808612169A0685C
:1018D0000843616940EA01052068C06841F20C6173
:1018E000884328432168C8602068406920F440701C
:1018F000A1690843216848615F49206888425CD13A
:10190000FFF704F900EBC00101EB001061688900EA
:10191000B0FBF1F6FFF7FAF800EBC00101EB0010A5
:1019200061688900B0FBF1F06421B0FBF1F000EBDD
:10193000C00101EB0010A6EB8000322101EB00108A
:101940006421B0FBF1F000F0F006FFF7DFF800EBE8
:10195000C00101EB001061688900B0FBF1F0642167
:10196000B0FBF1F006EB0016FFF7D0F800EBC0017A
:1019700001EB001061688900B0FBF1F7FFF7C6F8D2
:1019800000EBC00101EB001061688900B0FBF1F0D1
:101990006421B0FBF1F000EBC00101EB0010A7EBFC
:1019A0008000322101EB00106421B0FBF1F000F067
:1019B0000F003044216888605BE0FFF791F800EB8E
:1019C000C00101EB001061688900B0FBF1F6FFF780
:1019D00087F800EBC00101EB001061688900B0FBE3
:1019E000F1F06421B0FBF1F000EBC00101EB00105D
:1019F000A6EB8000322101EB00106421B0FBF1F076
:101A000000F0F006FFF76CF800EBC00101EB0010EE
:101A100061688900B0FBF1F06421B0FBF1F006EBE6
:101A20000016FFF75DF800EBC00101EB00106168E4
:101A30008900B0FBF1F7FFF753F800EBC00101EBB1
:101A4000001061688900B0FBF1F06421B0FBF1F097
:101A500000EBC00101EB0010A7EB8000322101EB8D
:101A600000106421B0FBF1F000F00F003044216859
:101A70008860BDE8F0810000003801402DE9F041A8
:101A800004460E4617461D464FF00008FEF70AFEB4
:101A900080469FBB2BE0681C48B32DB1FEF702FEC9
:101AA000A0EB0800A84222D92068C06820F080007E
:101AB0002168C8602068C06820F020002168C860E4
:101AC0002068C06820F480702168C8602068406980
:101AD00020F0010021684861012084F8390000BF2E
:101AE000002084F8380000BF0320BDE8F0812068A2
:101AF00000683040B04202D1012001E003E0002044
:101B00000028C8D035E02AE0681C40B32DB1FEF7AC
:101B1000C9FDA0EB0800A84221D92068C06820F0C8
:101B200080002168C8602068C06820F0200021681B
:101B3000C8602068C06820F480702168C860206890
:101B4000406920F0010021684861012084F83900D3
:101B500000BF002084F8380000BF0320C5E72068DC
:101B600000683040B04201D1012000E00020002890
:101B7000CAD10020B9E700BFFEE700BFFEE702E0E0
:101B800008C8121F08C1002AFAD170477047002008
:101B900001E001C1121F002AFBD1704708B5FEF712
:101BA0008FFDFFF71DFEFFF777FDFFF7CBFD4FF42D
:101BB0007A70FEF7D5FBFEF721FBFEF7C8FAFEF7B9
:101BC000D8FA002500240020009021462846FEF780
:101BD00089FB4220FEF790FB3E20FEF7A7FB2EE09C
:101BE0004FF47A73012269461548FFF7D7FC30BBE2
:101BF0009DF800000A2809D1601CC4B20025282CD9
:101C000004DBFEF7A4FAFEF7B4FA002421462846C6
:101C1000FEF768FB4220FEF76FFB9DF80000FEF721
:101C200085FB681CC5B2282D09DB601CC4B20025E9
:101C30001E2C04DBFEF78BFAFEF79BFA0024CFE79D
:101C40000800002000000000000000000102030462
:101C50000607080900000000010203047C1C0008BC
:101C600000000020080000007E1B0008841C000803
:101C700008000020500400008E1B000800A24A0447
:041C80000000000060
:04000005080000ED02
:00000001FF
