:020000040800F2
:1000000090150020450100084D0100084F0100082F
:1000100051010008530100085501000800000000CC
:100020000000000000000000000000005701000870
:1000300059010008000000005B0100086D51000834
:100040005F0100085F0100085F010008493E0008E9
:100050005F0100085F0100085F0100085F01000800
:100060005F0100085F0100085F0100085F010008F0
:100070005F0100085F0100085F0100085F010008E0
:100080005F0100085F0100085F0100085F010008D0
:100090004D6600085F0100085F0100085F0100086D
:1000A0005F0100085F0100085F0100085F010008B0
:1000B0005F0100085F0100085F0100085F010008A0
:1000C0005F0100085F0100085F0100085F01000890
:1000D0005F0100085F0100085F0100085F01000880
:1000E0005F0100085F0100085F0100085F01000870
:1000F0005F0100085F0100085F0100085F01000860
:100100005F010008DD4500085F0100085F0100088D
:100110005F0100085F0100085F0100085F0100083F
:100120005F0100085F0100085F01000895030008F7
:10013000DFF80CD000F0A2F800480047796F000803
:10014000901500200648804706480047FEE7FEE776
:10015000FEE7FEE7FEE7FEE7FEE7FEE7FEE7FEE777
:10016000ED510008310100082DE9F05F054600203F
:1001700092469B4688460646814640241BE0284618
:1001800041464746224600F020F853465A46C01AD8
:10019000914110D311461846224600F060F82D1AFE
:1001A00067EB01084F4622460120002100F057F876
:1001B00017EB00094E41201EA4F10104DFDC484684
:1001C00031462A464346BDE8F09F202A04DB203A08
:1001D00021FA02F00021704721FA02F3D040C2F167
:1001E0002002914008431946704740EA01039B07EB
:1001F00003D009E008C9121F08C0042AFAD203E09C
:1002000011F8013B00F8013B521EF9D27047D2B2FF
:1002100001E000F8012B491EFBD270470022F6E7EF
:1002200010B513460A4604461946FFF7F0FF20466C
:1002300010BD30B50B46014600202022012409E004
:1002400021FA02F59D4205D303FA02F5491B04FA8F
:1002500002F52844151EA2F10102F1DC30BD202A6E
:1002600004DB203A00FA02F1002070479140C2F10D
:10027000200320FA03F3194390407047064C074DC2
:1002800006E0E06840F0010394E807009847103466
:10029000AC42F6D3FFF750FFC8730008E8730008BC
:1002A00070B58C1810F8015B15F0070301D110F838
:1002B000013B2A1106D110F8012B03E010F8016B65
:1002C00001F8016B5B1EF9D12B0705D40023521EE8
:1002D0000DD401F8013BFAE710F8013BCB1A921C50
:1002E00003E013F8015B01F8015B521EF9D5A1424E
:1002F000D8D3002070BD00000146014802F021BAA9
:1003000040010020014802F00FBA00004001002027
:1003100010B500F019F8012801D0012010BD0849DE
:10032000084802F0A9FB08B1012010BD4FF400619C
:10033000044802F025FD08B1012010BD002010BDC9
:10034000280200204001002008B5012000909DF8FF
:10035000000008BD7CB5DDE90654CDE90054014636
:10036000034802F025FC08B101207CBD00207CBDC3
:10037000400100207CB5DDE90654CDE9005401467A
:10038000034802F049FE08B101207CBD00207CBD7D
:1003900040010020014800F00DB90000800200205B
:1003A00010B5046863604368102B04D0036899603B
:1003B0000068C26010BD03689A600068C16010BD2B
:1003C000002200F001B8000030B5044601200D4BBA
:1003D0005D7A012D15D8587A00251D54587A03EB03
:1003E000800044605C7A03F108002254587A421C71
:1003F0005A72303008703A2048702F208870CD70C3
:10040000002030BD6C0D00200148008870470000BE
:10041000000002604FF0C041088070470149088029
:10042000704700000000026000B50A46FFF7F2FFC7
:1004300010465DF804EBFFF7F1BF000070B5B3F5AF
:10044000804F05D06FF0704140F82210002070BD41
:100450008C690B68F025234395FAA5F54C68B5FA2D
:1004600085F5AC404FF47F4696FAA6F68D68B6FA4D
:1004700086F6B5402C4323434FF47024C96894FAA0
:10048000A4F4B4FA84F4A1400B4350F82210034CB6
:1004900021400B4340F82230D8E700000000F0CFA5
:1004A00030B50A6850F8223023F0010340F82230BA
:1004B0008A68214C082A1ED04B681343D1E90325D2
:1004C0002A4313434A6913438A691343CA6913438E
:1004D0000A6A13434A6A13438A6A1343CA6A134374
:1004E0000A6B0968134350F821202240134340F857
:1004F0002130002030BDD1E903354A682B4342F05A
:1005000008021A434B691A438B691A43CB691A4391
:100510000B6A1A434B6A1A438B6A1A43CB6A1A4313
:100520000B6B09681A4350F8213023401A4342F0FC
:10053000400240F82120DCE78100F7FF70B5F0258C
:10054000D1E9003495FAA5F5B5FA85F5AC40234319
:100550004FF47F4595FAA5F58C68B5FA85F5AC4062
:100560004FF4702696FAA6F6CD68B6FA86F6B54030
:100570002C4323430C694FF4700595FAA5F5641ECE
:10058000B5FA85F5AC4023434C694FF0706595FA98
:10059000A5F5A41EB5FA85F5AC40896923430B4344
:1005A000521C50F8221001F040410B4340F8223019
:1005B000002070BD2DE9F05F0446F94AF84DF84E71
:1005C000F74FD114DFF8D883DFF8D493DFF8D0A346
:1005D00020680B02783D643E503FDFF8C8B34FF40B
:1005E000004EA8F13C08A9F12809AAF1140A90428A
:1005F00036D9EC4A083AD2F800C0A84201D1082204
:100600002BE0B04201D1802227E0B84201D10A4656
:1006100023E0404501D172461FE0484501D11A460A
:100620001BE0504502D14FF4000216E0584501D1BD
:10063000082212E0DB4A1432904201D180220CE001
:10064000D84A2832904201D10A4606E0D54A3C32C7
:10065000904201D1724600E01A460CEA020C3AE0E0
:10066000CF4A803AD2F800C0A84201D1082230E037
:10067000B04201D180222CE0B84201D10A4628E0E4
:10068000404501D1724624E0484501D11A4620E098
:10069000504502D14FF400021BE0C14A904201D103
:1006A000020516E0584501D1082212E0BD4A143275
:1006B000904201D180220CE0BA4A2832904201D106
:1006C0000A4606E0B74A3C32904201D1724600E049
:1006D0001A460CEA020CBCF1000F7FD00268D2432C
:1006E00012077BD4026822F008020260AC4A20683C
:1006F00090422FD9A84201D1082127E0B04201D170
:10070000802123E0B84221D0404501D171461DE04F
:10071000484501D1194619E0504502D14FF4000176
:1007200014E0584501D1082110E09E4A143290424D
:1007300001D180210AE09B4A2832904206D0994993
:100740003C31884201D1714600E019469548001FAE
:10075000016033E0A84201D108212CE0B04201D170
:10076000802128E0B84226D0404501D1714622E0E0
:10077000484501D119461EE0504502D14FF4000111
:1007800019E0904202D14FF0006114E0584501D1C8
:10079000082110E0834A1432904201D180210AE0FE
:1007A000804A2832904206D07E493C31884201D1AD
:1007B000714600E019467A4880384160606B40F02D
:1007C00001006063042084F82100002084F82000E8
:1007D000216B09B1204600E000E08847704A20689C
:1007E00011150B014FF4802E904236D96D4A083A0C
:1007F000D2F800C0A84201D104222BE0B04201D1BE
:10080000402227E0B84201D10A4623E0404501D109
:100810001A461FE0484501D172461BE0504502D1FF
:100820004FF4800216E0584501D1042212E05D4ADF
:100830001432904201D140220CE05A4A28329042B0
:1008400001D10A4606E0574A3C32904201D11A468D
:1008500000E072460CEA020C3AE0514A803AD2F8C3
:1008600000C0A84201D1042230E0B04201D14022B0
:100870002CE0B84201D10A4628E0404501D11A4691
:1008800024E0484501D1724620E0504502D14FF4A2
:1008900080021BE0424A904201D1C20416E0584552
:1008A00001D1042212E03F4A1432904201D1402289
:1008B0000CE03C4A2832904201D10A4606E0394A0F
:1008C0003C32904201D11A4600E072460CEA020C1A
:1008D000BCF1000F7CD00268D243520778D4026882
:1008E000920603D4026822F0040202602C4A2068B7
:1008F00090422FD9A84201D1042127E0B04201D172
:10090000402123E0B84221D0404501D119461DE0E5
:10091000484501D1714619E0504502D14FF480019C
:1009200014E0584501D1042110E01E4A14329042CF
:1009300001D140210AE01B4A2832904206D01949D1
:100940003C31884201D1194600E071461548001F2C
:10095000016036E0A84201D1042130E0B04201D16B
:1009600040212CE0B8422AD0404501D1194626E06A
:10097000484501D1714622E0504502D14FF4800133
:100980001DE0904202D14FF0806118E0584501D13E
:10099000042114E0034A1432904206D140210EE0B3
:1009A000800002400804024012E08C4A904206D0C7
:1009B0008A491431884201D1194600E071468848BD
:1009C0004160112084F82100E16A09B1204688477E
:1009D000DFF80CC24FF4007120680CF1800C0B01A1
:1009E000604537D97D4A303AD2F800E0A84201D1BB
:1009F00002222CE0B04201D1202228E0B84201D1ED
:100A00000A4624E0404501D11A4620E0484502D17B
:100A10004FF400321BE0504502D14FF4001216E0B3
:100A2000584501D1022212E06C4A143A904201D199
:100A300020220CE0694A904201D10A4607E0674A49
:100A40001432904201D11A4601E04FF400320EEA0E
:100A5000020E3AE0624AD2F800E0A84201D1022236
:100A600031E0B04201D120222DE0B84201D10A4646
:100A700029E0404501D11A4625E0484502D14FF40E
:100A8000003220E0504502D14FF400121BE06045D7
:100A900002D14FF0007216E0584501D1022212E057
:100AA0004E4A143A904201D120220CE04B4A904227
:100AB00001D10A4607E0494A1432904201D11A4650
:100AC00001E04FF400320EEA020EBEF1000F6ED0CC
:100AD0000268D24392077ED40268920603D4026869
:100AE00022F0020202602068604530D9A84201D19C
:100AF000022128E0B04201D1202124E0B84222D0D6
:100B0000404501D119461EE0484502D14FF400315D
:100B100019E0504502D14FF4001114E0584501D1BD
:100B2000022110E02D4A143A904201D120210AE01E
:100B30002A4A904207D029491431884201D11946E6
:100B400001E04FF4003125482C38016034E0A84220
:100B500001D102212EE0B04201D120212AE0B84289
:100B600028D0404501D1194624E0484502D14FF430
:100B700000311FE0504502D14FF400111AE06045EA
:100B800002D14FF0007115E0584501D1022111E06A
:100B9000124A143A904201D120210BE00F4A9042B0
:100BA00008D00E491431884202D1194602E012E001
:100BB0004FF400310A484160606B6063012084F8A3
:100BC0002100002084F82000A16A002903D02046DB
:100BD000BDE8F05F0847BDE8F09F00003004024028
:100BE0000000024070B5002804D090F821100024C5
:100BF00011B103E0012070BD80F82040022180F88F
:100C0000211001680A6843F6F0739A43D0E9013570
:100C10002B43D0E9035635432B4345692B43856964
:100C20002B43C5692B4313430B604463012180F8B8
:100C30002110002070BD70B5044694F820000128F2
:100C400023D0012084F82000022084F821002068AD
:100C5000056825F0010505602046FFF7A1FB206827
:100C6000016841F0020101602068016841F004015F
:100C700001602068016841F0080101602068016896
:100C800041F001010160002070BD022070BD31B54E
:100C900000F048F9044600F045F90099001B88422D
:100CA000F9D338BD30B585B01248016800291ED18E
:100CB000012101601048416941F48071416140693E
:100CC00000F4807000904FF680700190022502952C
:100CD0000324049401A9094800F014F84CF6B370F9
:100CE00001900295049401A9054800F00BF805B0A5
:100CF00030BD000004000020001002400018014038
:100D0000001401402DE9F84F00230024DFF8DC91A6
:100D10004FF00F0809F1040A0AF1040B0BF1040E5D
:100D20000127A7400A683A40BA4275D1DFF8C0C12E
:100D30004D68A5EB0C0665452BD00DDC032D34D09A
:100D400005DC35B3012D19D0022D2FD11BE0112D5B
:100D500016D0122D2AD119E0B6F5881F19D006DC5D
:100D6000B6F5803F15D0B6F5801F1FD111E0B6F55E
:100D7000001F0ED0B6F5041F18D10AE0CB6815E0AD
:100D8000CB681B1D12E0CB6808330FE0CB680C3337
:100D90000CE08B6823B1012B04D00823476105E0E8
:100DA000042303E00823076100E00023FF2A01D8A1
:100DB000054601E000F1040502D84FEA840603E08D
:100DC000A4F108064FEA86062F6808FA06FC27EA0F
:100DD0000C0703FA06F647EA06072F604D68ED0098
:100DE0007ED5444DAE6946F00106AE61AD6905F0B1
:100DF00001050095404D24F003067719BE68A5074C
:100E00002D0F08FA05FC26EA0C06DFF8F0C0604555
:100E100003D14FF0000C25E062E0DFF8E4C060454C
:100E200002D14FF0010C1DE0DFF8D8C0604502D1BF
:100E30004FF0020C16E0DFF8D0C0604502D14FF051
:100E4000030C0FE0DFF8C4C0604502D14FF0040C82
:100E500008E0DFF8BCC0604502D14FF0050C01E0AE
:100E60004FF0060C0CFA05FC4CEA060CC7F808C05B
:100E70004D68ED0305D5D9F800501543C9F8005069
:100E800004E0D9F800509543C9F800504D68AD030F
:100E900005D5DAF800501543CAF8005004E0DAF836
:100EA00000509543CAF800504D68ED0205D5DBF8B7
:100EB00000501543CBF8005004E0DBF80050954398
:100EC000CBF800504D68AD0205D5DEF80050154353
:100ED000CEF8005004E0DEF800509543CEF8005004
:100EE000641C102CFFF41CAFBDE8F88F0004014017
:100EF00000001110001002400000014000080140F5
:100F0000000C014000100140001401400018014095
:100F1000001C0140002A01D00161704709040161F1
:100F20007047000001480068704700000000002082
:100F300002480168491C0160704700000000002061
:100F400010B50748016841F010010160032000F06E
:100F500075F8022000F006F800F016F8002010BD29
:100F60000020024010B5044600F086FD4FF47A726E
:100F7000B0FBF2F002F01DF900222146501E00F0F5
:100F80003DF8002010BD000008B51548816941F00A
:100F900001018161806900F001000090032000F0F0
:100FA0004DF8002211466FF00B0000F027F80022E8
:100FB00011466FF00A0000F021F8002211466FF090
:100FC000090000F01BF800221146101F00F016F86F
:100FD00000220221BDE80840C81E00F00FB8000042
:100FE0000010024000F01F020121914040098000E2
:100FF00000F1E020C0F8001170470000F0B40D4689
:101000000D4B1B68C3F30223C3F10704042C00D962
:101010000424191D072901D2002300E0DB1E01264C
:1010200006FA04F1491E294099409E40761E16405A
:101030003143F0BC02F0A0BC0CED00E000F0070171
:10104000054A10684FF6FF03184040EA01200349A3
:1010500008431060704700000CED00E00000FA0546
:1010600010B50C0605D501F07F0100EB41102830CA
:1010700003E000EB411000F5027099B232B1012299
:101080008272C180190C0181002010BD0022827281
:101090008180F9E7704700EB4112D0F81C04D26B55
:1010A00004F049BB00EB4112D0F81C04D2F81C221A
:1010B00004F09EBB10B50446084600F07F0203060C
:1010C00004EB421101D5283101E001F502710A70EB
:1010D000C009487094F8E803012809D0012084F879
:1010E000E803206805F086F8002084F8E80310BDC6
:1010F000022010BD70B504460846010600F07F02CC
:1011000003D504EB4211283103E004EB401101F553
:10111000027100258D700A70C009487094F8E803C8
:10112000012809D0012084F8E803206805F014F9AB
:1011300084F8E853002070BD022070BD10B504464D
:1011400094F8E80301280AD0012084F8E80308068F
:1011500007D501F07F01206805F075FA04E0022050
:1011600010BD206805F06DFA002084F8E80310BD7A
:1011700001F07F0100EB4110B0F8240280B270470B
:1011800070B50446084600F07F05060604EB4511DD
:1011900001D5283101E001F502710D70C0094870D8
:1011A0000A61CB7094F8E803012809D0012084F883
:1011B000E803206804F0D0FE002084F8E80370BD46
:1011C000022070BD70B504460D4605F07F0004EBAB
:1011D000401101F502714A618B610026CE614E70AB
:1011E000087094F8E80301280BD0012084F8E80384
:1011F000680608D0206805F017F984F8E863002035
:1012000070BD022070BD206805F00EF9F5E770B5DD
:1012100004460D46290605F07F0003D504EB401176
:10122000283103E004EB451101F5027101228A70B7
:101230000870E809487094F8E803012807D084F89A
:10124000E823206805F0C6F8680602D006E0022010
:1012500070BD04F57B71206805F07CF8002084F8EF
:10126000E80370BD70B504460D4605F07F0004EB41
:10127000401128314A618B610026CE6101224A70FB
:10128000087094F8E80301280AD084F8E823680677
:1012900008D0206805F0C8F884F8E863002070BD25
:1012A000022070BD206805F0BFF8F5E710B50446D0
:1012B000206805F0D1F9000402D5204602F06CFB4D
:1012C000206805F0C9F940050CD5206830F8441FA6
:1012D00021F480610180204600F0E8F800212046DA
:1012E00000F0F9F8206805F0B7F9400405D520684A
:1012F00030F8441F21F480410180206805F0ACF9EA
:10130000800405D5206830F8441F21F40051018085
:10131000206805F0A1F9C00413D5206830F8401FFB
:1013200021F0040101804FF43D402168A1F8400004
:10133000204600F0C8F8206830F8441F21F480519E
:101340000180206805F088F900051AD5206830F87A
:10135000441F21F400610180206830F8401F41F0F3
:1013600008010180206830F8401F41F0040101802D
:10137000206805F071F9C043C00402D5204600F092
:10138000DFF8206805F068F9800508D5206830F896
:10139000441F21F400710180204600F098F8206875
:1013A00005F05AF9C00505D5206830F8441F21F42E
:1013B0008071018010BD2DE9F04186B00446002502
:1013C000002C04D094F8E903002620B108E00120A5
:1013D00006B0BDE8F08184F8E863204600F048F8E4
:1013E000032084F8E903206804F0ADFF04F1100144
:1013F000142288466846FEF7F8FE94E80F0004F0D1
:10140000F7FE0021206805F03AF9012704EB4510AA
:101410002830477005708581C67006614661866117
:101420006D1C0F2DF2D3002104EB411080F80962EE
:1014300080F80812818680F80B62C0F81862C0F844
:101440001C62C0F82062491C0F29EDD314224146CA
:101450006846FEF7CAFE94E80F0004F06BFF84F8BC
:10146000246084F8E973206804F062FF0020AFE78D
:1014700008B500680B49884212D10B48C16941F494
:101480000001C161C06900F4000000900022114613
:101490001420FFF7B3FDBDE808401420FFF7A2BDFC
:1014A00008BD0000005C00400010024010B504467A
:1014B0000121D4F81C0404F062FAD4F81C04BDE83D
:1014C000104004F02ABAD0F81C0404F046BAD0F850
:1014D0001C0404F048BA10B5044694F8E803012847
:1014E0000BD0012084F8E80384F82410206805F06C
:1014F000C8F8002084F8E80310BD022010BDD0F821
:101500001C2400F57B71104604F043BA10B5044664
:1015100094F8E803012810D0012084F8E8030121A1
:101520002046FFF7B7FD206804F000FF206805F0B3
:1015300081F8002084F8E80310BD022010BD0000EF
:1015400010B50446D4F81C0404F05EFAA069002823
:1015500004D00348016841F00601016010BD00009D
:1015600010ED00E00120010291FAA1F1024AB1FA66
:1015700081F142F82100704700000E4210B586B09C
:1015800001463CA090E81C00C068CDE903340292FB
:1015900005903CA00068019000203B4C042946D0F7
:1015A00015DC01294DD002290FD100F095FA6168B0
:1015B0004FF4804292FAA2F201F44041B2FA82F270
:1015C000D140491C4900B0FBF1F006B010BD08291C
:1015D00032D01029F9D161682268D201F5D54FF4D3
:1015E000701292FAA2F201F47010B2FA82F2D040B4
:1015F00002AA105CC90310D561684FF4003292FA58
:10160000A2F201F40031B2FA82F2D14001AA515C97
:101610001E4AB2FBF1F1484301E01D4948436168AD
:101620004902D2D440000321B0FBF1F0CDE706B06F
:10163000BDE8104000F066BA06B0BDE8104000F00A
:1016400061BA216AC1F30122012A03D1890701D5B8
:10165000D003BAE7022A05D1616A890702D549F6A3
:101660004040B2E7032AB0D121688903ADD54FF2DB
:101670002440AAE702030405060708090A0B0C0D1B
:101680000E0F1010010200000010024000127A003C
:1016900000093D002DE9F8430446464F2078C00775
:1016A00074D0F86940F08050F861F86900F080501B
:1016B0000090414D286840F480702860FFF732FCAC
:1016C000064607E0FFF72EFC801B642802D90320A2
:1016D000BDE8F8832868C005F4D5386AA18800F40D
:1016E000407001F44071884250D0386A20F4407054
:1016F0004FF4803292FAA2F1B1FA81F18B002F49B6
:101700004FF001080B44C3F8008492FAA2F2B2FA37
:1017100082F201EB82010023C1F8003438628007B5
:101720002ED5FFF7FFFB064641F28839022506E079
:10173000FFF7F8FB801B484501D90320C8E795FA5D
:10174000A5F0B0FA80F040F040014046B8EB511FE0
:1017500001D139680BE095FAA5F1B1FA81F141F0B8
:101760004001B5EB511F01D1396A00E0796A95FA61
:10177000A5F2B2FA82F202F01F0290400142D7D0E5
:10178000386A616820F44070084338622078800726
:1017900005D57868A16820F4404008437860207837
:1017A000C00605D57868616920F480000843786038
:1017B00000208DE70010024000700040000042420F
:1017C0002DE9F04704460F46DFF8A492D9F800004F
:1017D000A84D00F007010120430446064FF0020C1B
:1017E00041F28838B9426FD2D9F8001021F00701D0
:1017F0003943C9F80010D9F8001001F00701B942C7
:1018000001D0BDE8F0872178890705D56968A2680D
:1018100021F0F001114369602178C90761D0616846
:1018200001290BD002291FD09CFAACF2B2FA82F245
:1018300042F0200252092DD02A682CE093FAA3F23C
:10184000B2FA82F242F02002520901D02A6800E086
:101850006A6A93FAA3F3B3FA83F303F01F03984081
:10186000024223D10120CCE796FAA6F2B2FA82F224
:1018700042F02002520901D02A6800E06A6A96FA12
:10188000A6F3B3FA83F303F01F03984002420DD18D
:101890000120B6E76A6A9CFAACF3B3FA83F303F06B
:1018A0001F039840024201D10120AAE7686820F096
:1018B000030008436860FFF735FB064660680128AF
:1018C0000AD0022815D021E025E0FFF72BFB801B72
:1018D000404501D9032094E76868C0F381000128DE
:1018E000F3D1ADE0FFF71EFB801B404501D903207B
:1018F00087E76868C0F381000228F3D1A0E0FFF712
:1019000011FB801B404501D903207AE7686810F07D
:101910000C0FF4D194E02178890705D56968A26895
:1019200021F0F001114369602178C90779D061681D
:1019300001290BD002291FD09CFAACF2B2FA82F234
:1019400042F0200252092DD02A682CE093FAA3F22B
:10195000B2FA82F242F02002520901D02A6800E075
:101960006A6A93FAA3F3B3FA83F303F01F03984070
:10197000024223D1012044E796FAA6F2B2FA82F29B
:1019800042F02002520901D02A6800E06A6A96FA01
:10199000A6F3B3FA83F303F01F03984002420DD17C
:1019A00001202EE76A6A9CFAACF3B3FA83F303F0E2
:1019B0001F039840024201D1012022E7686820F00D
:1019C000030008436860FFF7ADFA06466068012827
:1019D00009D0022814D020E0FFF7A4FA801B40456C
:1019E00001D903200DE76868C0F381000128F3D115
:1019F00017E0FFF797FA801B404501D9032000E765
:101A00006868C0F381000228F3D10AE0FFF78AFA80
:101A1000801B404501D90320F3E6686810F00C0FE5
:101A2000F4D1D9F8000020F007003843C9F80000CD
:101A3000D9F8000000F00700B84201D00120E0E62C
:101A40002078400705D56868E16820F4E060084325
:101A500068602078000706D56868216920F4605026
:101A600040EAC10068600220FFF77CFA0020C8E667
:101A7000002002400010024000B500F043F8084981
:101A80004968F02292FAA2F201F0F001B2FA82F271
:101A9000D140044A515CC8400349086000BD0000C1
:101AA000001002408A7100087400002000B5FFF7A2
:101AB000E3FF074949684FF4E06292FAA2F201F4A9
:101AC000E061B2FA82F2D140024A515CC84000BDE6
:101AD000001002408A71000800B5FFF7CDFF0749EA
:101AE00049684FF4605292FAA2F201F46051B2FADE
:101AF00082F2D140024A515CC84000BD0010024051
:101B00008A71000810B585B01AA0D0E90031D0E97B
:101B10000220CDE90131CDE903201AA00068009030
:101B2000194B5968194801F00C02042A1DD0082AE3
:101B30001BD14FF4701494FAA4F401F47012B4FAA7
:101B400084F4E24001ACA25CC90310D559684FF49B
:101B5000003393FAA3F301F40031B3FA83F3D940CD
:101B60001DF80110B0FBF1F0504305B010BD08485E
:101B70005043FAE702030405060708090A0B0C0D97
:101B80000E0F1010010200000010024000127A0037
:101B900000093D002DE9F84F0446F94D20784FF03B
:101BA0000106C00775D068687704C0F3810001287A
:101BB00007D06868C0F3810002281DD16868C0039F
:101BC0001AD597FAA7F0B0FA80F040F0200040094B
:101BD00001D0286800E0686A97FAA7F1B1FA81F1AC
:101BE00001F01F0206FA02F1084252D06068002894
:101BF0004FD10120BDE8F88F286820F4803028609C
:101C0000286820F480202860FFF78CF9804607E0E0
:101C1000FFF788F9A0EB0800642801D90320E9E761
:101C200097FAA7F0B0FA80F040F02000400901D008
:101C3000286800E0686A97FAA7F1B1FA81F101F02B
:101C40001F0106FA01F10842E2D16068B0F5803F59
:101C500011D0A8B1B0F5A02F1CD0286820F4803096
:101C60002860286820F4802028606068C8B3FFF7E7
:101C700059F980461FE0286840F480302860F4E776
:101C8000286820F480302860286820F480202860AC
:101C9000EBE748E0286840F480202860286840F49A
:101CA00080302860E1E7FFF73DF9A0EB08006428E9
:101CB00001D903209EE797FAA7F0B0FA80F040F030
:101CC0002000400901D0286800E0686A97FAA7F16F
:101CD000B1FA81F101F01F0106FA01F10842E2D0E8
:101CE00021E0FFE7FFF71EF9804607E0FFF71AF94A
:101CF000A0EB0800642801D903207BE797FAA7F03E
:101D0000B0FA80F040F02000400901D0286800E0DF
:101D1000686A97FAA7F1B1FA81F101F01F0106FA9A
:101D200001F10842E2D12078DFF8588280074FF0B5
:101D3000000B4FF0020732D568684FF0F80A10F038
:101D40000C0F07D06868C0F38100022828D16868AA
:101D5000C00325D497FAA7F0B0FA80F040F0200035
:101D6000400901D0286800E0686A97FAA7F1B1FA43
:101D700081F101F01F0106FA01F1084204D0206947
:101D8000012801D0012035E728689AFAAAF2616992
:101D9000B2FA82F220F0F8009140084328605CE03B
:101DA000206990B396FAA6F0B0FA80F048F8206067
:101DB000FFF7B8F8814607E0FFF7B4F8A0EB090099
:101DC000022801D9032015E797FAA7F0B0FA80F0AE
:101DD00040F02000400901D0286800E0686A97FAC6
:101DE000A7F1B1FA81F101F01F0106FA01F10842F1
:101DF000E2D028689AFAAAF26169B2FA82F220F077
:101E0000F80091400843286027E0FFE796FAA6F023
:101E1000B0FA80F048F820B0FFF784F8814607E078
:101E2000FFF780F8A0EB0900022801D90320E1E6C2
:101E300097FAA7F0B0FA80F040F02000400901D0F6
:101E4000286800E0686A97FAA7F1B1FA81F101F019
:101E50001F0106FA01F10842E2D12078000770D58F
:101E6000A069C0B396FAA6F0B0FA80F008EB800043
:101E7000C0F88064FFF756F8814607E0FFF752F894
:101E8000A0EB0900022801D90320B3E697FAA7F0D6
:101E9000B0FA80F040F06000B6EB501F01D1286826
:101EA0000BE097FAA7F0B0FA80F040F06000B7EBD3
:101EB000501F01D1286A00E0686A97FAA7F1B1FAC9
:101EC00081F101F01F0206FA02F10842D6D001208A
:101ED000FEF7DDFE35E0FFE796FAA6F0B0FA80F0F7
:101EE00008EB8000C0F880B4FFF71CF8814607E0DB
:101EF000FFF718F8A0EB0900022801D9032079E6C2
:101F000097FAA7F0B0FA80F040F06000B6EB501FEF
:101F100001D128680BE097FAA7F0B0FA80F040F002
:101F20006000B7EB501F01D1286A00E0686A97FA99
:101F3000A7F1B1FA81F101F01F0206FA02F108429D
:101F4000D6D12078400770D5E86940F08050E8612C
:101F5000E86900F080500090DFF82CA0DAF800006B
:101F600040F48070CAF80000FEF7DCFF81460DE007
:101F7000FEF7D8FFA0EB0900642807D9032039E653
:101F8000001002400000424200700040DAF80000F9
:101F9000C005EDD5286A20F001002862286A20F0EB
:101FA00004002862FEF7BEFF814641F2883A07E04E
:101FB000FEF7B8FFA0EB0900504501D9032019E650
:101FC00097FAA7F0B0FA80F040F04000B6EB501F4F
:101FD00001D128680BE097FAA7F0B0FA80F040F042
:101FE0004000B7EB501F01D1286A00E0686A97FAF9
:101FF000A7F1B1FA81F101F01F0106FA01F10842DF
:10200000D6D1E068012811D0A8B105281CD0286AD3
:1020100020F001002862286A20F004002862E068AD
:10202000C8B3FEF77FFF81461FE06EE0286A40F0EC
:1020300001002862F3E7286A20F001002862286A7C
:1020400020F004002862EAE7286A40F004002862D1
:10205000286A40F001002862E1E7FEF763FFA0EB89
:102060000900504501D90320C4E597FAA7F0B0FA5A
:1020700080F040F04000B6EB501F01D128680CE022
:1020800097FAA7F0B0FA80F040F04000B7EB501F8D
:1020900002D1286A01E00BE0686A97FAA7F1B1FA69
:1020A00081F101F01F0206FA02F10842D5D02CE0BE
:1020B000FEF738FF814607E0FEF734FFA0EB09008A
:1020C000504501D9032095E597FAA7F0B0FA80F0C2
:1020D00040F04000B6EB501F01D128680BE097FAA2
:1020E000A7F0B0FA80F040F04000B7EB501F01D1EC
:1020F000286A00E0686A97FAA7F1B1FA81F101F065
:102100001F0206FA02F10842D6D1E06980B369687D
:10211000C1F38101022970D04FF080794FF0007730
:10212000022809D099FAA9F0B0FA80F048F820B056
:10213000FEF7F8FE044668E099FAA9F0B0FA80F0DC
:1021400048F820B0FEF7EEFE824607E0FEF7EAFE12
:10215000A0EB0A00022801D903204BE597FAA7F06B
:10216000B0FA80F040F02000400902D0286801E079
:1021700060E0686A97FAA7F1B1FA81F101F01F01F6
:1021800006FA01F10842E1D1206AB0F5803F05D19D
:102190006868A16820F4003008436860D4E9080149
:1021A0000843696821F474110843686099FAA9F03A
:1021B000B0FA80F048F82060FEF7B4FE044606E06E
:1021C000FEF7B0FE001B022801D9032012E597FAA2
:1021D000A7F0B0FA80F040F02000400901D0296853
:1021E00000E0696A97FAA7F0B0FA80F000F01F00EB
:1021F00006FA00F00142E3D01CE01DE0FEF792FE7B
:10220000001B022801D90320F4E497FAA7F0B0FAE2
:1022100080F040F02000400901D0296800E0696AA0
:1022200097FAA7F0B0FA80F000F01F0006FA00F06D
:102230000142E3D10020DDE40120DBE4024800EBB1
:102240008100006880B27047006C0040024800EBDB
:10225000810091B201607047006C004070B5054686
:1022600000221249284600F05BF810490022083984
:10227000284600F07EF80D4CA4F10802A1785068C1
:10228000814211D05160627802212846FFF7DEFFBB
:10229000A27803212846FFF7D9FFE2782846BDE857
:1022A00070400421FFF7D2BF70BD00001400002071
:1022B000FEE710B5044620680168C90718D04168D8
:1022C000C90715D04068400709D52046FFF7F0FF41
:1022D00021686FF0040048600420607404E0204628
:1022E000FFF7BCFF0120607421686FF001004860B7
:1022F00010BD002810D0017C01290FD001220274EA
:102300000221417401680B6843F001030B604274C1
:10231000002101740020704701207047022070479F
:10232000F8B505460C46164600200090002D08D052
:102330003CB100226946284600F01BF818B1012084
:10234000F8BD0120F8BD287B2070E87BE070697B38
:102350006170A97BA17056B101F0DFFCE07060787C
:1023600001F0DBFC6070A07801F0D7FCA0700020C9
:10237000F8BD2DE9F04780460C469146B8F1000FB4
:1023800008D03CB1D8F800004068400704D50120CF
:10239000BDE8F0870120FBE7404601F079FD0546E6
:1023A0004FF46161B5FBF1F001FB10523C23B2FB2D
:1023B000F3F1617003FB1121A170182834D31821A7
:1023C000B0FBF1F701FB17002070404601F059FD0A
:1023D000411C03D0A84201D9461B01E04FF0FF3653
:1023E000A7EB071000EB4000C0EB001005EBC01599
:1023F0002946404601F0A3FD08B10120C8E7701C42
:1024000006D07119404601F083FD40B10120BFE7BD
:102410003146404601F07CFD08B10120B8E739465D
:10242000404601F085FC00E02070B9F1000F0BD0B0
:10243000207801F072FC2070607801F06EFC607012
:10244000A07801F06AFCA0700020A1E770B50446F6
:10245000002C03D0607C002610B105E0012070BD87
:102460002674204600F04CF802206074204600F0EC
:102470003BF9042510B16574012070BD204601F0C0
:10248000AEFC10B16574012070BD2068416821F078
:1024900007014160A06820B11848016821F00101DE
:1024A00001601648001F0168A26821F460711143A1
:1024B00001606068411C04D10120FFF75FF898B10A
:1024C000401E21688A6822F00F0242EA10428A60A8
:1024D0002168CA6860F30F02CA60204601F099FCC7
:1024E00028B16574012070BD6574012070BDE6736C
:1024F00001206073A0736074002070BD306C0040D8
:1025000008B5134A0168914221D1FFF7F2FEFFF7A7
:1025100029F81048C16941F00061C161C06900F04B
:10252000006000900120C10391FAA1F10A4AB1FABA
:1025300081F102EB8101C1F8000400221146032061
:10254000FEF75CFDBDE808400320FEF74BBD08BD6B
:102550000028004000100240000042422DE9F041F6
:1025600004460D46002C3FD0E5B3207C01283DD029
:102570000126267402206074AAB3E87801F0C4FB37
:10258000E073687801F0C0FB6073A87801F0BCFBD1
:10259000A073A27B617BE07B01F08AFC2073287032
:1025A000204601F075FC4FF46161B0FBF1F10025AC
:1025B000182936D91822B1FBF2F1A1EB011101EB78
:1025C0004101C1EB011100EBC1173946204601F072
:1025D000B6FC4FF0040890B184F8118025740120F6
:1025E000BDE8F08100E003E00120F9E70220F7E711
:1025F000E878E07368786073A878A073C9E720462C
:1026000001F03FFC411C0CD0B8420AD207490144FA
:10261000204601F07DFC20B184F811802574012052
:10262000DEE7667425740020DAE7000080510100BF
:102630002DE9F04104460D46002C28D03DB3207C06
:10264000012826D001262674022060741AB3287847
:1026500001F05AFB4FF4616100FB01F7687801F06B
:1026600053FBC0EB001007EB8007A87801F04CFB90
:102670003D182946204601F062FC00274FF004086F
:10268000A8B184F8118027740120BDE8F0810120F1
:10269000FBE70220F9E729784FF46160414368784D
:1026A000C0EB001001EB8000A9784518E1E7206835
:1026B000416821F005014160204601F0E2FB411C28
:1026C0000CD0A8420AD207490144204601F020FC60
:1026D00020B184F8118027740120D6E7667427742E
:1026E0000020D2E78051010070B50446002C0AD0CA
:1026F0002068416821F008014160FEF713FC05469F
:102700004FF47A7608E0012070BDFEF70BFC401B09
:10271000B04201D9032070BD206840680007F4D59D
:10272000002070BD7047704710B502F069F90428A9
:1027300003D0FF2803D0012010BD002010BD0220CF
:1027400010BD2DE9F047002790F8202081F8562091
:10275000828CA1F85420826A120E93090B70C2F386
:1027600083034B7002F003028A70826A120CCA70F3
:10277000028D120A0A7190F828204A71C26A120E5C
:102780004FF6FF7909EA0212CA80C26AC2F3074211
:10279000CB8843EA1213CB8002F00F020A72828DBB
:1027A000C2F30722D3094B72C2F380138B72C2F3B8
:1027B0004013CB72C2F300130B7300244C73036AF3
:1027C0004FF00108002B7ED0012BFCD0022B7BD0D8
:1027D0002927C2F380134B769206520E8A761C315B
:1027E00010F8302F11F8023D43EAD2130B7002F0BB
:1027F0007F024A704268120ED3098B70C2F34113F4
:10280000CB70C2F382030B719207120F4A714268B8
:10281000C2F307424B7943EA92134B71C2F3401360
:1028200001F8063F4C7002F001028A708288C2F300
:102830000722D309CB70C2F380130B71C2F340138C
:102840004B71C2F300138B71C2F38103CB7102F0A1
:1028500003020A72027952084A7281F80A80826879
:10286000120E0A738268120C09EA0222CA810289D6
:10287000C2F30722CB891343CB81027A12060A6185
:10288000C268120E0B6943EA02420A61C268C2F3CF
:1028900007420B6943EA02220A618289C2F30722D6
:1028A0000B6913430B61027B0A750269120E4A75AC
:1028B0000269120C12068A61028AC2F307228B692E
:1028C00043EA024201E024E066E08A61027C8B690F
:1028D00043EA02228A614269120E8B6913438B61BB
:1028E0004269C2F307420B7F43EA12130B771207C8
:1028F000120DCA83828AC2F30722CB8B1343CB8388
:10290000007D400881F8200081F821803846BDE82C
:10291000F0879207120D0A6190F82C200B6943EAA8
:1029200082020A61026B120E0B6943EA92130B6179
:10293000C2F3C2030B7502F007024A75026BC2F3C1
:10294000074253098B75C2F38203CB759207520F6E
:102950000A76028EC2F307220B7E43EAD2130B766D
:102960000B695B1C0D7EAD1C08FA05FCA3FB0C5A21
:102970004FEAEC7604FB0CAC03FB06C691F808C0EA
:1029800008FA0CF30B65A5FB03CA06FB03A305FBC2
:102990000433C1E912C31CE790F82C209206920A76
:1029A0000A61026B120E0B6943EA02220A61026B92
:1029B000C2F307420B6913430B61028EC2F3072275
:1029C0000B695B1C44F10005ED0445EA5335DB045B
:1029D000C1E912354FF400730B65FAE610B50446F1
:1029E0002168486BC0050AD54FF4807088630120C8
:1029F000A0640020E064204600F09CFB35E0486BBA
:102A0000800706D502208863E064204600F093FB2F
:102A10002BE0486B000707D5082088630420E0649A
:102A2000204600F088FB20E0486B800607D5202078
:102A300088630620E064204600F07DFB15E0486BCB
:102A4000C00607D5102088630520E064204600F00A
:102A500072FB0AE0486B800507D54FF4007088636D
:102A60000720E064204600F066FB2068C16B4CF252
:102A70003A329143C16310BD70B58AB005460E4627
:102A800000240994182103A8FDF7C8FB284600F08C
:102A900041F803940494059406940794C320089085
:102AA0000094CDE90140234622462146286801F0E2
:102AB0009BFD284602F0DCF809909DF8240018B12F
:102AC0009DF824000AB070BD284601F0A6FF0990C9
:102AD0009DF8240010B19DF82400F3E73146284604
:102AE000FFF72FFE09909DF8240038B9B6F854007E
:102AF00000230204284602F06FF90990D5E9051277
:102B000028698DE807000FCD01F06EFD9DF82400C7
:102B1000D8E7000070B586B005461F49286888428E
:102B200038D11E48416941F480614161406900F437
:102B3000806001904FF4F85002900226039603241F
:102B4000059402A91648FEF7DDF8042002900396CA
:102B5000059402A91348FEF7D5F8144C12482060DA
:102B6000102060600020A0608021E1608900216168
:102B700089006161A061E0612046FEF733F8AC6531
:102B80006562EC65002211463120FEF737FA3120EC
:102B9000FEF728FA06B070BD008001400010024028
:102BA0000010014000140140440402408002002053
:102BB0002DE9F04F8BB00446DDE914980D4616461A
:102BC0001F46142106A8FDF729FB18216846FDF7CA
:102BD00025FB21680020C862216A4FF4007A02298F
:102BE00003D1D146760A46EAC756CDF8189010218F
:102BF0000791402108910746099008010A9006A90B
:102C0000206801F00DFD1021204601F035FD00285F
:102C10002AD14FF0FF3BCDF800B008FB09F001903E
:102C2000902002904FF00209CDF80C9004970120FB
:102C300005906946206801F0ADFCB8F1010F02D99A
:102C40001220079001E011200790069606A920683F
:102C500001F0E6FCB8F1010F1DD91221204601F068
:102C60000BFD074687B138460BB0BDE8F08F406BCF
:102C7000000409D50026206801F0CFFC45F82600A5
:102C8000761C082EF7D320352068416B40F22A329B
:102C90001142ECD01AE01121204601F0EDFC07466C
:102CA00038000DD0E0E7406B000409D5002620680D
:102CB00001F0B3FC45F82600761C082EF7D320352A
:102CC0002068416B40F22A621142ECD02068406BD0
:102CD000C0050CD5B8F1010F09D9206A18B1012837
:102CE00001D0022803D1204600F030F807462168C1
:102CF000486B000703D5082088630420B4E7486BBD
:102D0000800703D54846C1F83890ADE7486B800688
:102D100003D5202088630620A6E7486B800508D5E8
:102D2000C1F838A007209FE701F077FC01C5ABF19F
:102D3000010B2068416B890202D5BBF1000FF3D172
:102D4000216840F2FF50886338468DE710B586B0A1
:102D50000446142101A8FDF761FA002001900C211E
:102D600002914021039104900801059001A9206877
:102D700001F056FC0C21204601F07EFC06B010BD8F
:102D800070B58AB004460E46182104A8FDF746FA2D
:102D9000206A032808D048B1012807D0022805D0AE
:102DA00029250AB0284670BD2725FAE7B6F5805FC9
:102DB0001BD0B6F5006F1AD0F6B12625002DF0D144
:102DC00060680490A0680590E068069007966069C6
:102DD0000890A069099007A807C88DE8070004A912
:102DE00020680EC901F000FCDBE72725E6E7204656
:102DF00002F078F80546E1E7204602F035F805468E
:102E0000DCE72DE9F04F8DB00646DDE916A90C464A
:102E100017469846142108A8FDF700FA182102A8C1
:102E2000FDF7FCF90025002001903168C862316A85
:102E30004FF4007B022903D1DA467F0A47EAC857DC
:102E4000CDF820A01021099140210A9180460B90D5
:102E500008010C9008A9306801F0E2FB102130460F
:102E600001F00AFC002870D1B9F1010F02D9192034
:102E7000099001E018200990089708A9306801F02E
:102E8000CFFBB9F1010F04D91921304601F0F4FB51
:102E900003E01821304601F0EFFB002855D109FB73
:102EA0000AF7401E0290039790200490CDF81480FA
:102EB000CDF818800120079002A9306801F06AFB64
:102EC000B9F1010F2BD85DE0406B400427D5781B8A
:102ED000202816D2810706D04FEA900A0AF1010A8B
:102EE0004FF000080AE04FEA900AF9E721463068FF
:102EF00001F0A6FB241D2D1D08F10108D0450ED2BE
:102F0000F4E74FF0000804EB8801306801F098FB0B
:102F100008F10108B8F1080FF5D3203420353068E6
:102F2000416B40F21A321142CED031E0406B400486
:102F300028D5781B202817D2810707D04FEA900A9E
:102F40000AF1010A4FF000080BE038E04FEA900A5E
:102F5000F8E72146306801F073FB241D2D1D08F1B0
:102F60000108D0450ED2F4E74FF0000804EB8801C9
:102F7000306801F065FB08F10108B8F1080FF5D3DE
:102F8000203420353068416B40F21A621142CDD0B6
:102F90003068406BC0050BD5B9F1010F08D9306A14
:102FA00018B1012801D0022802D13046FFF7CEFE29
:102FB0003168486B000705D50820886304200DB0F0
:102FC000BDE8F08F486B800702D502208863F6E7E2
:102FD000486BC00603D5102088630520EFE7486BD7
:102FE000800503D5C1F838B00720E8E740F2FF506C
:102FF000886301A9304601F091FD03E001A9304644
:1030000001F08CFD0028DAD19DF804100729F5D0D5
:103010000629F3D0D3E700002DE9F0478CB0044631
:10302000DDE914878A4615461E46142107A8FDF7D8
:10303000F5F8182101A8FDF7F1F820684FF0000914
:10304000C0F82C90C4F84890C4F85090C4F84C9044
:10305000012F02D90320606501E00220606520682D
:10306000C16B40F21A321143C163E16D2F4888628F
:10307000E16D2F48086308FB07F02268830880325F
:103080005146E06DFDF7D7FD2068C16A41F00801A7
:10309000C162206A022804D14FF400786D0A45EA23
:1030A000C655CDF81C801020089040200990CDF81E
:1030B000289000010B9007A9206801F0B1FA1021B7
:1030C000204601F0D9FA00282DD1012F02D818206E
:1030D000089001E019200890079507A9206801F0E1
:1030E0009FFA012F04D91921204601F0C5FA03E007
:1030F0001821204601F0C0FA002814D1401E01908A
:1031000008FB07F8CDF8088090200390CDF81090C8
:10311000CDF814900120069001A9206801F03AFA38
:10312000C4F84C9048460CB0BDE8F08789480008C8
:103130009F4800087047704770B504460E46154614
:10314000002C03D094F83D0010B107E0012070BDC1
:10315000002084F83C00204600F01AF804F1080131
:103160002068FDF79DF93146A2682068FDF7E6F971
:10317000D4E901022946236BFDF760F9A1682068B4
:1031800050F8212042F0010240F82120002070BDBB
:10319000FDF788BD4FF0E021042804D0086920F035
:1031A000040008617047086940F004000861704736
:1031B000704710B5401EB0F1807F01D3012010BDD3
:1031C0004FF0E02460610F21601700F0D5FB002074
:1031D000A06107202061002010BD10B5FFF7E8FFB7
:1031E00010BD70B50446002C04D094F839000025B9
:1031F00010B106E0012070BD84F83850204600F080
:1032000021F8022084F839002068C16821F40051B7
:10321000C160204602F00EF82068016921F4904157
:1032200001612068416921F02A0141612068C1687B
:1032300041F40051C160E563012084F839000020A9
:1032400070BD000010B586B00068114988421DD1DC
:103250001048816941F480418161806900F48040B7
:1032600001904FF40070029002200390032005901B
:10327000094C02A92046FDF745FD211502910021C8
:103280000391049102A92046FDF73CFD06B010BD54
:1032900000380140001002400008014001222021B6
:1032A0000148FDF737BE0000000C014030B505466F
:1032B00000240021084600F02DF82220FDF7AAF88E
:1032C0004FF496322846FDF7A9F8641C9442F9D3CE
:1032D000BDE830402220FDF79DB830B504460D46CC
:1032E0004420FDF797F844EA022080B2FDF796F8F3
:1032F0004520FDF78FF82846FDF790F84620FDF7AA
:1033000089F81846FDF78AF829462046BDE830407E
:10331000AFF3008000B50B4601464E20FDF784F860
:1033200019464F20FDF780F822205DF804EBFDF7E9
:1033300071B800002DE9FF4F0546DDE90E890C4606
:10334000924609EB490104EBC90005EB4102401E1E
:10335000521EB8F1000F06D083B292B22146284621
:10336000FFF7BBFF05E093B282B229462046FFF784
:10337000B4FF0027052F1DD2BAF1810F07D2AAF1A1
:10338000200000EB800131480844C65D06E0AAF148
:103390005F0000EB80012D480844C65DB8F1000FC6
:1033A00009D046F278011120FDF73EF82220FDF702
:1033B00031F800E000264A4638E0B8F1000F01D0AD
:1033C000012300E0802300254C460D9810B106EA49
:1033D000030B1CE006EA030B0AE0BBF1000F03D06D
:1033E0000398FDF71BF801E0FDF70EF8641EE4B248
:1033F000002CF2D10DE0BBF1000F03D00398FDF7D4
:103400000DF802E00D98FDF709F8641EE4B2002CF7
:10341000F1D1B8F1000F02D05806030E00E05B08AE
:103420006D1CEDB2082DCFD3521ED2B2002AC4D1EA
:103430007F1CFFB2062F9DD304B0EF22BDE8F04FF2
:1034400000214FF49E730846FFF747BF9A710008AA
:103450002DE9FE4F0746DDE90C890E9E8A4615468A
:103460009B46002410E004FB06F000EB400007EB55
:1034700040006D1C80B25B465146CDE90089029642
:10348000FFF758FF641CE4B22A78002AEBD1BDE8AC
:10349000FE8F70B50546D5F8184294F8180200283A
:1034A00008D1D4F8140228B1607A18B9012128464D
:1034B00002F09CFA8121284602F098FA607A0228EC
:1034C00008D104F503722846BDE870401F2301218E
:1034D00002F01CBA70BD000070B50546D5F8184260
:1034E000D4F81002C4F83002D4F81402C4F834023C
:1034F0000121284602F0B9F91F280DD12349D4F83B
:103500000C02884208D194F81912012904D894F8C1
:103510001A220AB1102A0DD994F819122023052273
:10352000284600F054FF022060722846BDE8704033
:10353000FFF7AFBF04F21B22284600F06FFD002802
:103540000DDA207A052804D02846BDE87040FFF740
:10355000A0BF2846BDE87040012100F09FB8217A45
:10356000022912D0012910D003290ED0628932B16C
:1035700004F10C012846BDE8704000F0ADB82846C3
:10358000BDE87040002100F089B870BD555342433A
:1035900010B5D0F81842627A022A08D009060BD575
:1035A000012A09D0BDE81040012100F077B881213F
:1035B00002F01CFA0020607210BD10B50446D4F869
:1035C0001822117A022909D0032901D0042914D123
:1035D0002046BDE81040002100F060B892F81912B2
:1035E00002F21B22204600F019FD002805DA2046D1
:1035F000BDE81040012100F051B810BD10B50446DF
:10360000D4F81822117A002910D0012913D192F888
:10361000191202F21B22204600F000FD00280ADAEF
:103620002046BDE81040012100F038B82046BDE832
:103630001040FFF751BF10BDD0F8180200210172F1
:10364000704770B50546D5F81842002020726072A8
:1036500084F85D0284F85C02D5F81C020168002041
:1036600088470121284602F0F9F88121284602F016
:10367000F5F804F503722846BDE870401F230121C8
:1036800002F044B9D0F818220021117201215172C0
:103690001F2302F5037202F039B9000070B5054628
:1036A000D5F818420B48C4F82C0284F838120020D0
:1036B00020720D2304F50B728121284602F0ACF92B
:1036C00004F503722846BDE870401F23012102F073
:1036D0001DB900005553425330B41446D0F8182297
:1036E000D2F81432A34200D323469BB2D2F834421C
:1036F000E41AC2F83442002482F8384204241472D6
:103700000A4630BC812102F087B9000008B509489B
:10371000416941F002014161406900F002000090FE
:10372000002201213B20FDF769FCBDE808403B2059
:10373000FDF758BC0010024010B504490448FCF7DE
:103740003FFE0249491E087010BD0000190000200C
:103750009C73000800B587B015484FF02041016008
:103760001449416000218160C16001611022426101
:103770008161C1610162416213028362C1620163BE
:10378000416381630F2000900190FF230293039017
:103790000492112005900691002269460448FFF723
:1037A000CBFC0548C16941F48061C16107B000BD2F
:1037B000E0010020040100A00000014010B586B027
:1037C0001D48816941F010018161816901F010019A
:1037D0000191816941F040018161816901F04001FD
:1037E0000191816941F020018161816901F020012D
:1037F0000191816941F004018161816901F0040155
:103800000191816941F008018161806900F008003F
:1038100001900A4C0022A0212046FDF77BFBA0214D
:103820000291012103910221059102A92046FDF791
:1038300069FA06B010BD000000100240000C014003
:103840007CB52B48294901604FF0FF3141600025CC
:103850008560FEF7FBFD01212548FEF7EFFC254CB6
:10386000C92832D0C92201212148FEF7EFFC1620D9
:103870008DF8040002208DF805008DF80650002216
:1038800001A91B48FEF7D4FE05208DF80000042096
:103890008DF8010017208DF8020010208DF803002C
:1038A000002269461248FEF759FE6278022110484C
:1038B000FEF7CCFCA27803210D48FEF7C7FCE278A6
:1038C00004210B48FEF7C2FC7CBD02210848FEF72C
:1038D000B5FC607003210648FEF7B0FCA07004211F
:1038E0000348FEF7ABFCE0707CBD00000028004000
:1038F0002C01002014000020064805490160002129
:1039000041608160C1600161416104218161704752
:1039100000800140400100200848074901604FF441
:10392000E131416000218160C16001610C2242618E
:103930008161C161FFF755BC00380140A001002042
:1039400010B500220849094801F0D1FE084907488E
:1039500002F06AF90749054802F0CDF8BDE81040C9
:10396000024802F017BA000040000020480B002077
:1039700084000020200000200907090E002806DA34
:1039800000F00F0000F1E02080F8141D704700F1F6
:10399000E02080F8001470472DE9FC5F0446002009
:1039A0000190009040F68F7906274FF002084FF4FF
:1039B00080669AE1BDF8041001F00F0ABAF1000F19
:1039C0002CD030F82A100091BDF80010090479D5E8
:1039D00030F82A1001EA090120F82A1004EB4A15F0
:1039E00005F50275A87A00286DD02978206830F88E
:1039F0002120520468D5B0F8502008EBC1011144D1
:103A000006EB4101415AC1F3090BBBF1000F04D091
:103A1000EA885B46696902F022FED2E0BDF8041034
:103A2000C9062CD4018848F60F721140018004F1B8
:103A300028052068B0F850102A7808EBC20211441B
:103A400006EB4101405AC0F30900E8616969084486
:103A5000686100212046FDF71EFB94F82400002831
:103A6000A7D0A8690028A4D194F82400216840F0C8
:103A70008000A1F84C00002084F8240035E104F512
:103A8000027501880091BDF8001009051DD5B0F838
:103A900050102A7807EBC202114406EB4101405A4C
:103AA000C0F30903EB61AA8804F57B71206802F07A
:103AB000D6FD2068018801EA090101802046FDF752
:103AC0001EFD12E19EE055E069E0BDF8001009041A
:103AD000D4D5018801EA090101802068B0F85010AE
:103AE0002A7807EBC202114406EB4101405AC0F3A9
:103AF0000900E86148B183B2AA886969206802F0C8
:103B0000AEFDE96968690844686100212046FDF757
:103B1000C9FA2068B0F85010891D06EB410142181F
:103B200028693E280DD9C0F34F11C00601D1491EA6
:103B300089B24FF6FF7000EA812040F40040106027
:103B40000AE0C0F34F01C00701D0491C89B24FF60B
:103B5000FF7000EA81201060206801884BF68F72A8
:103B6000114081F4805181F4005148F280021143E8
:103B70000180BAE02068B0F850102A7807EBC20242
:103B8000114406EB4101415AC1F3090BBBF1000F8F
:103B900023D0AA885B46696902F061FD1DE0B0F898
:103BA000502007EBC101114406EB4101415AC1F31A
:103BB000090BBBF1000F04D02A895B46696902F04A
:103BC0004EFD2978206830F8212048F68F731A407E
:103BD00048F2C0031A4320F82120E8695844E861FC
:103BE000686900EB0B026A61AB6913B1286958453B
:103BF00004D929782046FDF755FA03E029782046B4
:103C0000FDF7E0FABDF8000000066ED504EB4A159A
:103C10002835206830F82A1048F60F72114020F835
:103C20002A10A87AC0B12978206830F821205206DD
:103C300027D5B0F8502008EBC101114406EB410133
:103C4000405AC0F30900E86168B383B2EA88696941
:103C5000206802F01DFD26E02068B0F850102A7898
:103C600008EBC202114406EB4101405AC0F30900BF
:103C7000E86120B383B2AA886969206802F008FD70
:103C80001DE0B0F8502007EBC101114406EB4101E3
:103C9000405AC0F30900E86128B183B22A896969F2
:103CA000206802F0F5FC2978206830F8212048F6D9
:103CB0008F731A404CF280031A4320F821202068A9
:103CC000B0F850102A7808EBC202114406EB41010B
:103CD000405AC0F30900E86169690A186A61AB6972
:103CE0006BB129782046FDF7BDFA2068B0F8441082
:103CF000019109043FF55EAE0020BDE8FC9F2978E4
:103D00002046FDF7C8F9F0E7010901EB8101490000
:103D100000F00F000844C0B27047002102E0491CC7
:103D20000A38C0B20A28FAD2090740EA116070477F
:103D30002DE9F041064688460027F57B747BB27B6F
:103D400040E0012C16D0032C14D0052C12D0072CE7
:103D500010D0082C0ED00A2C0CD00C2C0AD0042C1D
:103D600015D0062C13D0092C11D00B2C0FD0022CFF
:103D700014D026E01F2A01D2521C22E00C2C02D0C3
:103D8000641C01221DE0012401226D1C19E01E2A81
:103D900001D2521C15E0641C012212E01C2A02D23E
:103DA00002F101020DE008D1A8B200F053F808B109
:103DB0001D2206E00324012203E01D2A01D1032471
:103DC00001227F1C4745BCD3F573E1B27173D2B2B7
:103DD000B273284600F06CF83073BDE8F08170B51E
:103DE0000546FDF79FF804464FF47A7606E0FDF7A6
:103DF00099F8001BB04201D9032070BD28684068C3
:103E00008006F4D52868416841F010014160002027
:103E100070BD70B505462868416821F01001416009
:103E2000FDF780F804464FF47A7606E0FDF77AF85D
:103E3000001BB04201D9032070BD2868406880068D
:103E4000F4D5002070BD00000148FEF732BA000032
:103E50002C010020810701D0002070476421B0FBB5
:103E6000F1F201FB120109B1012070474FF4C87152
:103E7000B0FBF1F201FB120008B1002070470120F5
:103E800070470068016A406A80B240EA01407047AA
:103E90000068816989B2C26993B2826992B2914223
:103EA00003D0C06962F31F40704743EA0140704786
:103EB00030B500F5FA63C1EBC10404EB0114092528
:103EC000B4FBF5F42244184610446424A5000722EC
:103ED00003290ED25B1EB3FBF4F100EB9300401AF2
:103EE000B3FBF5F10844001DB0FBF2F102FB110039
:103EF0000CE0B3FBF4F100EB9300401AB3FBF5F1D7
:103F00000844801CB0FBF2F102FB1100C0B230BDCE
:103F100070B505460E4600242846FFF760FF08B13D
:103F200001240AE02968300C08622968B0B24862AE
:103F30002846FFF76EFF00B10124204670BD70B522
:103F400005460E4600242846FFF749FF08B1012424
:103F50000AE02968300C88612968B0B2C861284637
:103F6000FFF757FF00B10124204670BD10B5D0F80F
:103F700018421A44D4F860329A4206D92123052205
:103F800000F025FA4FF0FF3010BD002010BD0000FA
:103F900010B5D0F818325478E40702D00C49072045
:103FA0000CE0D0F81C0201EBC101C06900EB8101FB
:103FB0000879401D1279824200D81046588104E0E9
:103FC000401E80B21C180A5C22730028F8D110BD74
:103FD000B073000810B50821D0F818024181054AD5
:103FE00004E0491E89B24418535C23730029F8D1B8
:103FF000002010BDBF73000810B5D0F818120820BB
:104000004881054A04E0401E80B20C18135C2373FB
:104010000028F8D110BD0000B773000810B5137860
:10402000232B3DD00DDC1A2B32D005DCE3B1032B62
:104030001ED0122B11D11FE01B2B21D01E2B0CD117
:1040400022E02A2B38D004DC252B2DD0282B04D1BC
:104050002EE02F2B34D05A2B1ED02023052200F027
:10406000B6F94FF0FF3010BDBDE8104000F0D0B9F8
:10407000BDE8104000F07CB9BDE81040FFF788BFF4
:10408000BDE8104000F0BEB9BDE8104000F0BAB97C
:10409000BDE81040FFF7B0BFBDE81040FFF79ABF82
:1040A000BDE8104000F02DB9BDE8104000F0FCB8AC
:1040B000BDE8104000F092B8BDE8104000F0EDB946
:1040C000BDE8104000F0CDB92DE9F04106460F469D
:1040D000D6F818424FF40070D4F86852854200D3E5
:1040E0000546B4F85E02B5FBF0F18BB2D4F8641269
:1040F000B1FBF0F2D6F81C0204F10C018846D0F8AE
:1041000010C03846E047002809DA11230422394656
:10411000304600F05CF94FF0FF30BDE8F081ABB203
:1041200042468121304601F077FC04F50D74206B86
:1041300028442063606B401B60632168491B216039
:10414000A4F50D7408B9032020720020E5E72DE9DD
:10415000F04706468946D6F818424FF40077D4F85F
:104160006852BD4200D33D46B4F85E02B5FBF0F1A3
:104170008BB2D4F86412B1FBF0F2D6F81C0204F151
:104180000C018846D0F814C04846E047002809DAF8
:10419000032304224946304600F019F94FF0FF305E
:1041A000BDE8F08704F50D74206B28442063606B34
:1041B000401B60632168491B216050B1B84200D3A5
:1041C000384683B242460121304601F09FFB002071
:1041D000E6E700213046FFF761FAF8E72DE9F04104
:1041E000064688461546D6F81842207A002852D14D
:1041F00094F818024FF0FF37000609D494F819120A
:1042000020230522304600F0E2F83846BDE8F08170
:10421000D6F81C0281684046884738B13A2302220A
:104220004146304600F0D3F83846EFE76879A97880
:1042300040EA0162E8782979000440EA012002435B
:10424000C4F86422287AE97940EA0123C4F8683284
:1042500041463046FFF78AFE002801DA3846D5E7A6
:1042600002202072B4F85E12D4F864024843C4F805
:104270006402D4F868024843C4F86802D4F81412FF
:10428000814208D094F8191220230522304600F00C
:104290009EF83846BAE74FF40070608141463046D8
:1042A000BDE8F041FFF710BF70B505460E46D5F8E2
:1042B0001842D5F81C0204F25E22911C4368304675
:1042C000984740B13A2302223146284600F07FF851
:1042D0004FF0FF3070BDD4F86002401E010E217314
:1042E000010C6173010AA173E073002020746074F3
:1042F000B4F85E02010AA174E07408206081002015
:1043000070BD2DE9FC4106460F46D6F81842002044
:10431000002521180D73401C80B20C28F9D3D6F863
:104320001C0201AA694643683846984748B13A23B7
:1043300002223946304600F04AF84FF0FF30BDE81F
:10434000FC810820E0730098401E010E2174010CCE
:104350006174010AA174E074022020756575BDF8CE
:104360000400010AA175E0750C2060810020E6E7D9
:1043700030B5D0F818020021002344182373491CDB
:10438000C9B21229F9D3702101730C21C17490F8BC
:104390005C1290F85D42A14211D000EBC10404F51B
:1043A0000F74257885736579057624794476491CE0
:1043B000C9B280F85C12042901D180F85C32122164
:1043C00041811179122900D84181002030BDD0F8F7
:1043D000180290F85D1200EBC10181F83C2290F8C0
:1043E0005D22190200EBC202C2F8401290F85D1281
:1043F000491CC9B280F85D12042902D1002180F85D
:104400005D127047D0F818020021418100207047EA
:104410002DE9F04105460E46D5F818424FF0FF371A
:10442000D4F81402002809D094F819122023052288
:104430002846FFF7CCFF3846BDE8F081D5F81C02CE
:1044400082683046904748B13A23022231462846D6
:10445000FFF7BDFF052020723846EDE700206081A0
:10446000EAE770B5D0F8184252784FF0FF3592075E
:1044700005D524230522FFF7AAFF284670BDB4F80E
:10448000682293B2D4F86422FFF770FD002801DAA5
:10449000284670BD0020608170BD2DE9F0410646C0
:1044A00088461546D6F81842207A002805D041469D
:1044B0003046BDE8F041FFF74ABE94F818024FF0CD
:1044C000FF37000609D594F819122023052230463B
:1044D000FFF77DFF3846BDE8F081D6F81C02816801
:1044E0004046884738B13A23022241463046FFF71A
:1044F0006EFF3846EFE7D6F81C02C1684046884791
:1045000038B12723022241463046FFF760FF384684
:10451000E1E76879A97840EA0162E878297900043E
:1045200040EA01200243C4F86422287AE97940EA8B
:104530000123C4F8683241463046FFF717FD0028D2
:1045400001DA3846C7E704F50574B4F84A10206D5F
:1045500048432065606D484360652168A4F5057493
:10456000814208D094F81912202305223046FFF723
:104570002EFF3846AFE7012121724902884200D35D
:10458000084683B204F10C020121304601F0BEF965
:104590000020A0E70A6842624A688262D1E90223E9
:1045A0001A43D1E904310B43C16A1A4321F0F701E0
:1045B0000A43C262002070470069C0B270470068B9
:1045C00000F003007047000008B50348084400905D
:1045D0000098006808BD0000148001400148FEF703
:1045E000FDB90000400100200FB4DDE901121143C4
:1045F000DDE903231A431143059A1143069A114337
:10460000426847F6FF639A4311434160002004B0BB
:1046100070470321016000207047D0F88000704788
:104620000A688260D1E901231A43D1E903310B43BF
:10463000C1681A436FF30B010A43C2600020704740
:104640000968C0F8801000207047024600204FF42F
:10465000803113685A6BC2F3C01203E05A6BC2F385
:10466000C012491E09B1002AF8D019B140F2FF5119
:10467000996370470320704770B504460E460025C5
:104680002068426B12F0450FFBD0416B490704D5FF
:10469000032104228263084670BD416BC90703D021
:1046A00001218163084670BDFFF786FFB04201D04B
:1046B000102070BD216840F2FF50886300212068FF
:1046C000FFF782FF2949084201D1284670BD002822
:1046D00001DA1C2070BD410001D5092070BD8100A8
:1046E00001D50A2070BDC10001D50B2070BD0101AC
:1046F00001D50C2070BD410101D50D2070BDC10157
:1047000001D50E2070BD010201D50F2070BD410200
:1047100001D5102070BD810201D5112070BDC102EC
:1047200001D5122070BD010301D5132070BD4103D6
:1047300001D5142070BD810301D5152070BDC103C2
:1047400001D5162070BD010401D5172070BD4104AC
:1047500001D5182070BD810401D5192070BD000756
:1047600001D51A2070BD284670BD000008E0FFFD8D
:104770000146002009684A6B12F0450FFBD04A6BD6
:10478000520703D5032004228A6370474A6BD2077D
:1047900002D001208863704740F2FF528A6370475D
:1047A0000146002009684A6B12F0450FFBD04A6BA6
:1047B000520703D5032004228A63704740F2FF5258
:1047C0008A6370472DE9F04104460F4615460026DE
:1047D0002068436B13F0450FFBD0416B490705D5AB
:1047E0000321042282630846BDE8F081416BC907BA
:1047F00003D0012181630846F6E7FFF7DDFEB842EA
:1048000001D01020F0E7216840F2FF5088630021BA
:104810002068FFF7D9FE10F4604F03D0810405D55E
:104820001320E1E7000C28803046DDE7410401D584
:104830001020D9E7000401D50F20D5E73046D3E793
:10484000024629204FF480311268536B13F0450360
:1048500007D0012305E0536B13F0450300D001237B
:10486000491E0BB90029F6D1536BC3F3800301B184
:104870001BB10320042191637047516B4906FBD59E
:10488000002040219163704710B5406A0121016505
:10489000816C0029FCD0C06DFDF744FF10BD10B540
:1048A000406AC06DFDF73FFF10BD2DE9F04F8DB0A0
:1048B00004460F46142108A8FBF7B0FC182102A8F3
:1048C000FBF7ACFC00250026009601964FF0080887
:1048D000CDF820801020099040200A900B9600010E
:1048E0000C9008A92068FFF79BFE10212046FFF7D7
:1048F000C3FE00282DD1A08C000408903720099019
:1049000008A92068FFF78CFE37212046FFF7B4FE88
:1049100000281ED1401E0290CDF80C80302004905B
:104920004FF00209CDF8149006960120079002A9D5
:104930002068FFF72FFE08963320099008A9206809
:10494000FFF76EFE33212046FFF796FE0646300045
:1049500002D00DB0BDE8F08FEA4640F22A6B07E0C6
:10496000416B890204D5FFF758FE4AF825006D1CFB
:104970002068416B11EA0B0FF2D02168496B0907DF
:1049800003D5C0F838800420E3E7416B890703D5DD
:10499000C0F838904846DCE7416B890603D52021F2
:1049A00081630620D5E7416B890504D54FF400717A
:1049B00081630720CDE740F2FF51816300980099A1
:1049C000000601F47F4140EA0120009901F47F01D3
:1049D00040EA1120009940EA11607860019801993D
:1049E000000601F47F4140EA0120019901F47F01B2
:1049F00040EA1120019940EA116038603046A8E78A
:104A000008B500210091694600F003FA08B1FF20C3
:104A100008BD0098C0F3432008BD70B586B00446B9
:104A2000142101A8FBF7FAFB002501200090206863
:104A3000FFF7C5FDB8B1206AC026042829D00020A0
:104A4000019002210291039604904802059001A969
:104A50002068FFF7E5FD2046FFF78AFE054628009F
:104A600003D006B070BD2520FBE700212068FFF7CA
:104A7000ABFDA06304212068FFF7A6FDE0630821D9
:104A80002068FFF7A1FD20640C212068FFF79CFD42
:104A90006064206A28B1012803D0062801D00228CA
:104AA00010D1032002904020039001A92068FFF755
:104AB000B7FD6A4603212046FFF784FE054628001D
:104AC00000D0CEE7206A042826D0BDF8000060623E
:104AD0000004019009200290039601A92068FFF7C5
:104AE0009FFD2046FFF744FE0546280000D0B8E7AA
:104AF00000212068FFF768FDA06204212068FFF70D
:104B000063FDE06208212068FFF75EFD20630C2151
:104B10002068FFF759FD60632846A2E770B586B0AC
:104B200004460D46142101A8FBF778FB002600205F
:104B30000090A18C090401910D2102914021039163
:104B400004900801059001A92068FFF769FD20681D
:104B5000426B12F0450FFBD0416B490705D503218D
:104B600004228263084606B070BD416BC90703D0BA
:104B7000012181630846F6E7FFF71EFD0D2801D0ED
:104B80001020F0E7216840F2FF5088630021206880
:104B9000FFF71AFD00900098C0F3432028703349B6
:104BA0000098084201D13046DDE70098002801DA7C
:104BB0001C20D8E70098400001D50920D3E70098D1
:104BC000800001D50A20CEE70098C00001D50B2057
:104BD000C9E70098000101D50C20C4E70098400106
:104BE00001D50D20BFE70098C00101D50E20BAE71E
:104BF0000098000201D50F20B5E70098400201D5CA
:104C00001020B0E70098800201D51120ABE7009892
:104C1000C00201D51220A6E70098000301D5132099
:104C2000A1E70098400301D514209CE70098800379
:104C300001D5152097E70098C00301D5162092E70B
:104C40000098000401D517208DE70098400401D595
:104C5000182088E70098800401D5192083E7009880
:104C6000000701D51A207EE730467CE708E0FFFD0B
:104C70002DE9F04F87B00446142102A8FBF7CEFAC5
:104C80004FF00009CDF80490002700250026A84623
:104C90002068416821F4807141602068FFF7B9FC09
:104CA0000120FBF7F4FF2068416841F48071416006
:104CB000CDF80890CDF80C90CDF81090CDF8149068
:104CC0004FF48060069002A92068FFF7A9FC2046F7
:104CD000FFF7BBFC01909DF8040020B19DF8040093
:104CE00007B0BDE8F08F4FF4D57002900820039014
:104CF0004FF0400ACDF810A002A92068FFF790FC01
:104D00002046FFF79DFD01909DF8040018B9012091
:104D100020624FF08048CDF808903720039002A918
:104D20002068FFF77DFC37212046FFF7A5FC0190A6
:104D30009DF80400A8BB4FF6FF7B3AE0CDF8089041
:104D400037200390CDF810A0CDF814904FF4806672
:104D5000069602A92068FFF763FC37212046FFF77B
:104D60008BFC01909DF8040010B19DF80400B7E79A
:104D7000184848EA0000029029200390CDF810A0BE
:104D8000CDF81490069602A92068FFF749FC20464A
:104D9000FFF706FD01909DF8040018B19DF804008E
:104DA0009EE714E000212068FFF70EFC0746FE0F87
:104DB0006D1C0EB95D45C1D35D4504D31B20019028
:104DC0009DF804008CE7780001D5022020629DF850
:104DD000040085E70000108070B586B006461446D2
:104DE0001D46142101A8FBF719FA0194072002902F
:104DF00040200390002004904FF48060059001A9AA
:104E00003068FFF70DFC07213046FFF735FC06B090
:104E100070BD70B586B005460E46142101A8FBF79B
:104E2000FDF9C6B1A88C000401900D20029040202D
:104E30000390002004904FF48060059001A9286839
:104E4000FFF7EEFB0D212846FFF716FC044624B1C0
:104E5000204606B070BD2620FBE700212868FFF73A
:104E6000B3FB30602046F4E730B587B00446142128
:104E700002A8FBF7D3F900250095019500212068D1
:104E8000FFF7A2FB800102D50E2007B030BD6946B6
:104E90002046FFF70AFD0028F7D10198C0031FD56F
:104EA000A08C0004029037200390402004900595C8
:104EB0000001069002A92068FFF7B2FB37212046C7
:104EC000FFF7DAFB0028E0D102950620039002A943
:104ED0002068FFF7A5FB06212046FFF7CDFBD4E7AE
:104EE0002520D2E730B587B00446142102A8FBF78D
:104EF00095F900250095019500212068FFF764FBD6
:104F0000800102D50E2007B030BD69462046FFF76C
:104F1000CCFC0028F7D10198400320D5A08C0004D8
:104F200002903720039040200490059500010690E0
:104F300002A92068FFF774FB37212046FFF79CFB8E
:104F40000028E0D1022002900620039002A92068E8
:104F5000FFF766FB06212046FFF78EFBD3E72520EF
:104F6000D1E7000010B5064C01202070FBF7D0F906
:104F700018B9207820F001002070207810BD0000C2
:104F80007800002010B596B014460120114A12781E
:104F9000D20702D0032016B010BD49B1012909D0B3
:104FA0004FF40072022910D0032911D00420F2E737
:104FB0000020F0E76846FBF79FF9DDE91210C20513
:104FC00042EA512020600020E5E722800020E2E74D
:104FD0002260E0E7780000201CB500244FF4007048
:104FE000CDE90003520200230846FBF7B3F900B1F4
:104FF000012420461CBD000010B5064C0120207085
:10500000FBF780F918B9207820F001002070207893
:1050100010BD0000780000201CB500244FF4007083
:10502000CDE90003520200230846FBF7A3F900B1C3
:10503000012420461CBD10B5FEF730F921210720C0
:10504000FBF7F2F90120FBF722FE01210020FBF71C
:10505000EBF90120FBF71BFE23210720FBF7E4F906
:105060000120FBF714FE00211020FBF7DDF90120E1
:10507000FBF70DFE1E20FBF70AFE33210720FBF78E
:10508000D3F90120FBF703FE46F270011120FBF774
:10509000CBF90120FBF7FBFD4FF4C0610220FBF7C9
:1050A000C3F90120FBF7F3FD42F23F310120FBF78A
:1050B000BBF90120FBF7EBFD00210B20FBF7B4F956
:1050C00000210F20FBF7B0F94FF46F414420FBF7AC
:1050D000ABF900214520FBF7A7F940F23F1146202C
:1050E000FBF7A2F92220FBF795F9BDE810406420F8
:1050F000FBF7CDBD70B50D46164608490848FDF7CB
:1051000020FB064C0023D4E91312A06CFBF72CF80B
:105110002860B4F850003080002070BD28020020C4
:105120004001002000207047002070470020704799
:10513000002070471CB54FF40070CDE90003520207
:1051400000230248FDF734FD00201CBD4001002073
:105150001CB54FF40070CDE9000352020023024851
:10516000FDF74FFE00201CBD4001002010B5FBF7ED
:10517000DFFEBDE81040FEF730B830B595B0052031
:105180000B904FF480300C9000240D9401210E916F
:105190000225129513904FF4E01014900BA8FCF721
:1051A000F9FC0F20069007950894680209900A946C
:1051B000022106A8FCF704FB11200090E8010190F1
:1051C00005946846FCF766FAFCF756FC4FF47A71D2
:1051D000B0FBF1F0FDF7EDFF0420FDF7DBFF02214E
:1051E0000022C81EFBF70AFF15B030BD0D4801684C
:1051F00041F00101016041680B4A114041600168C2
:105200000A4A11400160016821F48021016041686F
:1052100021F4FE0141604FF41F0181600449C00385
:1052200008607047001002400000FFF8FFFFF6FE24
:1052300008ED00E02DE9F041044620680169E268CC
:1052400021F4405111430161A16820690143606963
:1052500001432068C26841F20C639A430A43C2606A
:1052600020684169A26921F44071114341613349C9
:10527000206864253226884230D1FCF72DFC00EBF3
:10528000C00101EB001061688900B0FBF1F0B0FBD8
:10529000F5F7FCF721FC00EBC00101EB00106168A1
:1052A0008900B0FBF1F8FCF717FC00EBC00101EB43
:1052B000001061688900B0FBF1F0B0FBF5F06FF011
:1052C0001801484308EB800006EB0010B0FBF5F036
:1052D000216867F31F108860BDE8F081FCF7E6FBEA
:1052E00000EBC00101EB001061688900B0FBF1F038
:1052F000B0FBF5F7FCF7DAFB00EBC00101EB0010A7
:1053000061688900B0FBF1F8FCF7D0FB00EBC0014D
:1053100001EB001061688900B0FBF1F0B0FBF5F023
:105320006FF01801484308EB800006EB0010B0FB5B
:10533000F5F0216867F31F108860CDE70038014061
:1053400010B5D0F8142252689047002010BD10B557
:10535000044694F8FC01022806D0032804D0204615
:10536000BDE8104000F021B8488801280CD1002089
:10537000C4F80402D4F814028268204690472046FC
:10538000BDE8104000F035B810BD10B513460A4610
:10539000002100F0BBFA002010BD10B513460A46EC
:1053A000002100F039FB002010BD10B5044680211B
:1053B000204600F01BFB2046BDE81040002100F015
:1053C00015BB10B50521C0F8F41100231A46194683
:1053D00000F09CFA002010BD10B50223C0F8F43193
:1053E0008261C26113460A46002100F015FB0020CD
:1053F00010BD10B50421C0F8F41100231A46194657
:1054000000F00AFB002010BD10B5002806D00A46A7
:10541000054906A000F04DF9034810BD0A460249AF
:1054200002A000F046F9F7E7480900204D53432059
:10543000436F6E666967000012200880004870475D
:105440006000002010B5002806D00A46054906A0D5
:1054500000F02FF9034810BD0A46024902A000F0EF
:1054600028F9F7E7480900204D534320496E746539
:105470007266616365000000042008800048704780
:105480005C00002010B50A46024903A000F011F9A3
:10549000004810BD4809002053544D6963726F6580
:1054A0006C656374726F6E696373000010B50028D9
:1054B00006D00A46054906A000F0FBF8034810BDD7
:1054C0000A46024902A000F0F4F8F7E74809002074
:1054D00053544D3332204D6173732053746F726196
:1054E0006765000010B5002806D00A46054906A0E9
:1054F00000F0DFF8034810BD0A46024902A000F0A0
:10550000D8F8F7E7480900203030303030303030FC
:105510003030314100000000CA88012A01D0FFF775
:1055200044BF90F8FC21022A03D0032A08D0FFF7D9
:105530003CBF00218160012200F10801FFF74CBF50
:105540000122011DFFF748BFF8B504460D466888E3
:10555000010A082972D2DFE801F089040C1F898949
:105560005C6AD4F81012207C0A68694690470146AC
:105570006DE0207C022638B1D4F81402C16A684676
:10558000884701464E7062E0D4F81402816A68468A
:10559000884701464E705AE0C0B2062834D2DFE890
:1055A00000F0030B131B232BD4F81012207C4A6845
:1055B0006946904701464AE0D4F81012207C8A6878
:1055C00069469047014642E0D4F81012207CCA6830
:1055D0006946904701463AE0D4F81012207C0A69E7
:1055E00069469047014632E0D4F81012207C4A699F
:1055F0006946904701462AE0D4F81012207C8A6957
:1056000069469047014622E029462046FFF7CDFE35
:10561000F8BD207C20B129462046FFF7C6FEF8BD24
:10562000D4F81402416B6846884701460FE0207C9D
:1056300028B129462046FFF7B8FEF8BD16E0D4F899
:105640001402016B68468847014607204870BDF880
:1056500000000028F1D0EA88002AEED0824200D96A
:10566000024600922046FFF7B7FEE6E729462046AD
:10567000FFF79BFEE1E7002102E0491CC9B2401C94
:105680000278002AF9D10846704790F8FC21022AD6
:1056900003D0032A01D0FFF788BE0121C160D0F8F2
:1056A000041209B10321C160022200F10C01FFF7CD
:1056B00093BE70B504460D461646002C16D0204603
:1056C000FFF7D9FF022101EB400030802870032151
:1056D00002206970002306E0411CC9B22A54641CF0
:1056E000481CC0B26B542278002AF5D170BD10B5A9
:1056F000002810D0D0F8143213B10023C0F81432AF
:1057000009B1C0F81012012180F8FC11027000F0FC
:10571000B1F8002010BD022010BD10B5D0F8200255
:10572000FBF7E8FC002010BD10B5D0F82002FBF715
:10573000C1FC002010BD70B504461346002908D0F6
:10574000D4F814024269BAB394F8FC0103284BD090
:105750004CE004F11400D4F8F4110025022939D1E9
:10576000D0E902218A420DD9511A81608AB21946C4
:105770002046FFF712FE00231A461946204600F085
:10578000C5F827E04068B0FBF1F201FB1202A2B9B4
:10579000884212D3D4F8F81188420ED20022114662
:1057A0002046FFF7FAFDC4F8F85100231A461946BF
:1057B000204600F0ABF80DE015E0D4F81402C16803
:1057C00029B194F8FC01032801D1204688472046DE
:1057D000FFF7F7FD94F80002012807D1204600F0FA
:1057E0002CFA84F8005201E020469047002070BD5A
:1057F00070B504461546002908D0D4F81402826911
:105800003AB394F8FC01032824D025E004F5827013
:10581000D4F8F41103291FD1D0E9021399420BD90E
:10582000C91A8160C068814200D301468AB2294604
:105830002046FFF7AAFD0FE0D4F81402016929B150
:1058400094F8FC01032801D1204688472046FFF741
:10585000D0FD01E020469047002070BD10B5D0F883
:105860002002FBF76BFC002010BDD0F82002FBF7F4
:105870007FBC000010B504461648C0F81C4404F56F
:105880000874206014490160082141600221816090
:105890000321C16000218161C1610162FBF78BFDC1
:1058A0000022182311462068FBF7DAFB5823002258
:1058B00080212068FBF7D4FB9823002281212068F7
:1058C000FBF7CEFBD823002201212068FBF7C8FBA1
:1058D000002010BD28050020005C00400A06D0F81A
:1058E000200201F07F0100EB411002D590F82A0060
:1058F000704790F80A02704710B514461A46D0F85F
:1059000020022346FBF73CFC002010BD10B5D0F868
:105910002002FBF757FC002010BD70B504460022A2
:10592000402311462046FFF7E7FF4025C4F81051F9
:105930004023002280212046FFF7DEFF2562012060
:1059400084F8FC01D4F8180228B1D4F814022179A3
:10595000426820469047002070BD90F8FD1180F805
:10596000FC110020704710B590F8FC11032904D1F8
:10597000D0F81412C96901B18847002010BD017424
:105980000020704710B5D0F82002FBF7A4FD0020DE
:1059900010BD70B5044604F50270054600F030F9FC
:1059A0000120C4F8F401B4F80E02C4F8F80194F828
:1059B000082212F01F000AD001280DD0022810D0B2
:1059C00002F08001204600F011F8002070BD294649
:1059D000204600F0E4F9F8E72946204600F094FA62
:1059E000F3E72946204600F0FFF9EEE710B5D0F8BE
:1059F0002002FBF70CFC002010BD10B5D0F82002EF
:105A0000FBF784FD002010BD00F5FE7001784170A9
:105A1000042101700020704710B5D0F82002FBF778
:105A200021FC002010BD10B5FDF7C7FD002010BD02
:105A300010B5FDF7E3FD002010BD10B504460121AF
:105A40002046FFF771FE81212046FFF76DFE2046BC
:105A5000FDF7F2FDD4F8180220B100F077FA00202B
:105A6000C4F81802002010BD0A21018000487047C8
:105A70001C0100202021018000487047DC0000202C
:105A80002021018000487047BC00002020210180B7
:105A900000487047FC00002070B505460024287CB3
:105AA000002817D04023022201212846FFF724FFB7
:105AB0004023022281212846FFF71EFF4FF41B706E
:105AC00000F046FAC5F8180298B12846FDF7B9FD6E
:105AD000E0B270BD4FF40076334602220121284621
