:020000040800F2
:1000000058160020450100084D0100084F01000866
:1000100051010008530100085501000800000000CC
:100020000000000000000000000000005701000870
:1000300059010008000000005B010008357A000843
:100040005F0100085F0100085F010008CD5E000845
:100050005F0100085F0100085F0100085F01000800
:100060005F0100085F0100085F0100085F010008F0
:100070005F0100085F0100085F0100085F010008E0
:100080005F0100085F0100085F0100085F010008D0
:10009000519700085F0100085F0100085F01000838
:1000A0005F0100085F0100085F0100085F010008B0
:1000B0005F0100085F0100085F0100085F010008A0
:1000C0005F0100085F0100085F0100085F01000890
:1000D0005F0100085F0100085F0100085F01000880
:1000E0005F0100085F0100085F0100085F01000870
:1000F0005F0100085F0100085F0100085F01000860
:100100005F010008956A00085F0100085F010008B0
:100110005F0100085F0100085F0100085F0100083F
:100120005F0100085F0100085F010008A9080008DE
:10013000DFF80CD000F0E2FA00480047C9A200083E
:10014000581600200648804706480047FEE7FEE7AD
:10015000FEE7FEE7FEE7FEE7FEE7FEE7FEE7FEE777
:10016000C57A0008310100082DE9F05F054600203E
:1001700092469B4688460646814640241BE0284618
:1001800041464746224600F020F853465A46C01AD8
:10019000914110D311461846224600F033FA2D1A29
:1001A00067EB01084F4622460120002100F02AFAA1
:1001B00017EB00094E41201EA4F10104DFDC484684
:1001C00031462A464346BDE8F09F202A04DB203A08
:1001D00021FA02F00021704721FA02F3D040C2F167
:1001E0002002914008431946704740EA01039B07EB
:1001F00003D009E008C9121F08C0042AFAD203E09C
:1002000011F8013B00F8013B521EF9D27047D2B2FF
:1002100001E000F8012B491EFBD270470022F6E7EF
:1002200010B513460A4604461946FFF7F0FF20466C
:1002300010BD2DE9FE4F804681EA0300C00F0C4639
:10024000009021F0004123F00045B8EB0200A941E5
:1002500005D24046214690461C460B46024623F0F6
:100260000040104347D0270DC7F30A00C3F30A51DB
:100270000290401A019040286BDAC3F3130040F457
:10028000801B0098924620B10023D2EB030A63EB57
:100290000B0B01985946C0F14002504600F0B2F9EC
:1002A00006460D4650465946019A00F0BAF910EB41
:1002B00008006141002487EA115284EAE7731A4377
:1002C00040D0009A62B3019A012A4FEA075215DC26
:1002D000001B61EB02014FF0004202EA0752CDE938
:1002E0000042001C41F5801132462B4600F0B8F95F
:1002F00003B0BDE8F08F40462146F9E7001B61EBF3
:100300000201001C41F5801300185B412018A2F582
:10031000001747EB030140EAD570B6196D4111E0B3
:100320006D084FEA360645EAC0754FEA0752001BD2
:1003300061EB0201001C41F5801149084FEA3000D1
:100340000019514132462B4603B0BDE8F04F00F092
:100350007AB90098012240000023D0EB020263EB3F
:10036000E073009821464FEAE074B8EB000061EBBF
:100370000401E9E783F000435BE781F0004158E7BF
:100380002DE9FE4F81EA030404F0004421F000410E
:1003900000944FF0000B23F0004350EA01045ED0BC
:1003A00052EA03045BD0C3F30A54C1F30A552C4448
:1003B000A4F2F3340194A0FB0254C1F3130141F4FD
:1003C0008011C3F3130343F4801301FB024400FBC9
:1003D000034E840A970A44EA815447EA8357A4FBF0
:1003E000076802958D0A05FB07854FEA932C04FBED
:1003F0000C542705029D4FEA065847EA1637B5EB1D
:1004000008056EEB070C870E920E47EA811742EA49
:100410008312A7FB0201B6EB0B0164EB00042B0D6A
:1004200043EA0C335E1844EB1C50DA465146E7FBB6
:100430000201C5F313044FEA0B3343EA14534FEAA6
:100440000432019C43EA0603A4F10C040294009CCC
:10045000CDE900B400F004F903B0BDE8F08F00204E
:100460000146F9E72DE9F04D81EA030404F0004B61
:1004700021F0004514464FF0000A23F0004150EAF5
:10048000050220D054EA01021DD0C5F30A570246E6
:10049000C5F31303C1F31300C1F30A5640F48015EA
:1004A00043F48013A7EB0608101BD64608F2FD386C
:1004B00073EB050002D308F1010801E092185B41DB
:1004C000B8F1000F03DA00200146BDE8F08D0020EE
:1004D0004FF48011064684460EE0171B73EB0507A8
:1004E00005D3121B63EB050306434CEA010C4908D4
:1004F0004FEA300092185B4150EA0107EDD152EA11
:10050000030012D082EA040083EA0501084305D003
:10051000101BAB4106D20122002306E000224FF05F
:10052000004302E06FF0010253101AEB06004CEB9F
:10053000085110EB0A0041EB0B01BDE8F04D00F053
:1005400082B80EB5C10F80EAE0700844CA070021E6
:1005500040F233438DE80E000A460B4600F080F867
:1005600003B000BD0EB540F2334102910021CDE948
:1005700000110A460B4600F073F803B000BDC1F34A
:100580000A5210B5C1F3130140F2FF3341F4801158
:100590009A4201DA002010BD40F233439A42A2F29F
:1005A000334203DC5242FFF710FE10BD904010BDF5
:1005B00030B5002904DB4FF00044404264EB0101F8
:1005C000002B04DB4FF00044524264EB03038B42E8
:1005D00008BF824230BD000030B50B460146002006
:1005E0002022012409E021FA02F59D4205D303FAF5
:1005F00002F5491B04FA02F52844151EA2F1010276
:10060000F1DC30BD202A04DB203A00FA02F10020A0
:1006100070479140C2F1200320FA03F31943904040
:100620007047202A06DBCB17203A41FA02F043EA52
:10063000E07306E041FA02F3D040C2F1200291409B
:1006400008431946704710B5002B08DA401C41F1E9
:10065000000192185B411A4301D120F0010010BD46
:100660002DE9F04D92469B4611B1B1FA81F202E0BC
:10067000B0FA80F220329046FFF7C4FF04460F46DE
:1006800040EA0A0041EA0B0153465A46084313D098
:10069000114653EA010019D0C8F140025046FFF755
:1006A00094FD05460E46504659464246FFF7AAFFBE
:1006B000084305D0012004E020463946BDE8F08D0E
:1006C0000020054346EAE0762C4337430A98630549
:1006D000E40AA0EB08000022FD0A44EA47540A306D
:1006E00002D500200146E9E7010510196941DDE95D
:1006F000084500196941BDE8F04DA4E7064C074DD7
:1007000006E0E06840F0010394E8070098471034E1
:10071000AC42F6D3FFF710FD58A8000878A80008EF
:1007200070B58C1810F8015B15F0070301D110F8B3
:10073000013B2A1106D110F8012B03E010F8016BE0
:1007400001F8016B5B1EF9D12B0705D40023521E63
:100750000DD401F8013BFAE710F8013BCB1A921CCB
:1007600003E013F8015B01F8015B521EF9D5A142C9
:10077000D8D3002070BD000008B500BF13488069C1
:1007800040F48050114988610846806900F4805027
:10079000009000BF00BF0E480E4908604FF4827001
:1007A000486000210B488160C160016141614FF4E4
:1007B000007181613821C161002101624162816261
:1007C0000A21C16203F08EFE08BD00000010024045
:1007D00000300140E002002010B5044621460248E6
:1007E00003F0B3F810BD00006401002010B502480A
:1007F00003F09AF810BD00006401002010B5002439
:1008000000F01CF80446012C01D0012010BD09495C
:10081000094803F071FA04464CB94FF400610648E8
:1008200003F037FC08B10120F0E70020EEE70120DB
:10083000ECE70000C80100206401002008B5012099
:1008400000909DF8000008BD2DE9FC4104461546C6
:100850001E46DDE908782A46334621460548CDE99B
:10086000007803F0F7FA10B10120BDE8FC81002008
:10087000FBE70000640100202DE9FC410446154619
:100880001E46DDE908782A46334621460548CDE96B
:10089000007803F08FFD10B10120BDE8FC8100203D
:1008A000FBE700006401002010B5024800F03EF9AB
:1008B00010BD00002002002010B504686360446889
:1008C000102C04D10468A2600468E16003E00468AD
:1008D000A1600468E26010BD10B5002108E00622A6
:1008E00000BF1300A2F10104E2B2FAD14A1C91B296
:1008F0008142F4D310BD704730B504460D46002246
:100900002946204600F002F830BD0000F0B503464D
:10091000012500241148407A01281CDC00200F4EDC
:10092000767A0E4FB8553846467A001D40F8263084
:10093000001F467A083082553E46707A461C7E7209
:10094000044604F1300008703A2048702F20887067
:100950000020C87000252846F0BD0000300E0020A1
:100960000020014908887047000002604FF0C04134
:10097000088070470149088070470000000002604D
:1009800000B503460A461846FFF7F0FF1046FFF78A
:10099000F1FF00BD70B50446B3F5804F24D1F026B9
:1009A00096FAA6F6B6FA86F6D1E90005B5402843D0
:1009B0004FF47F4696FAA6F6B6FA86F68D68B540ED
:1009C00028438D6928434FF4702696FAA6F6B6FAA6
:1009D00086F6CD68B540284354F82250054E354080
:1009E000284344F8220003E06FF0704044F82200EE
:1009F000002070BD0000F0CF10B50246086852F824
:100A0000200020F001000B6842F8230088680828C5
:100A100022D1486840F040008B681843CB681843E7
:100A20000B6918434B6918438B691843CB6918430A
:100A30000B6A18434B6A18438B6A1843CB6A1843F6
:100A40000B6B18430B6852F82330144C23401843A7
:100A50000B6842F823001FE0D1E901031843CB687B
:100A600018430B6918434B6918438B691843CB69CA
:100A700018430B6A18434B6A18438B6A1843CB6AB6
:100A800018430B6B18430B6852F82330034C234078
:100A900018430B6842F82300002010BD8100F7FFC7
:100AA00030B50346F02595FAA5F5B5FA85F5D1E9F7
:100AB0000004AC4020434FF47F4595FAA5F5B5FA04
:100AC00085F58C68AC4020434FF4702595FAA5F568
:100AD000B5FA85F5CC68AC4020430C69641E4FF430
:100AE000700595FAA5F5B5FA85F5AC4020434C693B
:100AF000A41E4FF0706595FAA5F5B5FA85F5AC40E2
:100B000020438C692043541C53F8244004F0404493
:100B10002043541C43F82400002030BD00B504F0ED
:100B2000F9FA0149087000BD2000002010B5044604
:100B3000F8492068884255D9F7480068F54A783A5C
:100B40002168914201D108214AE0F24A643A2168C1
:100B5000914201D1802143E0EE4A503A216891420E
:100B600001D1C9143CE0EB4A3C3A2168914202D1E0
:100B70004FF4004134E0E74A283A2168914202D11B
:100B80004FF400212CE0E34A143A2168914202D14B
:100B90004FF4000124E0DF4A2168914201D10905A8
:100BA0001EE0DD4A08322168914201D1082117E098
:100BB000D94A1C322168914201D1802110E0D64AE5
:100BC00030322168914201D1C91409E0D24A44323D
:100BD0002168914202D14FF4004101E04FF400211D
:100BE000084055E0CB4880380068CA4A783A216806
:100BF000914201D108214AE0C64A643A21689142F3
:100C000001D1802143E0C34A503A2168914201D189
:100C1000C9143CE0BF4A3C3A2168914202D14FF4EA
:100C2000004134E0BB4A283A2168914202D14FF496
:100C300000212CE0B74A143A2168914202D14FF4C6
:100C4000000124E0B34A2168914201D109051EE068
:100C5000B14A08322168914201D1082117E0AE4A19
:100C60001C322168914201D1802110E0AA4A303221
:100C70002168914201D1C91409E0A74A4432216890
:100C8000914202D14FF4004101E04FF400210840AD
:100C9000002873D020680068C0F3C0000028F8D096
:100CA0002068006820F008002168086099492068E1
:100CB000884255D9974978392068884201D108205F
:100CC0004AE0944964392068884201D1802043E099
:100CD000904950392068884201D1C0143CE08D49C8
:100CE0003C392068884202D14FF4004034E0894901
:100CF00028392068884202D14FF400202CE0854931
:100D000014392068884202D14FF4000024E0814960
:100D10002068884201D100051EE07F490831206823
:100D2000884201D1082017E07B491C3120688842A5
:100D300001D1802010E0784930312068884201D10B
:100D4000C01409E0744944312068884202D14FF44C
:100D5000004001E04FF400206F49091D086055E094
:100D60006C4978392068884201D108204BE06949F4
:100D700064392068884202D1802044E057E0654908
:100D800050392068884201D1C0143CE061493C39A7
:100D90002068884202D14FF4004034E05D49283990
:100DA0002068884202D14FF400202CE059491439C0
:100DB0002068884202D14FF4000024E055492068A1
:100DC000884201D100051EE053490831206888425D
:100DD00001D1082017E050491C312068884201D118
:100DE000802010E04C4930312068884201D1C01485
:100DF00009E0494944312068884202D14FF400405B
:100E000001E04FF40020434980394860606B40F0B6
:100E100001006063042084F8210000BF002084F8F2
:100E2000200000BF206B10B12046216B8847394954
:100E30002068884255D938480068364A783A21688F
:100E4000914201D104214AE0324A643A2168914238
:100E500001D1402143E02F4A503A2168914201D10B
:100E600009153CE02B4A3C3A2168914202D14FF4EB
:100E7000804134E0274A283A2168914202D14FF458
:100E800080212CE0234A143A2168914202D14FF488
:100E9000800124E01F4A2168914201D1C9041EE06B
:100EA0001D4A08322168914201D1042117E01A4AF3
:100EB0001C322168914201D1402110E0164A3032A3
:100EC0002168914201D1091509E0134A4432216891
:100ED000914202D14FF4804101E04FF4802108405B
:100EE00059E00C48803800680A4A783A21689142F3
:100EF00001D104214EE0074A643A2168914201D1B0
:100F0000402147E0034A503A2168914206D1091531
:100F100040E000008000024000040240F74A2168DF
:100F2000914202D14FF4804134E0F44A14322168F6
:100F3000914202D14FF480212CE0F04A28322168FE
:100F4000914202D14FF4800124E0EC4A3C32216806
:100F5000914201D1C9041DE0E94A2168914201D1C1
:100F6000042117E0E64A14322168914201D1402160
:100F700010E0E34A28322168914201D1091509E0C5
:100F8000DF4A3C322168914202D14FF4804101E0B6
:100F90004FF48021084080B320680068C0F38000CF
:100FA00058B32068006800F0200028B92068006865
:100FB00020F0040021680860D0493C312068884254
:100FC00055D9CE493C392068884201D104204AE0F5
:100FD000CA4928392068884201D1402043E0C749E6
:100FE00014392068884201D100153CE0C3492068CB
:100FF000884203D14FF4804035E094E0BF4914317A
:101000002068884202D14FF480202CE0BB4928316F
:101010002068884202D14FF4800024E0B7493C3177
:101020002068884201D1C0041DE0B549206888428B
:1010300001D1042017E0B24914312068884201D15F
:10104000402010E0AE4928312068884201D10015C7
:1010500009E0AB493C312068884202D14FF480401E
:1010600001E04FF48020A649091F086053E0A3491E
:101070003C392068884201D1042049E09F49283941
:101080002068884201D1402042E09C491439206800
:10109000884201D100153BE098492068884202D17E
:1010A0004FF4804034E0954914312068884202D1E1
:1010B0004FF480202CE0914928312068884202D1E9
:1010C0004FF4800024E08D493C312068884201D1F2
:1010D000C0041DE08A492068884201D1042017E03D
:1010E000874914312068884201D1402010E08449AA
:1010F00028312068884201D1001509E080493C313F
:101100002068884202D14FF4804001E04FF48020F3
:101110007A4944394860112084F82100E06A10B10E
:101120002046E16A884775493C312068884255D994
:10113000734808380068714A3C3A2168914201D1ED
:10114000022149E06D4A283A2168914201D12021CB
:1011500042E06A4A143A2168914201D149153BE0C4
:10116000664A2168914202D14FF4005134E0634A4B
:1011700014322168914202D14FF400312CE05F4AD1
:1011800028322168914202D14FF4001124E05B4AD9
:101190003C322168914201D189041DE0584A2168FE
:1011A000914201D1022117E0554A1432216891423F
:1011B00001D1202110E0524A28322168914201D108
:1011C000491509E04E4A3C322168914202D14FF460
:1011D000005101E04FF40031084054E047484438E2
:1011E0000068464A3C3A2168914201D1022149E017
:1011F000424A283A2168914201D1202142E03F4AE7
:10120000143A2168914201D149153BE03B4A2168DB
:10121000914202D14FF4005134E0384A143221682F
:10122000914202D14FF400312CE0344A2832216837
:10123000914202D14FF4001124E0304A3C3221683F
:10124000914201D189041DE02D4A2168914201D1CA
:10125000022117E02A4A14322168914201D120214B
:1012600010E0274A28322168914201D1491509E04E
:10127000234A3C322168914202D14FF4005101E0EF
:101280004FF40031084080B320680068C0F340008C
:1012900058B32068006800F0200028B92068006872
:1012A00020F002002168086014493C31206888421F
:1012B00058D912493C392068884201D102204DE0BA
:1012C0000E4928392068884201D1202046E00B4988
:1012D00014392068884201D140153FE00749206851
:1012E000884203D14FF4005038E09EE003491431A6
:1012F0002068884206D14FF400302FE044000240BD
:101300000804024049492068884202D14FF4001085
:1013100024E0464914312068884201D180041DE050
:1013200043492068884201D1022017E04049143126
:101330002068884201D1202010E03D4928312068F2
:10134000884201D1401509E039493C312068884282
:1013500002D14FF4005001E04FF400303449091F2E
:10136000086053E0314964392068884201D1022085
:1013700049E02E4950392068884201D1202042E0BE
:101380002A493C392068884201D140153BE0274971
:1013900028392068884202D14FF4005033E02349B5
:1013A00014392068884202D14FF400302BE01F49E5
:1013B0002068884202D14FF4001024E01B49143108
:1013C0002068884201D180041DE0194920688842C4
:1013D00001D1022017E0164914312068884201D15A
:1013E000202010E0124928312068884201D14015A0
:1013F00009E00F493C312068884202D14FF4005087
:1014000001E04FF4003009496C394860606B60635B
:10141000012084F8210000BF002084F8200000BFD4
:10142000A06A10B12046A16A884710BD6C00024036
:10143000080402400146002209B90120704791F8D2
:10144000210010B9002081F82000022081F821003D
:101450000868026843F6F0708243D1E9010318433B
:10146000CB6818430B6918434B6918438B691843C1
:10147000CB691843024308680260002048630120DA
:1014800081F821000020D9E72DE9F04104460D46FE
:1014900016461F4600BF94F82000012802D1022002
:1014A000BDE8F081012084F8200000BF022084F80C
:1014B00021002068006820F00100216808603B4698
:1014C000324629462046FFF7F7F92068006840F0C9
:1014D0000200216808602068006840F0040021686C
:1014E00008602068006840F00800216808602068F3
:1014F000006840F00100216808600020D0E731B5A5
:10150000002400F0EFF9044600BF00F0EBF9001BE7
:1015100000998842F9D338BD00B585B016480068F7
:1015200008B105B000BD01201349086000BF134891
:10153000406940F48070114948610846406900F4F0
:101540008070009000BF00BF4FF6807001900220B5
:1015500002900320049001A9094800F015F84CF608
:10156000B3700190022002900320049001A9054865
:1015700000F00AF800BFD4E7080000200010024085
:1015800000180140001401402DE9F84702460024EC
:10159000002000258446002700237BE14FF001084E
:1015A00008FA03F4D1F8008008EA0400A0427DD1D3
:1015B000DFF8ECA2D1F80480A8EB0A09D0453AD0B4
:1015C00014DCB8F1030F50D009DCB8F1000F31D0B2
:1015D000B8F1010F1CD0B8F1020F49D120E0B8F1E9
:1015E000110F18D0B8F1120F42D11EE0B9F5881FC3
:1015F00025D006DCB9F5803F20D0B9F5801F37D162
:101600001AE0B9F5001F18D0B9F5041F30D117E062
:10161000D1F80CC02DE0D1F80C8008F1040C28E0C2
:10162000D1F80C8008F1080C23E0D1F80C8008F107
:101630000C0C1EE000BF00BF00BF00BF00BF00BF1A
:10164000D1F80880B8F1000F02D14FF0040C0BE084
:10165000D1F80880B8F1010F03D14FF0080C1461E4
:1016600002E04FF0080C546103E04FF0000C00E082
:1016700000BF00BFFF2801D8904601E002F1040836
:101680004646FF2802D84FEA830803E0A3F1080882
:101690004FEA88084746D6F800804FF00F0909FA4C
:1016A00007F928EA09080CFA07F900E07AE048EAA5
:1016B0000908C6F80080D1F8048008F08058B8F115
:1016C000805F6FD100BFDFF8DC81D8F8188048F068
:1016D0000108DFF8D091C9F81880C846D8F81880FA
:1016E00008F00108CDF8008000BF00BF4FEAB9380C
:1016F0004FEA930958F829504FEA83784FEA18794E
:101700004FF00F0808FA09F825EA0805DFF8988174
:10171000424502D14FF0000824E0DFF890814245B5
:1017200002D14FF001081DE0DFF88481424502D16B
:101730004FF0020816E0DFF87C81424502D14FF0FD
:1017400003080FE0DFF87081424502D14FF0040832
:1017500008E0DFF86881424502D14FF0050801E05A
:101760004FF006084FEA83794FEA197908FA09F829
:1017700048EA0505DFF848814FEA930948F82950FF
:10178000D1F8048008F48038B8F5803F0BD1DFF839
:101790003481D8F8008048EA0008DFF82891C9F8B9
:1017A00000800AE075E0DFF81C81D8F8008028EAA4
:1017B0000008DFF81091C9F80080D1F8048008F41F
:1017C0000038B8F5003F0ED1DFF8F88008F10408C2
:1017D000D8F8008048EA0008DFF8E89009F1040929
:1017E000C9F800800DE0DFF8DC8008F10408D8F8C3
:1017F000008028EA0008DFF8CC9009F10409C9F854
:101800000080D1F8048008F48018B8F5801F0ED14C
:10181000DFF8B08008F10808D8F8008048EA00082E
:10182000DFF8A09009F10809C9F800800DE0DFF8A1
:10183000948008F10808D8F8008028EA0008DFF84A
:10184000849009F10809C9F80080D1F8048008F4EF
:101850000018B8F5001F0ED1DFF8688008F10C08F9
:10186000D8F8008048EA0008DFF8589009F10C0920
:10187000C9F800800DE0DFF84C8008F10C08D8F8BA
:10188000008028EA0008DFF83C9009F10C09C9F84B
:1018900000805B1C102BFFF481AEBDE8F8870000D0
:1018A000000011100010024000080140000C01402F
:1018B000001001400014014000180140001C0140CC
:1018C0000800014000040140024693680B400BB140
:1018D000012000E0002070470AB1016101E00B0423
:1018E0000361704701480068704700000000002055
:1018F00002480068401C0149086070470000002051
:1019000010B50848006840F0100006490860032040
:1019100000F09AF8022000F007F800F017F8002015
:1019200010BD00000020024070B5044600F0B6FF74
:101930004FF47A71B0FBF1F5284603F008FA002263
:101940002146501E00F041F8002070BD08B500BFD0
:101950001648806940F00100144988610846806992
:1019600000F00100009000BF00BF032000F06CF801
:10197000002211466FF00B0000F027F800221146FC
:101980006FF00A0000F021F8002211466FF0090004
:1019900000F01BF800221146101F00F016F800227C
:1019A0000221C81E00F011F808BD0000001002401E
:1019B00000BF00F01F02012191404209920002F194
:1019C000E022C2F8001100BF70472DE9F05F8046A9
:1019D0000D461646002703F06FFF074639462A4694
:1019E000334601F00700C0F1070ABAF1040F02D92B
:1019F0004FF0040A01E0C0F1070AD14600F1040AE1
:101A0000BAF1070F02D24FF0000A01E0A0F1030A79
:101A1000D4464FF0010A0AFA09FAAAF1010A0AEAC1
:101A2000020A0AFA0CFA4FF0010B0BFA0CFBABF1AD
:101A3000010B0BEA030B4AEA0B042146404603F074
:101A400043FFBDE8F09F000000BF00F00702064B17
:101A500019684FF6FF031940044B0B4343EA022178
:101A6000014B196000BF70470CED00E00000FA0563
:101A700070B505460C46002104F08000802806D190
:101A800004F07F0605F1280000EB461103E005F5A0
:101A9000027000EB44111AB9002088728B8004E0B8
:101AA00001208872CB80180C0881002070BD70471F
:101AB00070B504460D4604F1280101EB45114A6951
:101AC0002946D4F81C0406F007FC70BD70B5044626
:101AD0000D4604F5027101EB45114A692946D4F817
:101AE0001C0406F066FC70BD70B504460D46002669
:101AF00005F08000802806D105F07F0104F1280060
:101B000000EB411605E005F07F0104F5027000EBE3
:101B1000411605F07F00307005F08000C00970703C
:101B200000BF94F8E803012801D1022070BD012014
:101B300084F8E80300BF3146206807F098FA00BF38
:101B4000002084F8E80300BF00BFEFE770B504464B
:101B50000D46002605F08000802806D105F07F01A3
:101B600004F1280000EB411603E004F5027000EBDD
:101B700045160020B07005F07F003070C5F3C0102E
:101B8000707000BF94F8E803012801D1022070BDF5
:101B9000012084F8E80300BF3146206807F090FB7D
:101BA00000BF002084F8E80300BF00BFEFE770B576
:101BB00004460D4600BF94F8E803012801D1022035
:101BC00070BD012084F8E80300BF05F08000802884
:101BD00005D105F07F01206807F0B6FD02E020681E
:101BE00007F0AFFD00BF002084F8E80300BF00BF8E
:101BF000E6E7024601F07F0302F5027000EB4310B6
:101C0000808B80B270472DE9F04704460D46174699
:101C100098464FF00009002605F08000802806D184
:101C200005F07F0104F1280000EB411605E005F006
:101C30007F0104F5027000EB411605F07F00307063
:101C400005F08000C0097070376186F8038000BF1E
:101C500094F8E803012802D10220BDE8F0870120B2
:101C600084F8E80300BF3146206807F027F800BF7A
:101C7000002084F8E80300BF4846EEE72DE9F04174
:101C800004460E4617469846002506F07F0104F5E7
:101C9000027000EB41156F61C5F818800020E86103
:101CA000687006F07F00287000BF94F8E8030128F0
:101CB00002D10220BDE8F081012084F8E80300BFD2
:101CC00006F07F0020B92946206807F096FB03E064
:101CD0002946206807F091FB00BF002084F8E80344
:101CE00000BF00BFE6E770B504460D46002605F0CC
:101CF0008000802806D105F07F0104F1280000EB68
:101D0000411603E004F5027000EB45160120B070A7
:101D100005F07F003070C5F3C010707000BF94F8FC
:101D2000E803012801D1022070BD012084F8E803F6
:101D300000BF3146206807F01DFB05F07F0020B989
:101D400004F57B71206807F0B8FA00BF002084F822
:101D5000E80300BF00BFE7E72DE9F04104460E4667
:101D600017469846002506F07F0104F1280000EB95
:101D700041156F61C5F818800020E8610120687086
:101D800006F07F00287000BF94F8E803012802D114
:101D90000220BDE8F081012084F8E80300BF06F0CE
:101DA0007F0020B92946206807F027FB03E0294679
:101DB000206807F022FB00BF002084F8E80300BF82
:101DC00000BFE6E770B504460025206807F0C8FCB0
:101DD00000F40040B0F5004F02D1204603F088FD2A
:101DE000206807F0BDFC00F48060B0F5806F0ED174
:101DF0002068B0F8440020F480602168A1F8440015
:101E0000204600F041F90021204600F060F92068EA
:101E100007F0A6FC00F48040B0F5804F07D12068A1
:101E2000B0F8440020F480402168A1F84400206804
:101E300007F096FC00F40050B0F5005F07D1206871
:101E4000B0F8440020F400502168A1F84400206854
:101E500007F086FC00F48050B0F5805F17D1206851
:101E6000B0F8400020F004002168A1F840004FF4D1
:101E70003D452068A0F84050204600F01AF920683F
:101E8000B0F8440020F480502168A1F84400206894
:101E900007F066FC00F40060B0F5006F20D1206808
:101EA000B0F8440020F400602168A1F844002068E4
:101EB000B0F8400040F008002168A1F84000206818
:101EC000B0F8400040F004002168A1F8400020680C
:101ED00007F046FCC0F3003010B9204600F03AF994
:101EE000206807F03DFC00F40070B0F5007F0AD1D7
:101EF0002068B0F8440020F400702168A1F8440084
:101F0000204600F0DDF8206807F02AFC00F480701D
:101F1000B0F5807F07D12068B0F8440020F48070CD
:101F20002168A1F8440070BD30B585B00446002595
:101F300014B9012005B030BD94F8E90328B9002098
:101F400084F8E803204600F07DF8032084F8E903D4
:101F5000206807F0A7F9142204F110016846FEF783
:101F600044F994E80F0007F07EF80021206807F09C
:101F700010FC002525E0012104F1280000EB4510AC
:101F8000417004F1280000EB4510057004F12800B1
:101F900000EB45108581002104F1280000EB45107D
:101FA000C17004F1280000EB4510016104F1280024
:101FB00000EB4510416104F1280000EB4510816100
:101FC0006D1C0F2DD7D3002524E0002104F50270ED
:101FD00000EB4510417004F5027000EB45100570F0
:101FE00004F1280000EB4510858104F5027000EB38
:101FF0004510C17004F5027000EB4510016104F555
:10200000027000EB4510416104F5027000EB4510D1
:1020100081616D1C0F2DD8D3142204F11001684684
:10202000FEF7E3F894E80F0007F031F9002084F898
:102030002400012084F8E903206807F025F9002036
:1020400078E7000038B504460D492068884215D16C
:1020500000BF0C48C06940F400000A49C861084646
:10206000C06900F40000009000BF00BF00221146CC
:102070001420FFF7AAFC1420FFF79AFC38BD0000DB
:10208000005C00400010024070B504460125A068C5
:10209000022801D100BF01E0012500BF00BF294691
:1020A000D4F81C0406F086FAD4F81C0406F048FAAA
:1020B00070BD10B50446D4F81C0406F063FA10BDD8
:1020C00010B50446D4F81C0406F063FA10BD70B5D0
:1020D00004460D4600BF94F8E803012801D1022010
:1020E00070BD012084F8E80300BF84F8245029461D
:1020F000206807F051FB00BF002084F8E80300BF10
:1021000000BFEDE710B5044604F57B71D4F81C045C
:1021100006F05EFA10BD10B5044600BF94F8E8035F
:10212000012801D1022010BD012084F8E80300BF7E
:1021300001212046FFF7BBFC206807F0A2F82068C9
:1021400007F0F4FA00BF002084F8E80300BF00BFE6
:10215000E9E7000010B50446D4F81C0406F081FA43
:10216000A06928B10348006840F0060001490860F2
:1021700010BD000010ED00E00120010291FAA1F174
:10218000B1FA81F1014A42F82100704700000E4285
:102190002DE9F04385B006464EA30FCB01AC0FC42A
:1021A00050A0006800900024A046A146002500270A
:1021B000042E43D004DC012E48D0022E70D170E0F2
:1021C000082E3FD0102E7FD147484468006800F0A9
:1021D000807068B304F470104FF4701191FAA1F19B
:1021E000B1FA81F1C84001A90F5C04F48030A0B1BC
:1021F0003D48406800F40030710391FAA1F1B1FA52
:1022000081F1C8401DF8009004F4803040B1374897
:10221000B0FBF9F000FB07F502E0354807FB00F5DD
:102220003148406800F48000B0F5800F01D1A84625
:1022300003E068000321B0FBF1F846E000F076FB14
:10224000804642E000F072FB80463EE02648046A89
:1022500004F44070B0F5807F05D104F0020010B1A5
:102260004FF400481BE004F44070B0F5007F07D144
:102270001D48406A00F0020010B149F640480EE0E7
:1022800004F44070B0F5407F07D11748006800F4AF
:10229000003010B14FF2244801E04FF0000814E084
:1022A00012E000F02DFB01460F48406800F440406A
:1022B0004FF4804292FAA2F2B2FA82F2D040401C6D
:1022C0004000B1FBF0F800E000BF00BF404605B0A1
:1022D000BDE8F08302030405060708090A0B0C0D8C
:1022E0000E0F1010010200000010024000127A00D0
:1022F00000093D00F8B5044600250026207800F0CE
:102300000100002874D000BF5448C06940F08050DC
:102310005249C8610846C06900F08050009000BF73
:1023200000BF4F48006840F480704D490860FFF7D7
:10233000D9FA054606E0FFF7D5FA401B642801D913
:102340000320F8BD4648006800F480700028F2D0F1
:102350004248006A00F44070A18801F4407188424C
:1023600060D03E48006A20F440760121080490FACB
:10237000A0F0B0FA80F03B4A02EB8000C0F80014F5
:102380000020090491FAA1F1B1FA81F102EB810177
:10239000C1F800043148066206F0020048B3FFF7B6
:1023A000A1FA054608E0FFF79DFA401B41F288318B
:1023B000884201D90320C4E74020022191FAA1F10B
:1023C000B1FA81F108430121B1EB601F02D123482A
:1023D000006811E04020022191FAA1F1B1FA81F1E7
:1023E00008430221B1EB601F04D11C48006A03E0DE
:1023F00018E00FE01948406A4021022292FAA2F246
:10240000B2FA82F2114301F01F020121914008400B
:102410000028C8D01148006A20F440706168084361
:102420000E490862207800F00200022807D10B480C
:10243000406820F44040A16808430849486020787B
:1024400000F01000102807D10448406820F48000F4
:102450006169084301494860002072E700100240AA
:10246000007000400000424270B504460D46002650
:10247000F748006800F00700A84270D2F4480068EE
:1024800020F007002843F24908600846006800F081
:102490000700A84201D0012070BD207800F00200A2
:1024A000022807D1EB48406820F0F000A1680843FB
:1024B000E8494860207800F0010000286FD060688B
:1024C00001282DD12020010391FAA1F1B1FA81F167
:1024D00008430121B1EB601F02D1DE4800680FE024
:1024E0002020010391FAA1F1B1FA81F10843022100
:1024F000B1EB601F02D1D748006A01E0D548406ABD
:1025000020210A0392FAA2F2B2FA82F2114301F0F8
:102510001F02012191400840002861D10120BBE742
:10252000606802282DD12020010591FAA1F1B1FAAD
:1025300081F108430121B1EB601F02D1C548006859
:1025400010E02020010591FAA1F1B1FA81F10843D0
:102550000221B1EB601F03D1BE48006A02E083E0B4
:10256000BC48406A20210A0592FAA2F2B2FA82F22D
:10257000114301F01F0201219140084078BB012066
:102580008AE72020022191FAA1F1B1FA81F10843F2
:102590000121B1EB601F03D1AE48006810E05BE1A0
:1025A0002020022191FAA1F1B1FA81F10843022120
:1025B000B1EB601F02D1A748006A01E0A548406A5C
:1025C0002021022292FAA2F2B2FA82F2114301F021
:1025D0001F0201219140084008B901205CE7FFE794
:1025E0009C48406820F003006168084399494860AE
:1025F000FFF778F906466068012810D108E0FFF778
:1026000071F9801B41F28831884201D9032043E7E8
:102610009048406800F00C000428F0D11CE160688C
:10262000022810D108E0FFF75DF9801B41F28831E4
:10263000884201D903202FE78648406800F00C004B
:102640000828F0D108E108E0FFF74CF9801B41F2BF
:102650008831884201D903201EE77E48406800F097
:102660000C000028F0D1F7E0207800F002000228EA
:1026700007D17848406820F0F000A1680843754908
:102680004860207800F0010000286ED060680128C2
:102690002CD12020010391FAA1F1B1FA81F1084374
:1026A0000121B1EB601F02D16A4800680FE02020D1
:1026B000010391FAA1F1B1FA81F108430221B1EBD2
:1026C000601F02D16348006A01E06248406A20212D
:1026D0000A0392FAA2F2B2FA82F2114301F01F0247
:1026E00001219140084088BB0120D5E6606802289E
:1026F0002DD12020010591FAA1F1B1FA81F1084311
:102700000121B1EB601F02D1524800680FE0202088
:10271000010591FAA1F1B1FA81F108430221B1EB6F
:10272000601F02D14B48006A01E04A48406A2021FC
:102730000A0592FAA2F2B2FA82F2114301F01F02E4
:1027400001219140084008B90120A5E62DE0202094
:10275000022191FAA1F1B1FA81F108430121B1EB13
:10276000601F03D13B48006810E061E02020022197
:1027700091FAA1F1B1FA81F108430221B1EB601F96
:1027800002D13448006A01E03248406A2021022226
:1027900092FAA2F2B2FA82F2114301F01F02012171
:1027A0009140084008B9012076E62A48406820F0A8
:1027B00003006168084327494860FFF793F806461D
:1027C0006068012810D108E0FFF78CF8801B41F207
:1027D0008831884201D903205EE61E48406800F037
:1027E0000C000428F0D123E06068022810D108E032
:1027F000FFF778F8801B41F28831884201D9032025
:102800004AE61448406800F00C000828F0D10FE0B8
:1028100008E0FFF767F8801B41F28831884201D950
:10282000032039E60B48406800F00C000028F0D186
:102830000748006820F0070028430549086008465B
:10284000006800F00700A84206D0012024E600003E
:102850000020024000100240207800F0040004280C
:1028600007D10D48406820F4E060E16808430A4958
:102870004860207800F00800082808D10648406821
:1028800020F46050216940EAC100034948600220F9
:10289000FFF74AF80020FFE50010024000B500F005
:1028A00045F80949496801F0F001F02292FAA2F2D4
:1028B000B2FA82F2D140054A515CC840044908602E
:1028C0000846006800BD00000010024018A600087D
:1028D0009800002000B5FFF7E1FF0749496801F4BF
:1028E000E0614FF4E06292FAA2F2B2FA82F2D140D1
:1028F000024A515CC84000BD0010024018A6000802
:1029000000B5FFF7CBFF0749496801F460514FF468
:10291000605292FAA2F2B2FA82F2D140024A515CBB
:10292000C84000BD0010024018A60008F0B585B0F0
:102930000FF28C0C9CE8E01001A8A0E8E01024A5A0
:102940002D68009500210024002200230020214D45
:10295000696801F00C056DB3042D02D0082D28D153
:1029600001E01D4828E001F470154FF4701696FA46
:10297000A6F6B6FA86F6F54001AE735D01F4803531
:1029800095B1144D6D6805F400354FF4003696FA94
:10299000A6F6B6FA86F6F5401DF805400E4DB5FBD5
:1029A000F4F505FB03F202E00C4D03FB05F21046C3
:1029B00002E000BF084800BF00BF05B0F0BD000046
:1029C00002030405060708090A0B0C0D0E0F101070
:1029D000010200000010024000127A0000093D00D0
:1029E00038B504460025207800F00100002877D093
:1029F000FC48406800F00C0004280CD0F9484068FE
:102A000000F00C00082837D1F648406800F4803008
:102A1000B0F5803F30D12020010391FAA1F1B1FA45
:102A200081F108430121B1EB601F02D1ED4800683C
:102A30000FE02020010391FAA1F1B1FA81F10843DE
:102A40000221B1EB601F02D1E648006A01E0E548CF
:102A5000406A20210A0392FAA2F2B2FA82F21143EA
:102A600001F01F020121914008400028BFD060689A
:102A7000002835D1012038BD00BFDA48006820F4B5
:102A80008030D84908600846006820F4802008603B
:102A900000BFFEF727FF054606E0FEF723FF401BB9
:102AA000642801D90320E6E72020010391FAA1F16F
:102AB000B1FA81F108430121B1EB601F02D1C9488D
:102AC000006810E02020010391FAA1F1B1FA81F130
:102AD00008430221B1EB601F03D1C248006A02E043
:102AE000B7E0C048406A20210A0392FAA2F2B2FA83
:102AF00082F2114301F01F02012191400840002899
:102B0000CBD100BF6068B0F5803F06D1B548006802
:102B100040F48030B349086028E0606858B9B14893
:102B2000006820F48030AF4908600846006820F44F
:102B3000802008601AE06068B0F5A02F0BD1A9488A
:102B4000006840F48020A74908600846006840F407
:102B5000803008600AE0A348006820F48030A14972
:102B600008600846006820F48020086000BF6068A4
:102B7000B8B3FEF7B7FE054606E0FEF7B3FE401B0E
:102B8000642801D9032076E72020010391FAA1F1FE
:102B9000B1FA81F108430121B1EB601F02D19148E4
:102BA00000680FE02020010391FAA1F1B1FA81F150
:102BB00008430221B1EB601F02D18A48006A01E09C
:102BC0008848406A20210A0392FAA2F2B2FA82F2FD
:102BD000114301F01F020121914008400028CCD090
:102BE00037E0FFE7FEF77EFE054606E0FEF77AFED9
:102BF000401B642801D903203DE72020010391FAFE
:102C0000A1F1B1FA81F108430121B1EB601F02D1BA
:102C1000744800680FE02020010391FAA1F1B1FA95
:102C200081F108430221B1EB601F02D16D48006AB7
:102C300001E06C48406A20210A0392FAA2F2B2FA3B
:102C400082F2114301F01F02012191400840002847
:102C5000CCD1207800F0020002284ED161484068B3
:102C600000F00C0050B15F48406800F00C000828EC
:102C700044D15C48406800F4803078BB20200221B9
:102C800091FAA1F1B1FA81F108430121B1EB601F82
:102C900002D1544800680FE02020022191FAA1F1EE
:102CA000B1FA81F108430221B1EB601F02D14D4816
:102CB000006A01E04B48406A2021022292FAA2F207
:102CC000B2FA82F2114301F01F0201219140084043
:102CD00028B12069012802D00120CCE60EE041484D
:102CE000006820F0F800F82292FAA2F2B2FA82F21A
:102CF0006169914008433B49086095E0206970B3E1
:102D0000012090FAA0F1B1FA81F1374A42F821008E
:102D1000FEF7E8FD054606E0FEF7E4FD401B02284D
:102D200001D90320A7E62020022191FAA1F1B1FAEE
:102D300081F108430121B1EB601F02D129480068ED
:102D400010E02020022191FAA1F1B1FA81F10843AB
:102D50000221B1EB601F03D12248006A02E01EE0AD
:102D60002048406A2021022292FAA2F2B2FA82F2AC
:102D7000114301F01F020121914008400028CBD0EF
:102D80001848006820F0F800F82292FAA2F2B2FA8D
:102D900082F26169914008431249086044E00020D2
:102DA000012191FAA1F1B1FA81F10F4A42F8210013
:102DB000FEF798FD054606E0FEF794FD401B02284D
:102DC00001D9032057E62020022191FAA1F1B1FA9E
:102DD00081F108430121B1EB601F07D10148006870
:102DE00014E00000001002400000424220200221B6
:102DF00091FAA1F1B1FA81F108430221B1EB601F10
:102E000002D1FC48006A01E0FA48406A202102220F
:102E100092FAA2F2B2FA82F2114301F01F020121EA
:102E2000914008400028C7D1207800F00800082809
:102E300046D1A06980B3012090FAA0F1B1FA81F1E6
:102E4000ED4A02EB8101C1F88004FEF74BFD054617
:102E500006E0FEF747FD401B022801D903200AE6E1
:102E60006020022191FAA1F1B1FA81F10843012118
:102E7000B1EB601F02D1DF48006810E06020022142
:102E800091FAA1F1B1FA81F108430221B1EB601F7F
:102E900003D1D848006A02E013E0D648406A6021B6
:102EA000022292FAA2F2B2FA82F2114301F01F0258
:102EB0000121914008400028CBD00120FEF71FFBE4
:102EC00041E00020012191FAA1F1B1FA81F1CA4A51
:102ED00002EB8101C1F88004FEF704FD054606E01F
:102EE000FEF700FD401B022801D90320C3E5602046
:102EF000022191FAA1F1B1FA81F108430121B1EB6C
:102F0000601F02D1BB4800680FE06020022191FAE7
:102F1000A1F1B1FA81F108430221B1EB601F02D1A6
:102F2000B448006A01E0B348406A6021022292FA84
:102F3000A2F2B2FA82F2114301F01F020121914084
:102F400008400028CCD1207800F00400042875D176
:102F500000BFA848C06940F08050A649C861084633
:102F6000C06900F08050009000BF00BFA348006817
:102F700040F48070A1490860FEF7B4FC054606E005
:102F8000FEF7B0FC401B642801D9032073E59B4881
:102F9000006800F480700028F2D000BF9548006AF5
:102FA00020F00100934908620846006A20F00400FE
:102FB000086200BFFEF796FC054608E0FEF792FCAB
:102FC000401B41F28831884201D9032053E540205B
:102FD000022191FAA1F1B1FA81F108430121B1EB8B
:102FE000601F02D1834800680FE04020022191FA5F
:102FF000A1F1B1FA81F108430221B1EB601F02D1C6
:103000007C48006A01E07B48406A4021022292FA33
:10301000A2F2B2FA82F2114301F01F0201219140A3
:1030200008400028CAD100BFE068012807D17148D4
:10303000006A40F001006F49086228E09EE0E06805
:1030400058B96C48006A20F001006A4908620846D5
:10305000006A20F00400086219E0E06805280BD13E
:103060006448006A40F00400624908620846006A49
:1030700040F0010008620AE05E48006A20F00100AA
:103080005C4908620846006A20F00400086200BF3C
:10309000E068C8B3FEF726FC054608E0FEF722FC10
:1030A000401B41F28831884201D90320E3E44020EB
:1030B000022191FAA1F1B1FA81F108430121B1EBAA
:1030C000601F02D14B4800680FE04020022191FAB6
:1030D000A1F1B1FA81F108430221B1EB601F02D1E5
:1030E0004448006A01E04348406A4021022292FAC3
:1030F000A2F2B2FA82F2114301F01F0201219140C3
:1031000008400028CAD039E0FFE7FEF7EBFB054690
:1031100008E0FEF7E7FB401B41F28831884201D905
:103120000320A8E44020022191FAA1F1B1FA81F133
:1031300008430121B1EB601F02D12E4800680FE067
:103140004020022191FAA1F1B1FA81F10843022154
:10315000B1EB601F02D12748006A01E02548406AB0
:103160004021022292FAA2F2B2FA82F2114301F055
:103170001F020121914008400028CAD1E0690028BF
:1031800071D01C48406800F00C0008286CD0E06941
:1031900002286AD10021C00590FAA0F0B0FA80F0B0
:1031A000154A42F82010FEF79DFB054606E0FEF7A3
:1031B00099FB401B022801D903205CE42020010573
:1031C00091FAA1F1B1FA81F108430121B1EB601F3D
:1031D00002D10848006815E02020010591FAA1F10C
:1031E000B1FA81F108430221B1EB601F08D1014817
:1031F000006A07E0001002400000424200700040F8
:103200005748406A20210A0592FAA2F2B2FA82F2E5
:10321000114301F01F020121914008400028C6D14E
:10322000206AB0F5803F07D14D48406820F4003057
:10323000A16808434A494860D4E90801084348495D
:10324000496821F47411084345494860012001068A
:1032500091FAA1F1B1FA81F1424A42F82100FEF758
:1032600041FB054609E079E076E033E0FEF73AFB02
:10327000401B022801D9032015E42020010591FA02
:10328000A1F1B1FA81F108430121B1EB601F02D134
:10329000334800680FE02020010591FAA1F1B1FA4E
:1032A00081F108430221B1EB601F02D12C48006A72
:1032B00001E02B48406A20210A0592FAA2F2B2FAF4
:1032C00082F2114301F01F020121914008400028C1
:1032D000CCD043E000214FF0807090FAA0F0B0FA1B
:1032E00080F0204A42F82010FEF7FCFA054606E07E
:1032F000FEF7F8FA401B022801D9032043E42020FE
:10330000010591FAA1F1B1FA81F108430121B1EB74
:10331000601F02D1124800680FE02020010591FAD9
:10332000A1F1B1FA81F108430221B1EB601F02D192
:103330000B48006A01E00A48406A20210A0592FA17
:10334000A2F2B2FA82F2114301F01F020121914070
:1033500008400028CCD101E0012014E4002012E450
:10336000001002400000424210B503460022002037
:10337000024A02EB81021468A0B210BD006C00404A
:1033800010B503460020034800EB810094B20460AE
:1033900010BD0000006C004010B504460022134927
:1033A000204600F06DF800221149204600F091F807
:1033B0000E4880780F490968884215D00B488078FC
:1033C0000C4908600948427802212046FFF7D8FFDF
:1033D0000648827803212046FFF7D2FF0348C278CF
:1033E00004212046FFF7CCFF10BD00001300002091
:1033F000100000201800002000BFFEE710B50446B2
:103400002068006800F00100E0B12068406800F02A
:103410000100B8B120684068C0F3800048B1204680
:10342000FFF7EAFF6FF00400216848600420607431
:1034300004E02046FFF7B0FF012060746FF0010048
:103440002168486010BD014609B90120704700BFDE
:10345000087C012801D10220F8E70120087400BF90
:10346000022048740868006840F001000A68106093
:103470000120487400BF0020087400BF00BFE5E7CA
:10348000F8B505460C4616460020009005B10CB96B
:103490000120F8BD00226946284600F01AF808B15C
:1034A0000120F6E7287B2070E87BE070687B607085
:1034B000A87BA0705EB1E07802F065FCE0706078F7
:1034C00002F061FC6070A07802F05DFCA07000204A
:1034D000DFE72DE9F04780460C469146002500269F
:1034E000AA460027B8F1000F00D014B90120BDE8AA
:1034F000F087D8F800004068C0F3800008B10120D0
:10350000F5E7404602F013FD05464FF46160B5FB58
:10351000F0F7B5FBF0F100FB11503C21B0FBF1F0EE
:1035200060704FF46160B5FBF0F100FB11503C217D
:10353000B0FBF1F201FB1200A070182F39D3182054
:10354000B7FBF0FAB7FBF0F100FB117020704046BA
:1035500002F0E1FC0646701C18B1AE4201D9761BA0
:1035600001E04FF0FF360AEB4A00C000C0EB40110B
:10357000C1EB0020A5EB00152946404602F04AFDAC
:1035800008B10120B3E7701C38B12E4431464046E3
:1035900002F029FD40B10120A9E73146404602F082
:1035A00022FD08B10120A2E75146404602F0F8FB97
:1035B00000E02770B9F1000F0BD0207802F0E3FB98
:1035C0002070607802F0DFFB6070A07802F0DBFB17
:1035D000A07000208BE7000070B5044600250CB9F0
:1035E000012070BD607C20B900202074204600F0CE
:1035F0005BF802206074204600F074F918B10420D2
:1036000060740120EDE7204602F025FC18B104208B
:1036100060740120E5E72068406820F00700216819
:103620004860A06828B11F48006820F001001D49CB
:1036300008601C48001F006820F46070A1680843FF
:103640001849091F08606068401C08B1656809E0F6
:103650000120FEF79DFD05461DB904206074012080
:10366000BFE76D1E2068806820F00F0040EA15401B
:10367000216888602068C06865F30F002168C86011
:10368000204602F005FC18B1042060740120A8E770
:103690000021E17301216173A17301206074002096
:1036A0009FE70000306C004038B50446154920689B
:1036B000884225D12046FFF7C6FEFEF75DFD00BF1C
:1036C0001148C06940F000600F49C8610846C069F0
:1036D00000F00060009000BF00BF0120C10391FA1C
:1036E000A1F1B1FA81F1094A02EB8101C1F80004AC
:1036F000002211460320FEF768F90320FEF758F96F
:1037000038BD000000280040001002400000424286
:103710002DE9F04704460D46904600260027B146A5
:1037200004B115B90120BDE8F08700BF207C012855
:1037300001D10220F7E70120207400BF022060744D
:10374000B8F1000F06D1E978E17369786173A9785F
:10375000A1730BE0E87802F00BFBE073687802F0ED
:1037600007FB6073A87802F003FBA073A27B617B68
:10377000E07B02F0F6FB2073207B2870204602F0ED
:10378000D6FB06464FF46160B6FBF0F9B9F1180FAD
:103790002FD91820B9FBF0F000EB4000C000C0EBBF
:1037A0004011C1EB0020A6EB00163146204602F086
:1037B00031FC38B10420607400BF0020207400BFC9
:1037C0000120B0E7204602F0A6FB0746781C80B136
:1037D000B7420ED20B4807443946204602F003FC9C
:1037E00038B10420607400BF0020207400BF0120A5
:1037F00099E70120607400BF0020207400BF00BF63
:1038000091E70000805101002DE9F04704460D4684
:1038100090460026002704B115B90120BDE8F087C5
:1038200000BF207C012801D10220F7E7012020748D
:1038300000BF02206074B8F1000F0BD128784FF45C
:10384000616148436978C1EB011100EB8100A978FF
:10385000461812E0287802F08BFA4FF4616100FB01
:1038600001F9687802F084FAC0EB001009EB8009D6
:10387000A87802F07DFA09EB00063146204602F0F6
:10388000C9FB38B10420607400BF0020207400BF61
:103890000120C3E72068406820F0050021684860E7
:1038A000204602F038FB0746781C80B1B7420ED2A2
:1038B0000B4807443946204602F095FB38B10420F6
:1038C000607400BF0020207400BF0120A6E7012023
:1038D000607400BF0020207400BF00BF9EE700009E
:1038E0008051010070B5044600250CB9012070BD5F
:1038F0002068406820F0080021684860FDF7F2FF6A
:10390000054607E0FDF7EEFF401BB0F57A7F01D9D1
:103910000320ECE72068406800F008000028F1D0A0
:103920000020E4E77047704770B505460424284638
:1039300003F06AFB0446042C01D1002070BDFF2C6B
:1039400001D10220FAE70120F8E72DE9F041034612
:103950000020002293F8204081F856409C8CA1F86A
:1039600054409C6A220E94090C70C2F383044C707C
:1039700002F003048C709C6AC4F30742CA701C8D69
:10398000C4F307220A7193F828204A71DC6A220ED8
:103990004FF6FF7404EA0214CC80DC6AC4F30742D9
:1039A000CC8844EA1214CC8002F00F040C729C8D77
:1039B000C4F30722D4094C72C2F380148C72C2F390
:1039C0004014CC72C2F300140C7300244C731C6AB4
:1039D00014B11C6A012C4DD19407240D0C612C24C8
:1039E000E25C0C6944EA82040C611C6B220E0C69D7
:1039F00044EA92140C61C2F3C2040C7502F007048D
:103A00004C751C6BC4F3074254098C75C2F38204D5
:103A1000CC759407640F0C761C8EC4F307220C7EC1
:103A200044EAD2140C760C69641C0025C1E91245E5
:103A30000C7ED1E91267A41C012505FA04F44FEAB3
:103A4000E47CA6FB045807FB048406FB0C44C1E994
:103A500012540D7A0124AC400C650026D1E91257AE
:103A60000C6DA5FB04C807FB048405FB0644C1E9F3
:103A700012C435E01C6A022C31D12C24E25C94067D
:103A8000A40A0C611C6B220E0C6944EA02240C612E
:103A90001C6BC4F307420C6914430C611C8EC4F305
:103AA00007220C690025641C45EB050C4FF40077D8
:103AB0000026A4FB07580CFB078704FB067C4FF489
:103AC00080672C466546B446A4FB076805FB07855E
:103AD00004FB0C54C1E912647C100C6500E0292041
:103AE000C2F3801401F8194F9406640E4C70302410
:103AF000E25C4C7844EAD2144C7002F07F048C7083
:103B00005C6B220ED409CC70C2F341140C71C2F369
:103B100082044C719407240F8C715C6BC4F30742D0
:103B20008C7944EA92148C71C2F34014CC71002455
:103B30000C7202F001044C729C8EC4F30722D4096B
:103B40008C72C2F38014CC72C2F340140C73C2F3B3
:103B500000144C73C2F381048C7302F00304CC7321
:103B60003424E25C54080C7401244C749C6B220EC7
:103B7000CA7419399C6BC4F307424FF6FF7404EA08
:103B80000225CD851C8FC4F30722CC8D1443CC8530
:103B900093F8382015060D63DC6B220E0C6B44EA9B
:103BA00002450D63DC6BC4F307420C6B44EA02254B
:103BB0000D639C8FC4F307220C6B14430C633C24ED
:103BC000E25C342462541C6C220E352462541C6C5A
:103BD000C4F3074215068D634024E45AC4F3072258
:103BE0008C6B44EA02458D634024E25C8C6B44EAB2
:103BF00002258D635C6C220E8C6B14438C635C6CB1
:103C0000C4F307423C24645C44EA12143C256C541F
:103C10001407250DCD874424E45AC4F30722CC8F22
:103C20001443CC874424E25C5508402465540125A4
:103C300041246554BDE8F08110B504462068406B0E
:103C400000F4807058B14FF48070216888630120BF
:103C5000A0640020E064204600F042FC44E02068BC
:103C6000406B00F0020038B1022021688863E064F4
:103C7000204600F036FC37E02068406B00F008007A
:103C800040B10820216888630420E064204600F0E9
:103C900028FC29E02068406B00F0200040B1202083
:103CA000216888630620E064204600F01AFC1BE0CF
:103CB0002068406B00F0100040B11020216888633C
:103CC0000520E064204600F00CFC0DE02068406B0D
:103CD00000F4007040B14FF4007021688863072041
:103CE000E064204600F0FDFB2068C06B4CF23A31E6
:103CF00088432168C86310BD30B58BB004460D46BB
:103D000000200A90182104A8FCF788FA204600F049
:103D100045F8002004900590069007900890C32075
:103D2000099007A807C88DE80700206804A90EC9F4
:103D300002F0B8FE204603F0EFFA0A909DF8280042
:103D400018B19DF828000BB030BD204603F06BF988
:103D50000A909DF8280010B19DF82800F3E7294645
:103D60002046FFF7F2FD0A909DF8280040B9B5F80B
:103D7000540001040A460023204603F087FB0A9002
:103D8000D4E90412A069CDE90012029094E80F0072
:103D900002F088FE9DF82800D5E7000010B586B037
:103DA000044626492068884246D100BF244840691D
:103DB00040F48060224948610846406900F4806010
:103DC000019000BF00BF4FF4F85002900220039012
:103DD0000320059002A91B48FDF7D6FB04200290A2
:103DE000022003900320059002A91748FDF7CCFBA1
:103DF0001648174908601020486000211448816067
:103E00008021C160890001618900416100218161D7
:103E1000C161FDF70FFB00BF0D48A065446200BF04
:103E200000BFE065446200BF002211463120FDF76B
:103E3000CCFD3120FDF7BCFD06B010BD0080014077
:103E400000100240001001400014014044040240F0
:103E5000200200202DE9FF5F8CB0044617469846EB
:103E6000DDE91AB9142107A8FCF7D8F9182101A82F
:103E7000FCF7D4F94FF0000A00250D9E00202168C0
:103E8000C862206A022809D14FF4007B0202002395
:103E900038464146FCF768F907468846CDF81CB01D
:103EA000102008904020099000200A904FF4806074
:103EB0000B9007A9206802F016FE1021204602F0A0
:103EC00045FE8246BAF1000F03D0504610B0BDE85F
:103ED000F09F4FF0FF30019009FB0BF00290902013
:103EE000039002200490002005900120069001A973
:103EF000206802F0A7FDB9F1010F02D91220089045
:103F000001E011200890079707A9206802F0EBFD57
:103F1000B9F1010F22D91221204602F017FE824684
:103F2000BAF1000F01D05046D0E70FE02068406B97
:103F300000F4004050B1002505E0206802F0CFFDFC
:103F400046F825006D1C082DF7D320362068406BFD
:103F500040F22A3108400028E8D021E01121204613
:103F600002F0F4FD8246BAF1000F01D05046ADE7F1
:103F70000FE02068406B00F4004050B1002505E0E0
:103F8000206802F0ACFD46F825006D1C082DF7D323
:103F900020362068406B40F22A6108400028E8D0B3
:103FA0002068406B00F4807070B1B9F1010F0BD93B
:103FB000206A28B1206A012802D0206A022803D191
:103FC000204600F047F882462068406B00F0080069
:103FD00030B10820216888634FF0040A504675E725
:103FE0002068406B00F0020028B10220216888633D
:103FF000824650466AE72068406B00F0200030B1EE
:104000002020216888634FF0060A50465EE720684A
:10401000406B00F4007038B14FF400702168886381
:104020004FF0070A504651E74FF0FF3505E0206892
:1040300002F055FD3060361D6D1E2068406B00F4A7
:10404000001008B1002DF2D140F2FF5021688863C2
:1040500050463BE730B585B0044614216846FCF76E
:10406000DDF80025002000900C20019040200290F7
:10407000002003904FF4806004906946206802F0AD
:1040800032FD0C21204602F061FD0546284605B0B0
:1040900030BD70B58AB004460D460026182104A82C
:1040A000FCF7BCF8206A032801D1272632E0206AF9
:1040B00028B1206A012802D0206A022829D1B5F54A
:1040C000805F01D127260EE0B5F5006F04D12046B0
:1040D00003F07AFA064606E025B9204603F023FAF3
:1040E000064600E02626AEB960680490A0680590F8
:1040F000E0680690079560690890A069099007A894
:1041000007C88DE80700206804A90EC902F0CAFCA0
:1041100000E0292630460AB070BD2DE9FF5F8EB061
:10412000044617469846DDF874B0142109A8FCF738
:1041300075F8182103A8FCF771F800200290814659
:10414000002500260190DDF83CA000902168C8629F
:10415000206A022809D100021C900246002338463A
:104160004146FCF701F8074688461C980990102044
:104170000A9040200B9000200C904FF480600D902E
:1041800009A9206802F0AFFC1021204602F0DEFCF5
:104190000290029818B1029812B0BDE8F09FBBF1EE
:1041A000010F02D919200A9001E018200A900997FE
:1041B00009A9206802F097FCBBF1010F05D919216C
:1041C000204602F0C3FC029004E01821204602F0D1
:1041D000BDFC0290029808B10298DDE71C980BFB29
:1041E00000F94FF0FF3003901C980BFB00F0049097
:1041F000902005900020069007900120089003A9C8
:10420000206802F01FFCBBF1010F3AD931E02068B1
:10421000406B00F4804060B3A9EB050020281BD25E
:10422000A9EB050000F0030018B9A9EB0500800810
:1042300003E0A9EB05008008401C0190002607E080
:104240005146206802F060FC0AF1040A2D1D761C1C
:10425000019886420DD2F3E7002605E00AEB8601BD
:10426000206802F051FC761C082EF7D30AF1200AD0
:1042700020352068406B40F21A3108400028C6D033
:1042800039E031E02068406B00F4804060B3A9EB76
:10429000050020281BD2A9EB050000F0030018B987
:1042A000A9EB0500800803E0A9EB05008008401C8D
:1042B0000190002607E05146206802F025FC0AF133
:1042C000040A2D1D761C019886420DD2F3E70026C4
:1042D00005E00AEB8601206802F016FC761C082E29
:1042E000F7D30AF1200A20352068406B40F21A61AA
:1042F00008400028C6D02068406B00F4807070B180
:10430000BBF1010F0BD9206A28B1206A012802D025
:10431000206A022803D12046FFF79CFE0290206805
:10432000406B00F0080030B1082021688863042049
:104330000290029830E72068406B00F0020028B13C
:104340000220216888630290029825E72068406B6C
:1043500000F0100030B11020216888630520029021
:10436000029819E72068406B00F4007038B14FF4F0
:104370000070216888630720029002980CE740F2E1
:10438000FF50216888636946204602F0D5FE0290FE
:1043900004E06946204602F0CFFE0290029838B948
:1043A0009DF800000728F4D09DF800000628F0D002
:1043B0000298F1E62DE9F0478CB004468A4617468C
:1043C0009846DDE91495142107A8FBF727FF18216B
:1043D00001A8FBF723FF002600202168C862A06423
:1043E0002065E064012D02D90320606501E0022010
:1043F00060652068C06B40F21A3108432168C863C9
:104400003548E16D88623548E16D086309FB05F1C7
:104410008B08216801F180025146E06DFDF734F808
:104420002068C06A40F008002168C862206A02283B
:1044300009D14FF400790202002338464146FBF7C8
:1044400093FE07468846CDF81C9010200890402027
:10445000099000200A904FF480600B9007A9206813
:1044600002F041FB1021204602F070FB06461EB10F
:1044700030460CB0BDE8F087012D02D81820089016
:1044800001E019200890079707A9206802F02BFB8C
:10449000012D05D91921204602F058FB064604E0FB
:1044A0001821204602F052FB06460EB13046E0E7E6
:1044B0004FF0FF30019009FB05F00290902003902F
:1044C0000020049005900120069001A9206802F0C8
:1044D000B9FAE6643046CCE75F6E0008796E0008F2
:1044E0007047704710B504460CB9012010BD94F810
:1044F000510010B9204600F03BF8022084F851002A
:104500002068006820F0400021680860D4E90101BB
:104510000843E16808432169084361690843218B26
:1045200001F400710843E1690843216A0843A16A64
:104530000843216808600421A06901EA1040616A0B
:104540000843216848602168E06A08612068C06902
:1045500020F400602168C86100200449087060658B
:10456000012084F851000020C0E700000400002072
:1045700070472DE9FC4104460E4615461F460020B3
:10458000019094F8510001287BD106B115B90120A2
:10459000BDE8FC8100BF94F85000012801D1022041
:1045A000F6E7012084F8500000BF222084F8510073
:1045B00000206065A663A587E587A064E0642063AA
:1045C000A086E086A068B0F5004F05D1206800689D
:1045D00020F4804021680860A06AB0F5005F0DD12A
:1045E00000BF2068006820F400502168086020683F
:1045F000006840F400502168086000BF6068B0F5B2
:10460000827F0ED1A06860B900BF002084F85000FE
:1046100000BF2B46324631462046009700F0AFF9E6
:10462000B6E72068006800F04000402805D0206808
:10463000006840F0400021680860E06810BB12E0AC
:104640003B4600220121204603F0B6F808B10320C2
:104650009EE72068C068C1B2A26B501CA0631170B5
:10466000E08F401EE087E08F0128E9DCA06AB0F50A
:10467000005F28D12068006840F4805021680860FD
:1046800021E09AE012E03B4600220121204603F09F
:1046900093F808B103207BE72068C068A16B08800D
:1046A000A06B801CA063E08F401EE087E08F012894
:1046B000E9DCA06AB0F5005F05D12068006840F42D
:1046C0008050216808603B4600220121204603F00B
:1046D00073F808B103205BE7E06838B92068C06868
:1046E000C1B2A26B501CA063117006E02068C068C4
:1046F000A16B0880A06B801CA063E08F401EE08748
:10470000A06AB0F5005F12D13B460022012120468D
:1047100003F052F828B1606D40F00200606503209C
:1047200036E72068C06880B20190BDF80400606878
:10473000B0F5827F0DD1A068B0F5004F03D0A0681E
:10474000B0F5806F05D12068006820F04000216836
:104750000860012084F85100A06AB0F5005F26D1FE
:1047600020688068C0F3001008B3204603F010F8FA
:10477000012818D1606D40F00200606500BF20681C
:10478000006820F40050216808602068006840F448
:1047900000502168086000BF00BF002084F850006E
:1047A00000BF0120F4E66FF010002168886000BFB0
:1047B000002084F8500000BFEAE60220E8E6F8B5E1
:1047C00004460E4615461F4694F85100012874D140
:1047D00006B10DB90120F8BD00BF94F850000128C2
:1047E00001D10220F7E7012084F8500000BF122019
:1047F00084F85100002060652663A586E586E064A4
:10480000A064A063A087E087A06AB0F5005F0DD127
:1048100000BF2068006820F400502168086020680C
:10482000006840F400502168086000BFA068B0F53F
:10483000004F05D12068006840F48040216808607E
:104840002068006800F04000402805D0206800681B
:1048500040F0400021680860E06878BB606810B1F3
:10486000E08E012808D1216B481C2063087821685C
:10487000C860E08E401EE08611E03B460022022127
:10488000204602F099FF08B10320A4E7216B481CE1
:10489000206308782168C860E08E401EE086E08EC4
:1048A0000028EADCA06AB0F5005F38D12068006813
:1048B00040F480502168086031E05EE0FFE7606806
:1048C00010B1E08E012809D1206B00882168C860F2
:1048D000206B801C2063E08E401EE08612E03B4689
:1048E00000220221204602F067FF08B1032072E790
:1048F000206B00882168C860206B801C2063E08EDC
:10490000401EE086E08E0028E9DCA06AB0F5005F7A
:1049100005D12068006840F48050216808603B465B
:1049200000220221204602F047FF28B1606D40F0CE
:104930001000606503204EE73B460122802120469F
:1049400002F03AFF28B1606D40F01000606503206E
:1049500041E7A06840B900BF2068C06800902068A7
:104960008068009000BF00BF012084F8510000BFA4
:10497000002084F8500000BF2DE702202BE72DE92E
:10498000F84304460E4617461D46DDF820800020F9
:10499000009094F85100012803D094F85100222887
:1049A00076D10EB107B115B90120BDE8F88300BF7B
:1049B00094F85000012801D10220F6E7012084F884
:1049C000500000BF94F85100012802D1322084F831
:1049D000510000206065A763A587E5872663A5864B
:1049E000E586A064E064A06AB0F5005F0DD100BF69
:1049F0002068006820F40050216808602068006882
:104A000040F400502168086000BF2068006800F092
:104A10004000402805D02068006840F04000216830
:104A20000860E068B0F5006F75D1606830B160680B
:104A3000B0F5827F0CD1E08E012809D1206B00886F
:104A40002168C860206B801C2063E08E401EE086D9
:104A5000E08EF0B9A06AB0F5005F05D1206800686B
:104A600040F480502168086043460022012120461E
:104A700002F0A2FE08B1032097E72068C068A16B8E
:104A80000880A06B801CA063E08F401EE087C7E019
:104A900015E131E0434600220221204602F08CFE5F
:104AA00008B1032081E7206B00882168C860206B73
:104AB000801C2063E08E401EE086E08E48B9A06A2C
:104AC000B0F5005F05D12068006840F4805021688F
:104AD0000860434600220121204602F06DFE08B125
:104AE000032062E72068C068A16B0880A06B801C6F
:104AF000A063E08F401EE087E08E0028CADC60687B
:104B00000028C4D1434600220121204602F054FE71
:104B100010B1032049E70AE02068C068A16B088053
:104B2000A06B801CA063E08F401EE08778E0606887
:104B300030B16068B0F5827F0BD1E08E012808D1DA
:104B4000216B481C206308782168C860E08E401EF5
:104B5000E086E08ED0B9A06AB0F5005F05D120688C
:104B6000006840F48050216808604346002201211B
:104B7000204602F021FE08B1032016E72068C06835
:104B8000A16B0870E08F401EE08749E030E04346AB
:104B900000220221204602F00FFE08B1032004E7A4
:104BA000216B481C206308782168C860E08E401E95
:104BB000E086E08E48B9A06AB0F5005F05D12068B4
:104BC000006840F4805021680860434600220121BB
:104BD000204602F0F1FD08B10320E6E62068C06837
:104BE000C1B2A26B501CA0631170E08F401EE08721
:104BF000E08E0028CBDC606890B94346002201219A
:104C0000204602F0D9FD08B10320CEE62068C06836
:104C1000C1B2A26B501CA0631170E08F401EE087F0
:104C2000A06AB0F5005F12D1434600220121204660
:104C300002F0C2FD28B1606D40F002006065032003
:104C4000B3E62068C06880B20090BDF8000043461B
:104C500001228021204602F0AFFD28B1606D40F0B6
:104C6000100060650320A0E6012084F85100A06ACE
:104C7000B0F5005F1DD120688068C0F30010C0B19E
:104C8000606D40F00200606500BF2068006820F49D
:104C90000050216808602068006840F400502168D6
:104CA000086000BF00BF002084F8500000BF012052
:104CB0007BE600BF002084F8500000BF75E60220AC
:104CC00073E670B504460E4615460CB9012070BD5A
:104CD00094F83D0028B9002084F83C00204600F0FC
:104CE0001CF804F108012068FBF786FE3146A26833
:104CF0002068FBF7D5FE2946236BD4E90102FBF7B8
:104D000049FEA168206850F8210040F00100A26827
:104D1000216841F822000020D9E710B50446FCF7CD
:104D2000FBFB10BD042808D14FF0E021096941F0D8
:104D300004014FF0E022116107E04FF0E021096922
:104D400021F004014FF0E02211617047704770B507
:104D500004462546681EB0F1807F01D301200FE094
:104D6000681E4FF0E02148610F214FF0FF3000F046
:104D7000ABFD00204FF0E021886107200861002092
:104D800070BD10B5FFF7E2FF10BD10B504460CB9B9
:104D9000012010BDA06900B100E000BF94F8390007
:104DA00028B9002084F83800204600F025F80220B9
:104DB00084F839002068C06820F400502168C86079
:104DC000204602F095FF2068006920F49040216899
:104DD00008612068406920F02A0021684861206845
:104DE000C06840F400502168C8600020E0630120E2
:104DF00084F839000020CCE710B586B00446144989
:104E00002068884221D100BF1248806940F4804068
:104E1000104988610846806900F48040019000BF15
:104E200000BF48150290022003900320059002A9BC
:104E30000948FCF7A9FB4FF4806002900020039022
:104E4000049002A90448FCF79FFB06B010BD0000C7
:104E500000380140001002400008014010B5012256
:104E600020210248FCF738FD10BD0000000C014075
:104E700030B5054600240021084600F06BF92220D9
:104E8000FBF774FD00BF03E02846FBF773FD641CCD
:104E9000B4F5963FF8D32220FBF768FD30BD2DE92D
:104EA000FE4F82468B4691469846C34511D1CA456E
:104EB00001DC544601E04C46D14606E05946204606
:104EC0000C9A00F056F9601C84B24C45F6DDBDE842
:104ED000FE8FC34503DDABEB080087B202E0A8EB11
:104EE0000B0087B2CA4510D1C34501DC5D4601E025
:104EF0004546D84606E0294650460C9A00F039F956
:104F0000681C85B24545F6DDE1E7CA4507DDAAEB39
:104F1000090086B24C46D1464546D84604E0A9EB86
:104F20000A0086B254465D46BE4211D10DE0601CB7
:104F300084B2454502DD681E85B201E0681C85B279
:104F4000294620460C9A00F014F94C45EFDDA2E00A
:104F5000294620460C9A00F00CF945454DDABE4230
:104F600025DDC6EB470000B20290780000B2019048
:104F7000B81B400000B2009016E0601C84B202989A
:104F8000002805DADDE90110084400B2029006E0CD
:104F9000681C85B200990298084400B20290294624
:104FA00020460C9A00F0E5F84C45E6DB73E0C7EBD1
:104FB000460000B20290700000B20190F01B400069
:104FC00000B2009016E0681C85B20298002805DA4D
:104FD000DDE90110084400B2029006E0601C84B2D2
:104FE00000990298084400B20290294620460C9A83
:104FF00000F0BFF84545E6DB4DE0BE4225DDC6EBDF
:10500000470000B20290780000B20190B81B400047
:1050100000B2009016E0601C84B20298002805DA05
:10502000DDE90110084400B2029006E0681E85B276
:1050300000990298084400B20290294620460C9A32
:1050400000F097F84C45E6DB25E0C7EB460000B2E0
:105050000290700000B20190F01B400000B200907E
:1050600016E0681E85B20298002805DADDE9011015
:10507000084400B2029006E0601C84B200990298D5
:10508000084400B20290294620460C9A00F071F8BC
:10509000A845E6DB00BF00BF19E72DE9F847054644
:1050A000884616469946DDE9097ABAF1000F13D011
:1050B000B54202DD34462E4600E02C4608E04B4661
:1050C0002246414620460097FFF7E9FE601C84B265
:1050D000B442F4DDBDE8F8874B462A4641462846EF
:1050E0000097FFF7DCFE4B463246494628460097BC
:1050F000FFF7D5FE43463246494630460097FFF754
:10510000CEFE43462A46414630460097FFF7C7FE8B
:1051100000BFDFE701207047F0B504460D46164694
:105120001F464420FBF722FC44EA062188B2FBF725
:1051300021FC4520FBF71AFC2846FBF71BFC462008
:10514000FBF714FC3846FBF715FC2946204600F017
:1051500001F8F0BD30B504460D4621464E20FBF760
:105160000FFC29464F20FBF70BFC2220FBF7FEFB30
:1051700030BD70B504460D46164621462846FFF759
:10518000E9FF31462220FBF7FBFB70BD2DE9FF4F05
:1051900083B006460F469046DDE91194B9F1000F41
:1051A0000ED0082000FB0470401E83B2062000FBD6
:1051B0000460401E82B239463046FFF7ADFF0DE075
:1051C000062000FB0460401E83B2082000FB047030
:1051D000401E82B231463846FFF79EFF002573E03D
:1051E000052D1FDAB8F1810F08DAA8F1200000EBD5
:1051F00080003B490844405D029007E0A8F15F0051
:1052000000EB800036490844405D0290B9F1000F80
:105210000AD046F278011120FBF7B2FB2220FBF7FF
:10522000A5FB01E000200290009448E0B9F1000FD6
:1052300002D04FF0010A01E04FF0800A00200190F7
:1052400036E0A346109890B90DE0029800EA0A00F3
:1052500018B10698FBF78EFB01E0FBF781FBABF181
:10526000010000F0FF0BBBF1000FEED112E00EE0E9
:10527000029800EA0A0018B10698FBF77BFB02E0EF
:105280001098FBF777FBABF1010000F0FF0BBBF1CF
:10529000000FEDD1B9F1000F04D04FEA4A604FEA98
:1052A000106A01E04FEA6A0A0198401CC0B20190FE
:1052B00001980828C5DB0098401EC0B200900098F5
:1052C0000028B3D1681CC5B2062D89DB4FF49E734C
:1052D000EF2200210846FFF71FFF07B0BDE8F08F5F
:1052E0002CA600082DE9FE4F05468846144699462F
:1052F000DDE90CAB0E9E002710E0CDE900AB029675
:1053000014F8012B07EB4701490001FB065188B255
:105310004B464146FFF73AFF781CC7B22078002879
:10532000EBD1BDE8FE8F70B50546D5F818424FF4B5
:105330000670005D48B94FF40570005928B1607AD5
:1053400018B90121284603F07AF98121284603F093
:1053500076F9607A022806D11F2304F50372012131
:10536000284603F0DDF870BD70B50546D5F8184243
:105370004FF4047001594FF40C7001514FF4057053
:1053800001594FF40D7001510121284603F05EF8D8
:105390001F2811D12749D4F80C0288420CD140F2C1
:1053A0001920005D012807DC4815005D012803DB9A
:1053B0004815005D10280DDD40F21920015D202305
:1053C0000522284601F02FFA022060722846FFF7D6
:1053D000AAFF2EE040F21920015D04F21B222846AC
:1053E00000F0BEFF00280BDA207A052804D1012145
:1053F000284600F0B7F81CE02846FFF794FF18E0B5
:10540000207A022815D0207A012812D0207A032889
:105410000FD06089002806DD628904F10C0128465E
:1054200000F0BEF805E0608918B90021284600F0B8
:1054300099F870BD5553424370B506460D46D6F8EF
:105440001842607A022806D18121304603F0F7F82D
:10545000002060720AE005F08000802806D1607AA2
:10546000012803D00121304600F07CF870BD70B5F2
:1054700005460E46D5F81842207A022804D00328A3
:1054800012D0042815D10EE040F21920015D04F27B
:105490001B22284600F064FF002803DA0121284679
:1054A00000F060F806E000BF0021284600F05AF83E
:1054B00000E000BF00BF70BD70B505460E46D5F8D0
:1054C0001842207A10B1012813D103E02846FFF7D3
:1054D0004BFF0FE040F21920015D04F21B22284629
:1054E00000F03EFF002803DA0121284600F03AF8D8
:1054F00000E000BF00BF70BDD0F8181200220A7291
:10550000704770B50546D5F81842002020726072C9
:1055100084F85D0284F85C02D5F81C020168002062
:1055200088470121284602F087FF8121284602F0A2
:1055300083FF1F2304F503720121284602F0F0FFC8
:1055400070BD70B50546D5F81842002020720120C4
:1055500060721F2304F503720121284602F0E0FF68
:1055600070BD000070B505460E46D5F818420B48D0
:10557000C4F82C024FF40E700655002020720D2343
:1055800004F50B728121284603F075F81F2304F5FA
:1055900003720121284602F0C3FF70BD55534253E8
:1055A0002DE9F04106460F461546D6F818424FF44D
:1055B00005700059A84203D24FF40570005900E06D
:1055C000284685B24FF40D700059411B4FF40D7001
:1055D00001510021001D0155042020722B463A463E
:1055E0008121304603F047F8BDE8F08108B500BFDF
:1055F0000A48406940F0020008494861084640698D
:1056000000F00200009000BF00BF002201213B20FB
:10561000FCF7DBF93B20FCF7CBF908BD001002409A
:1056200010B503490348FBF767F90349087010BD3B
:10563000390000202CA800083800002000B587B0F1
:105640004FF02040194908601948486000208860E0
:1056500000211648C1600161102141610021816172
:10566000C161016241624FF4805181620021C162D7
:105670000163416381630F2000900190FF2002903D
:105680000F20039010200490112005900020069018
:10569000002269460548FFF714FB0648C06940F43C
:1056A00080600449C86107B000BD00009802002076
:1056B000040100A00000014000B585B000BF2948EA
:1056C000806940F01000274988610846806900F031
:1056D0001000009000BF00BF00BF0846806940F086
:1056E000400088610846806900F04000009000BFDB
:1056F00000BF00BF0846806940F02000886108466E
:10570000806900F02000009000BF00BF00BF084685
:10571000806940F0040088610846806900F0040058
:10572000009000BF00BF00BF0846806940F008003D
:1057300088610846806900F00800009000BF00BF43
:105740000022A0210848FCF7C7F8A0200190012002
:1057500002900220049001A90348FBF715FF05B051
:1057600000BD000000100240000C01401CB52D4897
:105770002D4908604FF0FF30486000212A488160C1
:10578000FDF72AFF01212848FDF7EEFDC92836D094
:10579000C92201212448FDF7F3FD16208DF80400ED
:1057A00002208DF8050000208DF80600002201A9D6
:1057B0001D48FEF729F805208DF8000004208DF81B
:1057C000010017208DF8020010208DF80300002240
:1057D00069461548FDF79CFF14484278022112489B
:1057E000FDF7CEFD1148827803210F48FDF7C8FD73
:1057F0000E48C27804210C48FDF7C2FD11E00221D9
:105800000948FDF7B1FD0949487003210648FDF735
:10581000ABFD0649887004210348FDF7A5FD034947
:10582000C8701CBD0028004050010020130000205B
:10583000064807490860002048600021044881604C
:10584000C1600161416104218161704700800140B4
:105850006401002010B50948094908604FF4E1309F
:105860004860002106488160C16001610C214161EE
:1058700000218161C161FFF788FA10BD0038014045
:105880005802002010B500220749084802F0F7FC32
:105890000749064803F02DF80649044802F07AFF4C
:1058A000024803F0EFF810BD640000200C0C00204B
:1058B000A80000204400002002480068C0F3022035
:1058C000704700000CED00E010B5002807DA0A0769
:1058D000140E054A00F00F031B1FD45403E00A07FF
:1058E000130E024A135410BD18ED00E000E400E06E
:1058F0002DE9FC41054600240027002600200190E8
:1059000000900CE2BDF8040000F00F06002E7DD1DF
:10591000BDF8040000F0100088BB2868008848F635
:105920000F7108402968088005F128042868B0F83C
:105930005010207801EBC000801C296801F58061BF
:1059400031F81000C0F30900E061E16960690844C2
:10595000606100212846FCF7ABF895F82400002888
:10596000CFDDA0690028CCD195F8240040F080005C
:105970002968A1F84C00002085F82400CFE1FFE75A
:1059800005F50274286800880090BDF8000000F456
:10599000006018B32868B0F85010207801EBC00000
:1059A000801D296801F5806131F81000C0F30900FD
:1059B000E061A18B8BB2A28805F57B71286803F0AA
:1059C000D4FE28680088C0F30E0048F68F710840A6
:1059D000296808802846FCF795FBA0E1BDF8000087
:1059E00000F4004000288CD028680088C0F30E0026
:1059F00048F68F710840296808802868B0F8501070
:105A0000207801EBC000801D296800E055E001F519
:105A1000806131F81000C0F30900E061E06960B115
:105A2000B4F81CC01FFA8CF3A2886169286803F0DF
:105A30009CFEE16960690844606100212846FCF72A
:105A400045F82A6802F580622868B0F85000801D89
:105A500002EB400122693E2A10D92269C2F34F109D
:105A6000227C02F01F020AB9421E90B24FF6FF726A
:105A700002EA802242F400420A600DE02269C2F389
:105A80004F00227C02F001020AB1421C90B24FF694
:105A9000FF7202EA80220A60296809884BF68F7239
:105AA00001EA020080F4805080F4005040F400418C
:105AB00041F080012A68118031E17100286830F8D6
:105AC00011000090BDF8000000F4004000287CD0D8
:105AD0007100286830F81100C0F30E0048F68F718D
